{
  "contractName": "BaddToken",
  "abi": [
    {
      "inputs": [
        {
          "internalType": "string",
          "name": "symbol",
          "type": "string"
        },
        {
          "internalType": "uint256",
          "name": "initialSupply",
          "type": "uint256"
        }
      ],
      "stateMutability": "nonpayable",
      "type": "constructor"
    },
    {
      "inputs": [
        {
          "internalType": "address",
          "name": "receiver",
          "type": "address"
        },
        {
          "internalType": "uint256",
          "name": "amount",
          "type": "uint256"
        }
      ],
      "name": "transfer",
      "outputs": [
        {
          "internalType": "bool",
          "name": "",
          "type": "bool"
        }
      ],
      "stateMutability": "nonpayable",
      "type": "function"
    },
    {
      "inputs": [
        {
          "internalType": "address",
          "name": "account",
          "type": "address"
        }
      ],
      "name": "balanceOf",
      "outputs": [
        {
          "internalType": "uint256",
          "name": "",
          "type": "uint256"
        }
      ],
      "stateMutability": "view",
      "type": "function"
    },
    {
      "inputs": [
        {
          "internalType": "address",
          "name": "spender",
          "type": "address"
        },
        {
          "internalType": "uint256",
          "name": "amount",
          "type": "uint256"
        }
      ],
      "name": "approve",
      "outputs": [
        {
          "internalType": "bool",
          "name": "",
          "type": "bool"
        }
      ],
      "stateMutability": "nonpayable",
      "type": "function"
    },
    {
      "inputs": [
        {
          "internalType": "address",
          "name": "from",
          "type": "address"
        },
        {
          "internalType": "address",
          "name": "to",
          "type": "address"
        },
        {
          "internalType": "uint256",
          "name": "amount",
          "type": "uint256"
        }
      ],
      "name": "transferFrom",
      "outputs": [
        {
          "internalType": "bool",
          "name": "",
          "type": "bool"
        }
      ],
      "stateMutability": "nonpayable",
      "type": "function"
    },
    {
      "inputs": [
        {
          "internalType": "address",
          "name": "owner",
          "type": "address"
        },
        {
          "internalType": "address",
          "name": "spender",
          "type": "address"
        }
      ],
      "name": "allowance",
      "outputs": [
        {
          "internalType": "uint256",
          "name": "",
          "type": "uint256"
        }
      ],
      "stateMutability": "view",
      "type": "function"
    }
  ],
  "bytecode": "0x60806040526000805534801561001457600080fd5b506040516105703803806105708339818101604052604081101561003757600080fd5b810190808051604051939291908464010000000082111561005757600080fd5b90830190602082018581111561006c57600080fd5b825164010000000081118282018810171561008657600080fd5b82525081516020918201929091019080838360005b838110156100b357818101518382015260200161009b565b50505050905090810190601f1680156100e05780820380516001836020036101000a031916815260200191505b5060405260209081015184519093506100ff9250600191850190610118565b50600081815533815260026020526040902055506101b9565b828054600181600116156101000203166002900490600052602060002090601f01602090048101928261014e5760008555610194565b82601f1061016757805160ff1916838001178555610194565b82800160010185558215610194579182015b82811115610194578251825591602001919060010190610179565b506101a09291506101a4565b5090565b5b808211156101a057600081556001016101a5565b6103a8806101c86000396000f3fe608060405234801561001057600080fd5b50600436106100675760003560e01c806370a082311161005057806370a08231146100e2578063a9059cbb1461011a578063dd62ed3e1461014657610067565b8063095ea7b31461006c57806323b872dd146100ac575b600080fd5b6100986004803603604081101561008257600080fd5b506001600160a01b038135169060200135610174565b604080519115158252519081900360200190f35b610098600480360360608110156100c257600080fd5b506001600160a01b038135811691602081013590911690604001356101c5565b610108600480360360208110156100f857600080fd5b50356001600160a01b03166102dc565b60408051918252519081900360200190f35b6100986004803603604081101561013057600080fd5b506001600160a01b0381351690602001356102f7565b6101086004803603604081101561015c57600080fd5b506001600160a01b0381358116916020013516610347565b33600081815260026020526040812054909190839081111561019557600080fd5b50503360009081526003602090815260408083206001600160a01b03969096168352949052929092205550600190565b6001600160a01b038316600090815260026020526040812054849083908111156101ee57600080fd5b6001600160a01b038616600090815260036020908152604080832033808552925290912054879190869081111561022457600080fd5b6001600160a01b03891660009081526003602090815260408083203384529091529020546102518a6102dc565b101561028557610260896102dc565b6001600160a01b038a1660009081526003602090815260408083203384529091529020555b505050506001600160a01b0394851660008181526003602090815260408083203384528252808320805488900390559282526002905281812080548690039055949095168452505091902080549091019055600190565b6001600160a01b031660009081526002602052604090205490565b3360009081526002602052604081205482111561031357600080fd5b5033600090815260026020526040808220805484900390556001600160a01b03841682529020805482019055600192915050565b6001600160a01b0391821660009081526003602090815260408083209390941682529190915220549056fea26469706673582212209e86c9145c98e7361cdbb9209e4622bf5cfc5e766c4fd1269bd4f185d0b60d7e64736f6c63430007060033",
  "immutableReferences": {},
  "source": "// SPDX-License-Identifier: MIT\npragma solidity =0.7.6;\n\ncontract BaddToken {  \n    uint _totalSupply = 0;\n    string _symbol;  \n    mapping(address => uint) balances;\n    mapping(address => mapping(address => uint)) allowances;\n    \n    constructor(string memory symbol, uint256 initialSupply) {\n        _symbol = symbol;\n        _totalSupply = initialSupply;\n        balances[msg.sender] = _totalSupply;\n    }\n  \n    function transfer(address receiver, uint amount) public returns (bool) {    \n        require(amount <= balances[msg.sender]);       \n        balances[msg.sender] = balances[msg.sender] - amount;\n        balances[receiver] = balances[receiver] + amount;\n\n        return true;  \n    }\n\n    function balanceOf(address account) public view returns(uint256) {\n        return balances[account];\n    }\n\n    modifier checkBalance(address account, uint amount) {\n        require(amount <= balances[account]);\n        _;\n    }\n\n    modifier checkAllowance(address owner, address spender, uint amount) {\n        require(amount <= allowances[owner][spender]);\n        _;\n    }\n\n    function approve(address spender, uint256 amount) external checkBalance(msg.sender, amount) returns (bool) {\n        allowances[msg.sender][spender] = amount;\n        \n        return true;\n    }\n\n    function transferFrom(address from, address to, uint256 amount) external checkBalance(from, amount) checkAllowance(from, msg.sender, amount) returns (bool) {\n        if (balanceOf(from) < allowances[from][msg.sender]) {\n            allowances[from][msg.sender] = balanceOf(from);\n        }\n\n        allowances[from][msg.sender] -= amount;\n        balances[from] -= amount;\n        balances[to] += amount;\n\n        return true;\n    }\n\n    function allowance(address owner, address spender) external view returns (uint256) {\n        return allowances[owner][spender];\n    }\n}",
  "sourcePath": "/Users/hua/Codes/block-chain/uniswap-o/v3-core/contracts/Token.sol",
  "compiler": {
    "name": "solc",
    "version": "0.7.6+commit.7338295f.Emscripten.clang"
  },
  "schemaVersion": "3.4.8",
  "updatedAt": "2023-01-24T22:32:28.865Z",
  "devdoc": {
    "kind": "dev",
    "methods": {},
    "version": 1
  },
  "userdoc": {
    "kind": "user",
    "methods": {},
    "version": 1
  }
}