{
  "contractName": "EthrelayTestContract",
  "abi": [
    {
      "inputs": [
        {
          "internalType": "bytes",
          "name": "_rlpHeader",
          "type": "bytes"
        },
        {
          "internalType": "uint256",
          "name": "totalDifficulty",
          "type": "uint256"
        },
        {
          "internalType": "address",
          "name": "_ethashContractAddr",
          "type": "address"
        }
      ],
      "stateMutability": "nonpayable",
      "type": "constructor"
    },
    {
      "anonymous": false,
      "inputs": [
        {
          "indexed": false,
          "internalType": "uint256",
          "name": "returnCode",
          "type": "uint256"
        }
      ],
      "name": "DisputeBlock",
      "type": "event"
    },
    {
      "anonymous": false,
      "inputs": [
        {
          "indexed": false,
          "internalType": "address[]",
          "name": "submittersOfIllegalBlocks",
          "type": "address[]"
        }
      ],
      "name": "DisputeBlockWithoutPunishment",
      "type": "event"
    },
    {
      "anonymous": false,
      "inputs": [
        {
          "indexed": false,
          "internalType": "bytes32",
          "name": "blockHash",
          "type": "bytes32"
        }
      ],
      "name": "NewBlock",
      "type": "event"
    },
    {
      "anonymous": false,
      "inputs": [
        {
          "indexed": false,
          "internalType": "uint256",
          "name": "returnCode",
          "type": "uint256"
        },
        {
          "indexed": false,
          "internalType": "uint256",
          "name": "errorInfo",
          "type": "uint256"
        }
      ],
      "name": "PoWValidationResult",
      "type": "event"
    },
    {
      "anonymous": false,
      "inputs": [
        {
          "indexed": false,
          "internalType": "bytes32",
          "name": "root",
          "type": "bytes32"
        }
      ],
      "name": "RemoveBranch",
      "type": "event"
    },
    {
      "anonymous": false,
      "inputs": [
        {
          "indexed": false,
          "internalType": "uint8",
          "name": "result",
          "type": "uint8"
        }
      ],
      "name": "VerifyReceipt",
      "type": "event"
    },
    {
      "anonymous": false,
      "inputs": [
        {
          "indexed": false,
          "internalType": "uint8",
          "name": "result",
          "type": "uint8"
        }
      ],
      "name": "VerifyState",
      "type": "event"
    },
    {
      "anonymous": false,
      "inputs": [
        {
          "indexed": false,
          "internalType": "uint8",
          "name": "result",
          "type": "uint8"
        }
      ],
      "name": "VerifyTransaction",
      "type": "event"
    },
    {
      "anonymous": false,
      "inputs": [
        {
          "indexed": false,
          "internalType": "address",
          "name": "client",
          "type": "address"
        },
        {
          "indexed": false,
          "internalType": "uint256",
          "name": "withdrawnStake",
          "type": "uint256"
        }
      ],
      "name": "WithdrawStake",
      "type": "event"
    },
    {
      "inputs": [
        {
          "internalType": "uint256",
          "name": "amount",
          "type": "uint256"
        }
      ],
      "name": "depositStake",
      "outputs": [],
      "stateMutability": "payable",
      "type": "function"
    },
    {
      "inputs": [
        {
          "internalType": "bytes",
          "name": "rlpHeader",
          "type": "bytes"
        },
        {
          "internalType": "bytes",
          "name": "rlpParent",
          "type": "bytes"
        },
        {
          "internalType": "uint256[]",
          "name": "dataSetLookup",
          "type": "uint256[]"
        },
        {
          "internalType": "uint256[]",
          "name": "witnessForLookup",
          "type": "uint256[]"
        }
      ],
      "name": "disputeBlockHeader",
      "outputs": [],
      "stateMutability": "nonpayable",
      "type": "function"
    },
    {
      "inputs": [],
      "name": "getBlockHashesSubmittedByClient",
      "outputs": [
        {
          "internalType": "bytes32[]",
          "name": "",
          "type": "bytes32[]"
        }
      ],
      "stateMutability": "view",
      "type": "function"
    },
    {
      "inputs": [],
      "name": "getGenesisBlockHash",
      "outputs": [
        {
          "internalType": "bytes32",
          "name": "hash",
          "type": "bytes32"
        }
      ],
      "stateMutability": "view",
      "type": "function"
    },
    {
      "inputs": [
        {
          "internalType": "bytes32",
          "name": "blockHash",
          "type": "bytes32"
        }
      ],
      "name": "getHeader",
      "outputs": [
        {
          "internalType": "bytes32",
          "name": "hash",
          "type": "bytes32"
        },
        {
          "internalType": "uint256",
          "name": "blockNumber",
          "type": "uint256"
        },
        {
          "internalType": "uint256",
          "name": "totalDifficulty",
          "type": "uint256"
        }
      ],
      "stateMutability": "view",
      "type": "function"
    },
    {
      "inputs": [],
      "name": "getLongestChainEndpoint",
      "outputs": [
        {
          "internalType": "bytes32",
          "name": "hash",
          "type": "bytes32"
        }
      ],
      "stateMutability": "view",
      "type": "function"
    },
    {
      "inputs": [],
      "name": "getRequiredStakePerBlock",
      "outputs": [
        {
          "internalType": "uint256",
          "name": "",
          "type": "uint256"
        }
      ],
      "stateMutability": "pure",
      "type": "function"
    },
    {
      "inputs": [],
      "name": "getRequiredVerificationFee",
      "outputs": [
        {
          "internalType": "uint256",
          "name": "",
          "type": "uint256"
        }
      ],
      "stateMutability": "pure",
      "type": "function"
    },
    {
      "inputs": [],
      "name": "getStake",
      "outputs": [
        {
          "internalType": "uint256",
          "name": "",
          "type": "uint256"
        }
      ],
      "stateMutability": "view",
      "type": "function"
    },
    {
      "inputs": [
        {
          "internalType": "uint256",
          "name": "feeInWei",
          "type": "uint256"
        },
        {
          "internalType": "bytes32",
          "name": "blockHash",
          "type": "bytes32"
        },
        {
          "internalType": "uint8",
          "name": "noOfConfirmations",
          "type": "uint8"
        }
      ],
      "name": "isBlockConfirmed",
      "outputs": [
        {
          "internalType": "bool",
          "name": "",
          "type": "bool"
        }
      ],
      "stateMutability": "payable",
      "type": "function"
    },
    {
      "inputs": [
        {
          "internalType": "bytes32",
          "name": "hash",
          "type": "bytes32"
        }
      ],
      "name": "isHeaderStored",
      "outputs": [
        {
          "internalType": "bool",
          "name": "",
          "type": "bool"
        }
      ],
      "stateMutability": "view",
      "type": "function"
    },
    {
      "inputs": [
        {
          "internalType": "bytes",
          "name": "rlpHeader",
          "type": "bytes"
        }
      ],
      "name": "submitBlock",
      "outputs": [],
      "stateMutability": "nonpayable",
      "type": "function"
    },
    {
      "inputs": [
        {
          "internalType": "bytes",
          "name": "_rlpHeaders",
          "type": "bytes"
        }
      ],
      "name": "submitBlockBatch",
      "outputs": [],
      "stateMutability": "nonpayable",
      "type": "function"
    },
    {
      "inputs": [
        {
          "internalType": "uint256",
          "name": "feeInWei",
          "type": "uint256"
        },
        {
          "internalType": "bytes",
          "name": "rlpHeader",
          "type": "bytes"
        },
        {
          "internalType": "uint8",
          "name": "noOfConfirmations",
          "type": "uint8"
        },
        {
          "internalType": "bytes",
          "name": "rlpEncodedReceipt",
          "type": "bytes"
        },
        {
          "internalType": "bytes",
          "name": "path",
          "type": "bytes"
        },
        {
          "internalType": "bytes",
          "name": "rlpEncodedNodes",
          "type": "bytes"
        }
      ],
      "name": "verifyReceipt",
      "outputs": [
        {
          "internalType": "uint8",
          "name": "",
          "type": "uint8"
        }
      ],
      "stateMutability": "payable",
      "type": "function"
    },
    {
      "inputs": [
        {
          "internalType": "uint256",
          "name": "feeInWei",
          "type": "uint256"
        },
        {
          "internalType": "bytes",
          "name": "rlpHeader",
          "type": "bytes"
        },
        {
          "internalType": "uint8",
          "name": "noOfConfirmations",
          "type": "uint8"
        },
        {
          "internalType": "bytes",
          "name": "rlpEncodedState",
          "type": "bytes"
        },
        {
          "internalType": "bytes",
          "name": "path",
          "type": "bytes"
        },
        {
          "internalType": "bytes",
          "name": "rlpEncodedNodes",
          "type": "bytes"
        }
      ],
      "name": "verifyState",
      "outputs": [
        {
          "internalType": "uint8",
          "name": "",
          "type": "uint8"
        }
      ],
      "stateMutability": "payable",
      "type": "function"
    },
    {
      "inputs": [
        {
          "internalType": "uint256",
          "name": "feeInWei",
          "type": "uint256"
        },
        {
          "internalType": "bytes",
          "name": "rlpHeader",
          "type": "bytes"
        },
        {
          "internalType": "uint8",
          "name": "noOfConfirmations",
          "type": "uint8"
        },
        {
          "internalType": "bytes",
          "name": "rlpEncodedTx",
          "type": "bytes"
        },
        {
          "internalType": "bytes",
          "name": "path",
          "type": "bytes"
        },
        {
          "internalType": "bytes",
          "name": "rlpEncodedNodes",
          "type": "bytes"
        }
      ],
      "name": "verifyTransaction",
      "outputs": [
        {
          "internalType": "uint8",
          "name": "",
          "type": "uint8"
        }
      ],
      "stateMutability": "payable",
      "type": "function"
    },
    {
      "inputs": [
        {
          "internalType": "uint256",
          "name": "amount",
          "type": "uint256"
        }
      ],
      "name": "withdrawStake",
      "outputs": [],
      "stateMutability": "nonpayable",
      "type": "function"
    },
    {
      "inputs": [
        {
          "internalType": "bytes32",
          "name": "blockHash",
          "type": "bytes32"
        }
      ],
      "name": "getBlockMetaInfo",
      "outputs": [
        {
          "internalType": "bytes32[]",
          "name": "successors",
          "type": "bytes32[]"
        },
        {
          "internalType": "uint256",
          "name": "forkId",
          "type": "uint256"
        },
        {
          "internalType": "uint256",
          "name": "iterableIndex",
          "type": "uint256"
        },
        {
          "internalType": "bytes32",
          "name": "latestFork",
          "type": "bytes32"
        },
        {
          "internalType": "uint256",
          "name": "lockedUntil",
          "type": "uint256"
        },
        {
          "internalType": "address",
          "name": "submitter",
          "type": "address"
        }
      ],
      "stateMutability": "view",
      "type": "function"
    },
    {
      "inputs": [
        {
          "internalType": "bytes32",
          "name": "blockHash",
          "type": "bytes32"
        }
      ],
      "name": "getLockedUntilOfBlock",
      "outputs": [
        {
          "internalType": "uint256",
          "name": "",
          "type": "uint256"
        }
      ],
      "stateMutability": "view",
      "type": "function"
    },
    {
      "inputs": [],
      "name": "getNumberOfForks",
      "outputs": [
        {
          "internalType": "uint256",
          "name": "",
          "type": "uint256"
        }
      ],
      "stateMutability": "view",
      "type": "function"
    },
    {
      "inputs": [
        {
          "internalType": "uint256",
          "name": "index",
          "type": "uint256"
        }
      ],
      "name": "getEndpoint",
      "outputs": [
        {
          "internalType": "bytes32",
          "name": "",
          "type": "bytes32"
        }
      ],
      "stateMutability": "view",
      "type": "function"
    },
    {
      "inputs": [
        {
          "internalType": "bytes32",
          "name": "blockHash",
          "type": "bytes32"
        }
      ],
      "name": "isBlockUnlocked",
      "outputs": [
        {
          "internalType": "bool",
          "name": "",
          "type": "bool"
        }
      ],
      "stateMutability": "view",
      "type": "function"
    },
    {
      "inputs": [
        {
          "internalType": "bytes",
          "name": "rlpHeader",
          "type": "bytes"
        },
        {
          "internalType": "bytes",
          "name": "rlpParent",
          "type": "bytes"
        },
        {
          "internalType": "uint256[]",
          "name": "dataSetLookup",
          "type": "uint256[]"
        },
        {
          "internalType": "uint256[]",
          "name": "witnessForLookup",
          "type": "uint256[]"
        }
      ],
      "name": "disputeBlockWithoutPunishment",
      "outputs": [
        {
          "internalType": "address[]",
          "name": "",
          "type": "address[]"
        }
      ],
      "stateMutability": "nonpayable",
      "type": "function"
    }
  ],
  "bytecode": "0x608060405260008054600160a01b600160e01b03191690553480156200002457600080fd5b506040516200547538038062005475833981810160405260608110156200004a57600080fd5b81019080805160405193929190846401000000008211156200006b57600080fd5b9083019060208201858111156200008157600080fd5b82516401000000008111828201881017156200009c57600080fd5b82525081516020918201929091019080838360005b83811015620000cb578181015183820152602001620000b1565b50505050905090810190601f168015620000f95780820380516001836020036101000a031916815260200191505b5060409081526020828101519290910151855191860191909120919350915083908390839083908390839060006200013185620003f0565b90506200013d62000a4d565b828160400181815250508160a00151816000019062ffffff16908162ffffff16815250508481602001906001600160e81b031690816001600160e81b031681525050600060149054906101000a90046001600160401b03168160600151602001906001600160401b031690816001600160401b03168152505060048390806001815401808255809150506001900390600052602060002001600090919091909150556001600480549050038160600151600001906001600160401b031690816001600160401b031681525050428160600151604001906001600160401b031690816001600160401b031681525050806003600085815260200190815260200160002060008201518160000160006101000a81548162ffffff021916908362ffffff16021790555060208201518160000160036101000a8154816001600160e81b0302191690836001600160e81b031602179055506040820151816001015560608201518160020160008201518160000160006101000a8154816001600160401b0302191690836001600160401b0316021790555060208201518160000160086101000a8154816001600160401b0302191690836001600160401b0316021790555060408201518160000160106101000a8154816001600160401b0302191690836001600160401b031602179055506060820151816001015560808201518160020160006101000a8154816001600160a01b0302191690836001600160a01b0316021790555060a08201518160030190805190602001906200038092919062000a7d565b50505060018590555050600080546001600160a01b0319166001600160a01b03861617905560028390556040805184815290517f5f11b60a71ba7b4124fe41971a682a44d1af8fff92e0c4852a2701e56323218a916020908290030190a150505050505050505050505062000bc5565b620003fa62000acd565b6200040462000acd565b6000620004316200042085620006d160201b620017801760201c565b620006f860201b620017a51760201c565b905060005b6200044c826200074f60201b620017ef1760201c565b15620006c657806200048b576200048362000472836200076460201b620018041760201c565b620007b960201b620018521760201c565b8352620006bd565b8060011415620004ba57620004af62000472836200076460201b620018041760201c565b6020840152620006bd565b8060031415620004e957620004de62000472836200076460201b620018041760201c565b6040840152620006bd565b806004141562000518576200050d62000472836200076460201b620018041760201c565b6060840152620006bd565b806005141562000547576200053c62000472836200076460201b620018041760201c565b6080840152620006bd565b806007141562000577576200056b62000472836200076460201b620018041760201c565b610160840152620006bd565b8060081415620005a6576200059b62000472836200076460201b620018041760201c565b60a0840152620006bd565b8060091415620005d557620005ca62000472836200076460201b620018041760201c565b60c0840152620006bd565b80600a14156200060457620005f962000472836200076460201b620018041760201c565b60e0840152620006bd565b80600b141562000634576200062862000472836200076460201b620018041760201c565b610120840152620006bd565b80600c141562000675576200066962000658836200076460201b620018041760201c565b6200082460201b620018b21760201c565b610180840152620006bd565b80600e1415620006a5576200069962000472836200076460201b620018041760201c565b610140840152620006bd565b620006bb826200076460201b620018041760201c565b505b60010162000436565b50909150505b919050565b620006db62000b3b565b506040805180820190915281518152602082810190820152919050565b6200070262000b55565b6200070d82620008b3565b6200071757600080fd5b60006200072e8360200151620008f160201b60201c565b60208085015160408051808201909152868152920190820152915050919050565b80518051602091820151919092015191011190565b6200076e62000b3b565b62000779826200074f565b6200078357600080fd5b6020820151600062000795826200095d565b80830160209586015260408051808201909152908152938401919091525090919050565b805160009015801590620007cf57508151602110155b620007d957600080fd5b6000620007f08360200151620008f160201b60201c565b835160208086015183018051939450918490039291908310156200081b57826020036101000a820491505b50949350505050565b80516060906200083357600080fd5b60006200084a8360200151620008f160201b60201c565b83519091508190036000816001600160401b03811180156200086b57600080fd5b506040519080825280601f01601f19166020018201604052801562000897576020820181803683370190505b506020868101519192508201906200081b9085018285620009fe565b8051600090620008c657506000620006cc565b6020820151805160001a9060c0821015620008e757600092505050620006cc565b5060019392505050565b8051600090811a60808110156200090d576000915050620006cc565b60b88110806200092a575060c081108015906200092a575060f881105b156200093b576001915050620006cc565b60c0811015620009515760b519019050620006cc565b60f519019050620006cc565b80516000908190811a60808110156200097a5760019150620009f7565b60b88110156200099157607e1981019150620009f7565b60c0811015620009c05760b78103600185019450806020036101000a85510460018201810193505050620009f7565b60f8811015620009d75760be1981019150620009f7565b60f78103600185019450806020036101000a855104600182018101935050505b5092915050565b8062000a0a5762000a48565b5b6020811062000a2c578251825260209283019290910190601f190162000a0b565b8251825160208390036101000a60001901801990921691161782525b505050565b60408051608081018252600080825260208201819052918101919091526060810162000a7862000b77565b905290565b82805482825590600052602060002090810192821562000abb579160200282015b8281111562000abb57825182559160200191906001019062000a9e565b5062000ac992915062000bae565b5090565b604080516101a08101825260008082526020820181905291810182905260608082018390526080820183905260a0820183905260c0820183905260e0820183905261010082018390526101208201839052610140820183905261016082019290925261018081019190915290565b604051806040016040528060008152602001600081525090565b604051806040016040528062000b6a62000b3b565b8152602001600081525090565b6040805160c0810182526000808252602082018190529181018290526060808201839052608082019290925260a081019190915290565b5b8082111562000ac9576000815560010162000baf565b6148a08062000bd56000396000f3fe6080604052600436106101805760003560e01c8063addd9b38116100d6578063d51073811161007f578063f06dab9e11610059578063f06dab9e14610ebf578063fbdf930d14610ed4578063fc0e3d90146110d957610180565b8063d510738114610b9d578063dfd6dff814610c4e578063ed315dfa14610c7a57610180565b8063b9615878116100b0578063b961587814610b0e578063cb82cc8f14610b56578063d0f0923b14610b7357610180565b8063addd9b38146105ca578063af9711331461080f578063b1ca9018146108b957610180565b80633452e2db11610138578063937bbc4a11610112578063937bbc4a14610561578063a5bd510b1461058b578063acef3a1e146105b557610180565b80633452e2db146102dc5780635e29b7da146102f15780637794dd0b1461054c57610180565b80631b2e1054116101695780631b2e1054146101ea57806325d5971f1461029d57806329a12be9146102c757610180565b80630d6501a61461018557806318b22aea146101ac575b600080fd5b34801561019157600080fd5b5061019a6110ee565b60408051918252519081900360200190f35b3480156101b857600080fd5b506101d6600480360360208110156101cf57600080fd5b50356110f4565b604080519115158252519081900360200190f35b3480156101f657600080fd5b5061029b6004803603602081101561020d57600080fd5b810190602081018135600160201b81111561022757600080fd5b82018360208201111561023957600080fd5b803590602001918460018302840111600160201b8311171561025a57600080fd5b91908080601f016020809104026020016040519081016040528093929190818152602001838380828437600092019190915250929550611107945050505050565b005b3480156102a957600080fd5b5061029b600480360360208110156102c057600080fd5b5035611153565b3480156102d357600080fd5b5061019a61125c565b3480156102e857600080fd5b5061019a611262565b610536600480360360c081101561030757600080fd5b81359190810190604081016020820135600160201b81111561032857600080fd5b82018360208201111561033a57600080fd5b803590602001918460018302840111600160201b8311171561035b57600080fd5b91908080601f016020809104026020016040519081016040528093929190818152602001838380828437600092019190915250929560ff853516959094909350604081019250602001359050600160201b8111156103b857600080fd5b8201836020820111156103ca57600080fd5b803590602001918460018302840111600160201b831117156103eb57600080fd5b91908080601f0160208091040260200160405190810160405280939291908181526020018383808284376000920191909152509295949360208101935035915050600160201b81111561043d57600080fd5b82018360208201111561044f57600080fd5b803590602001918460018302840111600160201b8311171561047057600080fd5b91908080601f0160208091040260200160405190810160405280939291908181526020018383808284376000920191909152509295949360208101935035915050600160201b8111156104c257600080fd5b8201836020820111156104d457600080fd5b803590602001918460018302840111600160201b831117156104f557600080fd5b91908080601f01602080910402602001604051908101604052809392919081815260200183838082843760009201919091525092955061126e945050505050565b6040805160ff9092168252519081900360200190f35b34801561055857600080fd5b5061019a6112c8565b34801561056d57600080fd5b5061019a6004803603602081101561058457600080fd5b50356112d7565b34801561059757600080fd5b5061019a600480360360208110156105ae57600080fd5b50356112e2565b3480156105c157600080fd5b5061019a6112ed565b610536600480360360c08110156105e057600080fd5b81359190810190604081016020820135600160201b81111561060157600080fd5b82018360208201111561061357600080fd5b803590602001918460018302840111600160201b8311171561063457600080fd5b91908080601f016020809104026020016040519081016040528093929190818152602001838380828437600092019190915250929560ff853516959094909350604081019250602001359050600160201b81111561069157600080fd5b8201836020820111156106a357600080fd5b803590602001918460018302840111600160201b831117156106c457600080fd5b91908080601f0160208091040260200160405190810160405280939291908181526020018383808284376000920191909152509295949360208101935035915050600160201b81111561071657600080fd5b82018360208201111561072857600080fd5b803590602001918460018302840111600160201b8311171561074957600080fd5b91908080601f0160208091040260200160405190810160405280939291908181526020018383808284376000920191909152509295949360208101935035915050600160201b81111561079b57600080fd5b8201836020820111156107ad57600080fd5b803590602001918460018302840111600160201b831117156107ce57600080fd5b91908080601f0160208091040260200160405190810160405280939291908181526020018383808284376000920191909152509295506112f9945050505050565b34801561081b57600080fd5b506108396004803603602081101561083257600080fd5b5035611351565b6040518080602001878152602001868152602001858152602001848152602001836001600160a01b03168152602001828103825288818151815260200191508051906020019060200280838360005b838110156108a0578181015183820152602001610888565b5050505090500197505050505050505060405180910390f35b3480156108c557600080fd5b50610abe600480360360808110156108dc57600080fd5b810190602081018135600160201b8111156108f657600080fd5b82018360208201111561090857600080fd5b803590602001918460018302840111600160201b8311171561092957600080fd5b919390929091602081019035600160201b81111561094657600080fd5b82018360208201111561095857600080fd5b803590602001918460018302840111600160201b8311171561097957600080fd5b91908080601f0160208091040260200160405190810160405280939291908181526020018383808284376000920191909152509295949360208101935035915050600160201b8111156109cb57600080fd5b8201836020820111156109dd57600080fd5b803590602001918460208302840111600160201b831117156109fe57600080fd5b9190808060200260200160405190810160405280939291908181526020018383602002808284376000920191909152509295949360208101935035915050600160201b811115610a4d57600080fd5b820183602082011115610a5f57600080fd5b803590602001918460208302840111600160201b83111715610a8057600080fd5b919080806020026020016040519081016040528093929190818152602001838360200280828437600092019190915250929550611378945050505050565b60408051602080825283518183015283519192839290830191858101910280838360005b83811015610afa578181015183820152602001610ae2565b505050509050019250505060405180910390f35b348015610b1a57600080fd5b50610b3860048036036020811015610b3157600080fd5b503561140a565b60408051938452602084019290925282820152519081900360600190f35b61029b60048036036020811015610b6c57600080fd5b503561143b565b348015610b7f57600080fd5b506101d660048036036020811015610b9657600080fd5b5035611491565b348015610ba957600080fd5b5061029b60048036036020811015610bc057600080fd5b810190602081018135600160201b811115610bda57600080fd5b820183602082011115610bec57600080fd5b803590602001918460018302840111600160201b83111715610c0d57600080fd5b91908080601f0160208091040260200160405190810160405280939291908181526020018383808284376000920191909152509295506114aa945050505050565b6101d660048036036060811015610c6457600080fd5b508035906020810135906040013560ff16611587565b610536600480360360c0811015610c9057600080fd5b81359190810190604081016020820135600160201b811115610cb157600080fd5b820183602082011115610cc357600080fd5b803590602001918460018302840111600160201b83111715610ce457600080fd5b91908080601f016020809104026020016040519081016040528093929190818152602001838380828437600092019190915250929560ff853516959094909350604081019250602001359050600160201b811115610d4157600080fd5b820183602082011115610d5357600080fd5b803590602001918460018302840111600160201b83111715610d7457600080fd5b91908080601f0160208091040260200160405190810160405280939291908181526020018383808284376000920191909152509295949360208101935035915050600160201b811115610dc657600080fd5b820183602082011115610dd857600080fd5b803590602001918460018302840111600160201b83111715610df957600080fd5b91908080601f0160208091040260200160405190810160405280939291908181526020018383808284376000920191909152509295949360208101935035915050600160201b811115610e4b57600080fd5b820183602082011115610e5d57600080fd5b803590602001918460018302840111600160201b83111715610e7e57600080fd5b91908080601f016020809104026020016040519081016040528093929190818152602001838380828437600092019190915250929550611620945050505050565b348015610ecb57600080fd5b50610abe611678565b348015610ee057600080fd5b5061029b60048036036080811015610ef757600080fd5b810190602081018135600160201b811115610f1157600080fd5b820183602082011115610f2357600080fd5b803590602001918460018302840111600160201b83111715610f4457600080fd5b919390929091602081019035600160201b811115610f6157600080fd5b820183602082011115610f7357600080fd5b803590602001918460018302840111600160201b83111715610f9457600080fd5b91908080601f0160208091040260200160405190810160405280939291908181526020018383808284376000920191909152509295949360208101935035915050600160201b811115610fe657600080fd5b820183602082011115610ff857600080fd5b803590602001918460208302840111600160201b8311171561101957600080fd5b9190808060200260200160405190810160405280939291908181526020018383602002808284376000920191909152509295949360208101935035915050600160201b81111561106857600080fd5b82018360208201111561107a57600080fd5b803590602001918460208302840111600160201b8311171561109b57600080fd5b9190808060200260200160405190810160405280939291908181526020018383602002808284376000920191909152509295506116d9945050505050565b3480156110e557600080fd5b5061019a61176d565b60015490565b60006110ff82611937565b90505b919050565b600061111a61111583611780565b6117a5565b90505b611126816117ef565b1561114f57600061113e61113983611804565b6118b2565b9050611149816114aa565b5061111d565b5050565b336000908152600660205260409020548111156111a15760405162461bcd60e51b81526004018080602001828103825260228152602001806148076022913960400191505060405180910390fd5b806111ab33611960565b106111fa576111ba33826119c3565b604080513381526020810183905281517f141ef67c4a6d3ec2adfb2f66d33c2b11de5b4f34344757554d430570b18a92ec929181900390910190a1611259565b61120333611a10565b508061120e33611960565b1061121d576111ba33826119c3565b604080513381526000602082015281517f141ef67c4a6d3ec2adfb2f66d33c2b11de5b4f34344757554d430570b18a92ec929181900390910190a15b50565b60025490565b67016345785d8a000090565b6000806112816001898989898989611b4f565b6040805160ff8316815290519192507f567d80f0e2776186d59c264eaa20bafaf2a33c3126d76bd5d0b4c5ff4d1342c6919081900360200190a190505b9695505050505050565b60006112d2611c9c565b905090565b60006110ff82611ca2565b60006110ff82611cc3565b670de0b6b3a764000090565b60008061130c6003898989898989611b4f565b6040805160ff8316815290519192507fb960845fd31f80d28f3e163cea6db4e82ffd7fdabd4694856ce80ed58dd2e9ce919081900360200190a1979650505050505050565b6060600080600080600061136487611ce9565b949c939b5091995097509550909350915050565b606060006113898787878787611dd2565b90507f0ef3c0388598410b9ff17b9517be86dc9c3eb50923e45bb05cfd5da7f519a6bf816040518080602001828103825283818151815260200191508051906020019060200280838360005b838110156113ed5781810151838201526020016113d5565b505050509050019250505060405180910390a19695505050505050565b600090815260036020526040902060018101549054909162ffffff821691630100000090046001600160e81b031690565b3481146114795760405162461bcd60e51b815260040180806020018281038252602f81526020018061476f602f913960400191505060405180910390fd5b50336000908152600660205260409020805434019055565b60009081526003602052604090205462ffffff16151590565b670de0b6b3a76400006114bc33611960565b101561151d576114cb33611a10565b50670de0b6b3a76400006114de33611960565b101561151d57604080516000815290517f5f11b60a71ba7b4124fe41971a682a44d1af8fff92e0c4852a2701e56323218a9181900360200190a1611259565b60006115298233611e7d565b336000908152600560209081526040808320805460018101825590845292829020909201839055815183815291519293507f5f11b60a71ba7b4124fe41971a682a44d1af8fff92e0c4852a2701e56323218a92918290030190a15050565b60003484146115c75760405162461bcd60e51b815260040180806020018281038252602f81526020018061476f602f913960400191505060405180910390fd5b67016345785d8a000084101561160e5760405162461bcd60e51b81526004018080602001828103825260268152602001806147e16026913960400191505060405180910390fd5b6116188383612326565b949350505050565b6000806116336002898989898989611b4f565b6040805160ff8316815290519192507f0c3d1c6f7d35f62105cedeb1fea90976e3ea2ef20186074e47754bc04bfbf790919081900360200190a1979650505050505050565b336000908152600560209081526040918290208054835181840281018401909452808452606093928301828280156116cf57602002820191906000526020600020905b8154815260200190600101908083116116bb575b5050505050905090565b60006116e88686868686611dd2565b90506000805b825181101561174e57600083828151811061170557fe5b6020908102919091018101516001600160a01b031660009081526006909152604090208054670de0b6b3a763ffff1901905550670de0b6b3a764000091909101906001016116ee565b5033600090815260066020526040902080549091019055505050505050565b3360009081526006602052604090205490565b611788614560565b506040805180820190915281518152602082810190820152919050565b6117ad61457a565b6117b6826123db565b6117bf57600080fd5b60006117ce8360200151612415565b60208085015160408051808201909152868152920190820152915050919050565b80518051602091820151919092015191011190565b61180c614560565b611815826117ef565b61181e57600080fd5b6020820151600061182e82612478565b80830160209586015260408051808201909152908152938401919091525090919050565b80516000901580159061186757508151602110155b61187057600080fd5b600061187f8360200151612415565b835160208086015183018051939450918490039291908310156118a957826020036101000a820491505b50949350505050565b80516060906118c057600080fd5b60006118cf8360200151612415565b835190915081900360008167ffffffffffffffff811180156118f057600080fd5b506040519080825280601f01601f19166020018201604052801561191b576020820181803683370190505b50905060008160200190506118a984876020015101828561250c565b60009081526003602052604090206002015442600160801b90910467ffffffffffffffff161090565b6001600160a01b0381166000908152600560209081526040808320546006909252822054670de0b6b3a7640000909102908111156119a2576000915050611102565b6001600160a01b038316600090815260066020526040902054039050611102565b6001600160a01b038216600081815260066020526040808220805485900390555183156108fc0291849190818181858888f19350505050158015611a0b573d6000803e3d6000fd5b505050565b600080805b6001600160a01b038416600090815260056020526040902054811015611b48576001600160a01b0384166000908152600560205260408120805483908110611a5957fe5b90600052602060002001549050611a6f81611491565b1580611a7f5750611a7f81611937565b15611b3b576001600160a01b038516600090815260056020526040902080546000198101919082908110611aaf57fe5b906000526020600020015460056000886001600160a01b03166001600160a01b031681526020019081526020016000208481548110611aea57fe5b60009182526020808320909101929092556001600160a01b0388168152600590915260409020805480611b1957fe5b6001900381819060005260206000200160009055905560018401935050611b42565b6001909101905b50611a15565b5092915050565b6000348714611b8f5760405162461bcd60e51b815260040180806020018281038252602f81526020018061476f602f913960400191505060405180910390fd5b67016345785d8a0000871015611bd65760405162461bcd60e51b81526004018080602001828103825260268152602001806147e16026913960400191505060405180910390fd5b85516020870120600060ff8a1660011415611c0857611c018288888888611bfc8e612557565b6125b9565b9050611c8f565b60ff8a1660021415611c2557611c018288888888611bfc8e61272c565b60ff8a1660031415611c4257611c018288888888611bfc8e612775565b6040805162461bcd60e51b815260206004820152601960248201527f556e6b6e6f776e20766572696669636174696f6e207479706500000000000000604482015290519081900360640190fd5b9998505050505050505050565b60045490565b600060048281548110611cb157fe5b90600052602060002001549050919050565b600090815260036020526040902060020154600160801b900467ffffffffffffffff1690565b60008181526003602081815260408084206002810154938101546004820154600583018054855181880281018801909652808652606098978897889788978897909667ffffffffffffffff600160401b8604811696818716969395600160801b909404909116936001600160a01b0390921692889190830182828015611d8e57602002820191906000526020600020905b815481526020019060010190808311611d7a575b505050505095508467ffffffffffffffff1694508367ffffffffffffffff1693508167ffffffffffffffff1691509650965096509650965096505091939550919395565b60606000611de387878787876127be565b6040805160008152602081019091529091508115611e3f57611e3c88886040518083838082843780830192505050925050506040518091039020600360008980519060200120815260200190815260200160002061298e565b90505b6040805183815290517ff68bea46bc6fb530eae297355e0d416e2545678c786c03ed115311db0dd361409181900360200190a1979650505050505050565b6000611e8761459a565b83516020850120611e9781611491565b15611ee9576040805162461bcd60e51b815260206004820152601460248201527f626c6f636b20616c726561647920657869737473000000000000000000000000604482015290519081900360640190fd5b6000806000611ef788612c05565b91945092509050611f0783611491565b611f58576040805162461bcd60e51b815260206004820152601560248201527f706172656e7420646f6573206e6f742065786973740000000000000000000000604482015290519081900360640190fd5b60008381526003602090815260408083206005810180546001810182559085529383902090930187905587810187905262ffffff8516885282546001600160e81b03630100000090910481168501169188019190915260608701805167ffffffffffffffff4261012c0181169190930152516001600160a01b038a16608090910152600282015460045491161080156120175750600281015460048054869267ffffffffffffffff1690811061200a57fe5b9060005260206000200154145b1561209e576002810154606087015167ffffffffffffffff600160401b83048116602090920191909152604088015160048054919390921690811061205857fe5b6000918252602090912001556002810180546060808901805167ffffffffffffffff8416905267ffffffffffffffff1990921690925560038301549051909101526121a5565b6000805467ffffffffffffffff7401000000000000000000000000000000000000000080830482166001908101831682027fffffffff0000000000000000ffffffffffffffffffffffffffffffffffffffff909416939093178085556060808c01805193909204841660209093019290925260408b0151600480549586018155958690527f8a35acfbc15ff81a39ae7d344fd709f28e8600b4aa8c65c6b64bfe7fe36bd19b909401939093559254825160001991909101909116905251018490526005810154600214156121a5576121a5600360008360020160030160008154811061218657fe5b9060005260206000200154815260200190815260200160002085612ca3565b600154600090815260036020908152604090912054908701516001600160e81b0363010000009092048216911611156121de5760018590555b60408087018051600090815260036020818152918490208a518154848d01516001600160e81b031663010000000262ffffff92831662ffffff1990921691909117909116178155925160018401556060808b01518051600286018054838701519884015167ffffffffffffffff908116600160801b027fffffffffffffffff0000000000000000ffffffffffffffffffffffffffffffff9a8216600160401b026fffffffffffffffff0000000000000000199290951667ffffffffffffffff1990931692909217169290921797909716178655908101519184019190915560808101516004840180546001600160a01b0390921673ffffffffffffffffffffffffffffffffffffffff1990921691909117905560a081015180518b95929361230d9260058701929101906145c8565b5050506040909701519750505050505050505b92915050565b600061233183611491565b61233d57506000612320565b60008061234c85600154612d01565b90925090508161236157600092505050612320565b6000858152600360205260408082205483835291205462ffffff91821660ff87160182169116116123d057600085815260036020526040808220548383529082205462ffffff918216911603909403936123bb8286612e42565b9050806123ce5760009350505050612320565b505b506001949350505050565b80516000906123ec57506000611102565b6020820151805160001a9060c082101561240b57600092505050611102565b5060019392505050565b8051600090811a608081101561242f576000915050611102565b60b881108061244a575060c0811080159061244a575060f881105b15612459576001915050611102565b60c081101561246d5760b519019050611102565b60f519019050611102565b80516000908190811a60808110156124935760019150611b48565b60b88110156124a857607e1981019150611b48565b60c08110156124d55760b78103600185019450806020036101000a85510460018201810193505050611b48565b60f88110156124ea5760be1981019150611b48565b60019390930151602084900360f7016101000a900490920160f5190192915050565b8061251657611a0b565b5b60208110612536578251825260209283019290910190601f1901612517565b915181516020939093036101000a6000190180199091169216919091179052565b60008061256661111584611780565b905060005b612574826117ef565b156125af57806004141561259d5761259361258e83611804565b611852565b9250611102915050565b6125a682611804565b5060010161256b565b5060009392505050565b60006125c487611491565b612615576040805162461bcd60e51b815260206004820152601460248201527f626c6f636b20646f6573206e6f74206578697374000000000000000000000000604482015290519081900360640190fd5b60008061262489600154612d01565b91509150816126645760405162461bcd60e51b815260040180806020018281038252602a815260200180614714602a913960400191505060405180910390fd5b6000898152600360205260408082205483835291205462ffffff91821660ff8b160182169116116126fe57600089815260036020526040808220548383529082205462ffffff918216911603909803976126be828a612e42565b9050806126fc5760405162461bcd60e51b815260040180806020018281038252603181526020018061473e6031913960400191505060405180910390fd5b505b600061270c88888888612ec0565b111561271d576001925050506112be565b50600098975050505050505050565b60008061273b61111584611780565b905060005b612749826117ef565b156125af5780600514156127635761259361258e83611804565b61276c82611804565b50600101612740565b60008061278461111584611780565b905060005b612792826117ef565b156125af5780600314156127ac5761259361258e83611804565b6127b582611804565b50600101612789565b60008060008060006128078a8a8080601f0160208091040260200160405190810160405280939291908181526020018383808284376000920191909152508c9250613117915050565b929650909450925090508361298057600080546001600160a01b03166329e265df856128338e8e613512565b86868d8d6040518763ffffffff1660e01b8152600401808762ffffff1681526020018681526020018581526020018481526020018060200180602001838103835285818151815260200191508051906020019060200280838360005b838110156128a757818101518382015260200161288f565b50505050905001838103825284818151815260200191508051906020019060200280838360005b838110156128e65781810151838201526020016128ce565b5050505090500198505050505050505050604080518083038186803b15801561290e57600080fd5b505afa158015612922573d6000803e3d6000fd5b505050506040513d604081101561293857600080fd5b5080516020918201516040805183815293840182905280519298509093507f368fee0c56ae41c07d7c93332427c609564426ae664e6298300f00514aebe48e928290030190a1505b509198975050505050505050565b6060600061299d846000613721565b600584015490915060011415612a0f5760018381015460048054928301815560008190527f8a35acfbc15ff81a39ae7d344fd709f28e8600b4aa8c65c6b64bfe7fe36bd19b909201555460028401805467ffffffffffffffff191660001990920167ffffffffffffffff169190911790555b60005b6005840154811015612aaf5784846002016003018281548110612a3157fe5b90600052602060002001541415612aa7576005840180546000198101908110612a5657fe5b9060005260206000200154846002016003018281548110612a7357fe5b60009182526020909120015560058401805480612a8c57fe5b60019003818190600052602060002001600090559055612aaf565b600101612a12565b50600583015460011415612b1357612b136003600085600201600301600081548110612ad757fe5b6000918252602080832090910154835282019290925260400190206003850154600286015467ffffffffffffffff600160401b90910416613a2d565b6004600081548110612b2157fe5b60009182526020909120015460019081555b600454811015612bca5760015460009081526003602081905260408220546004805463010000009092046001600160e81b0316939185908110612b7257fe5b600091825260208083209091015483528201929092526040019020546001600160e81b036301000000909104161115612bc25760048181548110612bb257fe5b6000918252602090912001546001555b600101612b33565b506040805185815290517ff96ae1a1e71431cfb86761b9cab725aeddab2afdaf76d40d43fc005bdc6555d49181900360200190a19392505050565b600080600080600080600080612c1d6111158a611780565b90505b612c29816117ef565b15612c945784612c4657612c3f61258e82611804565b9350612c89565b8460071415612c6257612c5b61258e82611804565b9150612c89565b8460081415612c7e57612c7761258e82611804565b9250612c89565b612c8781611804565b505b600190940193612c20565b50919790965090945092505050565b6003820154811415612cb45761114f565b6003820181905560058201546001141561114f5761114f6003600084600201600301600081548110612ce257fe5b9060005260206000200154815260200190815260200160002082612ca3565b600080828180612d1083611937565b15612d19578291505b600087815260036020526040808220600290810154868452919092209091015467ffffffffffffffff600160401b92839004811692909104161115612da957506000918252600360208190526040909220600281015492015491600160401b900467ffffffffffffffff1681612da457612d9283611937565b15612da457612da18382613ab9565b91505b612d19565b600087815260036020526040808220600290810154868452919092209091015467ffffffffffffffff600160401b92839004811692909104161015612df65750600093509150612e3b9050565b6000878152600360205260408082205485835291205462ffffff91821691161015612e295750600093509150612e3b9050565b81612e32578691505b50600193509150505b9250929050565b6000612e4d83611937565b612e5957506000612320565b60ff8216612e6957506001612320565b600083815260036020526040902060050154612e8757506000612320565b60008381526003602052604081206005018054612eb99290612ea557fe5b906000526020600020015460018403612e42565b9392505050565b600080612ecc84611780565b90506000612ed982613b48565b905060608085600080612eeb8b613c30565b9050805160001415612f07576001975050505050505050611618565b60005b8651811015613107578151831115612f2d57600298505050505050505050611618565b612f49878281518110612f3c57fe5b60200260200101516118b2565b955085805190602001208414612f6a57600398505050505050505050611618565b612f7b612f7687611780565b613b48565b9450845160111415613038578151831415612fd7578c80519060200120612fa886601081518110612f3c57fe5b805190602001201415612fc657600098505050505050505050611618565b600498505050505050505050611618565b6000828481518110612fe557fe5b016020015160f81c9050601081111561300a5760059950505050505050505050611618565b613029868260ff168151811061301c57fe5b6020026020010151611852565b945050600192909201916130ff565b8451600214156130ee5761305c61305586600081518110612f3c57fe5b8385613cbe565b82519301928314156130af578c8051906020012061308086600181518110612f3c57fe5b80519060200120141561309e57600098505050505050505050611618565b600698505050505050505050611618565b6130c261305586600081518110612f3c57fe5b6130d757600798505050505050505050611618565b6130e78560018151811061301c57fe5b93506130ff565b600898505050505050505050611618565b600101612f0a565b5050505050505050949350505050565b60008060008060008680519060200120905060008680519060200120905061313e82611491565b61318f576040805162461bcd60e51b815260206004820152601e60248201527f70726f76696465642068656164657220646f6573206e6f742065786973740000604482015290519081900360640190fd5b61319881611491565b6131e9576040805162461bcd60e51b815260206004820152601e60248201527f70726f766964656420706172656e7420646f6573206e6f742065786973740000604482015290519081900360640190fd5b6131f282611937565b15613244576040805162461bcd60e51b815260206004820152601960248201527f6469737075746520706572696f64206973206578706972656400000000000000604482015290519081900360640190fd5b600082815260036020818152604080842085855293819020815160808082018452865462ffffff81168352630100000090046001600160e81b031682860152600187015482850152835160c08101855260028801805467ffffffffffffffff8082168452600160401b82048116848a0152600160801b90910416828701529688015460608083019190915260048901546001600160a01b03169282019290925260058801805486518189028101890190975280875294976134499794968a96948801959394919360a086019391929083018282801561334257602002820191906000526020600020905b81548152602001906001019080831161332e575b505050919092525050509052506040805160808082018352855462ffffff81168352630100000090046001600160e81b0316602080840191909152600187015483850152835160c08101855260028801805467ffffffffffffffff8082168452600160401b8204811684860152600160801b9091041682870152600389015460608084019190915260048a01546001600160a01b03169483019490945260058901805487518186028101860190985280885295968a96958801959394929360a086019391929183018282801561343757602002820191906000526020600020905b815481526020019060010190808311613423575b50505050508152505081525050613d9d565b6134845760405162461bcd60e51b815260040180806020018281038252604381526020018061479e6043913960600191505060405180910390fd5b600061348f8b613df2565b9050600061349c8b613df2565b825190915085146134de5760405162461bcd60e51b81526004018080602001828103825260428152602001806148296042913960600191505060405180910390fd5b6134e88282613fb0565b935461014083015161016090930151949d62ffffff9091169c50919a509298509650505050505050565b60008061355761111585858080601f01602080910402602001604051908101604052809392919081815260200183838082843760009201919091525061178092505050565b90506003600080805b613569856117ef565b156135ad5782600d141561357b578391505b600061358686611804565b805195909501949050600e8414156135a157849150506135ad565b50600190920191613560565b600082880182900367ffffffffffffffff811180156135cb57600080fd5b506040519080825280601f01601f1916602001820160405280156135f6576020820181803683370190505b50905060005b81518110156136a457838110156136565761361a8460008b8d6146eb565b8281811061362457fe5b9050013560f81c60f81b82828151811061363a57fe5b60200101906001600160f81b031916908160001a90535061369c565b6136628984818d6146eb565b85830381811061366e57fe5b9050013560f81c60f81b82828151811061368457fe5b60200101906001600160f81b031916908160001a9053505b6001016135fc565b5082820388036002190160f081901b8060001a60f81b836001815181106136c757fe5b60200101906001600160f81b031916908160001a9053508060011a60f81b836002815181106136f257fe5b60200101906001600160f81b031916908160001a90535082805190602001209850505050505050505092915050565b6000828152600360205260409020600581015460019283019260609291839110156137f85760408051600080825260208201909252905b60058401548110156137a457600061378d85600201600301838154811061377b57fe5b90600052602060002001546000613721565b905061379983826140bd565b925050600101613758565b506137f48582510167ffffffffffffffff811180156137c257600080fd5b506040519080825280602002602001820160405280156137ec578160200160208202803683370190505b5082876141af565b9150505b60058201546001141561382f5761382c8260020160030160008154811061381b57fe5b906000526020600020015485613721565b90505b600282015460045467ffffffffffffffff9091161080156138765750600282015460048054879267ffffffffffffffff1690811061386957fe5b9060005260206000200154145b15613962576004805460009190600019810190811061389157fe5b6000918252602090912001546002840154600480549293508392909167ffffffffffffffff169081106138c057fe5b60009182526020909120015560048054806138d757fe5b60008281526020808220830160001990810183905590920190925560028086015484845260039092526040909220909101805467ffffffffffffffff191667ffffffffffffffff92831617905585908111801561393357600080fd5b5060405190808252806020026020018201604052801561395d578160200160208202803683370190505b509150505b60008581526003602052604090206004015481516001600160a01b03909116908290600019870190811061399257fe5b6001600160a01b03909216602092830291909101820152600086815260039182905260408120818155600181018290556002810180547fffffffffffffffff00000000000000000000000000000000000000000000000016815592810182905560048101805473ffffffffffffffffffffffffffffffffffffffff191690559181613a206005850182614613565b5092979650505050505050565b6003830154821415613a3e57611a0b565b600383018290556002830180546fffffffffffffffff00000000000000001916600160401b67ffffffffffffffff841602179055600583015460011415611a0b57611a0b6003600085600201600301600081548110613a9957fe5b906000526020600020015481526020019081526020016000208383613a2d565b6000805b600084815260036020526040902060050154811015613b40576000848152600360205260408120600501805483908110613af357fe5b6000918252602080832090910154808352600390915260409091206002015490915067ffffffffffffffff600160401b90910416841415613b375791506123209050565b50600101613abd565b509192915050565b6060613b53826123db565b613b5c57600080fd5b6000613b678361421d565b905060008167ffffffffffffffff81118015613b8257600080fd5b50604051908082528060200260200182016040528015613bbc57816020015b613ba9614560565b815260200190600190039081613ba15790505b5090506000613bce8560200151612415565b60208601510190506000805b84811015613c2557613beb83612478565b9150604051806040016040528083815260200184815250848281518110613c0e57fe5b602090810291909101015291810191600101613bda565b509195945050505050565b60606000825160020267ffffffffffffffff81118015613c4f57600080fd5b506040519080825280601f01601f191660200182016040528015613c7a576020820181803683370190505b50905060005b8151811015611b4857613c93818561426c565b828281518110613c9f57fe5b60200101906001600160f81b031916908160001a905350600101613c80565b6000806000613ccc866142c9565b90506000815167ffffffffffffffff81118015613ce857600080fd5b506040519080825280601f01601f191660200182016040528015613d13576020820181803683370190505b509050845b82518601811015613d6d576000878281518110613d3157fe5b602001015160f81c60f81b9050808388840381518110613d4d57fe5b60200101906001600160f81b031916908160001a90535050600101613d18565b50808051906020012082805190602001201415613d8d5781519250613d92565b600092505b509095945050505050565b6000805b826060015160a00151518110156125af576000836060015160a001518281518110613dc857fe5b602002602001015190508460400151811415613de957600192505050612320565b50600101613da1565b613dfa614631565b613e02614631565b6000613e1061111585611780565b905060005b613e1e826117ef565b15613fa75780613e3b57613e3461258e83611804565b8352613f9f565b8060011415613e5a57613e5061258e83611804565b6020840152613f9f565b8060031415613e7957613e6f61258e83611804565b6040840152613f9f565b8060041415613e9857613e8e61258e83611804565b6060840152613f9f565b8060051415613eb757613ead61258e83611804565b6080840152613f9f565b8060071415613ed757613ecc61258e83611804565b610160840152613f9f565b8060081415613ef657613eec61258e83611804565b60a0840152613f9f565b8060091415613f1557613f0b61258e83611804565b60c0840152613f9f565b80600a1415613f3457613f2a61258e83611804565b60e0840152613f9f565b80600b1415613f5457613f4961258e83611804565b610120840152613f9f565b80600c1415613f7457613f6961113983611804565b610180840152613f9f565b80600e1415613f9457613f8961258e83611804565b610140840152613f9f565b613f9d82611804565b505b600101613e15565b50909392505050565b6000602060ff16836101800151511115613fcc57506003612320565b61012083015142600f011015613fe457506005612320565b677fffffffffffffff8360c00151111561400057506008612320565b60c0830151611388111561401657506009612320565b6004541561409c578260a001518260a001516001011461403857506004612320565b8261012001518261012001511061405157506006612320565b60006140628385610120015161442f565b9050836101600151811461407a576007915050612320565b61408c8460c001518460c0015161452e565b61409a57600a915050612320565b505b8260c001518360e0015111156140b45750600b612320565b50600092915050565b60606000825184510167ffffffffffffffff811180156140dc57600080fd5b50604051908082528060200260200182016040528015614106578160200160208202803683370190505b50905060005b84518110156141555784818151811061412157fe5b602002602001015182828151811061413557fe5b6001600160a01b039092166020928302919091019091015260010161410c565b60005b84518110156141a55784818151811061416d57fe5b602002602001015183838151811061418157fe5b6001600160a01b039092166020928302919091019091015260019182019101614158565b5090949350505050565b606082518285510310156141c257600080fd5b8160005b8451811015614213578481815181106141db57fe5b60200260200101518683815181106141ef57fe5b6001600160a01b0390921660209283029190910190910152600191820191016141c6565b5093949350505050565b805160009061422e57506000611102565b60008061423e8460200151612415565b602085015185519181019250015b80821015613fa75761425d82612478565b6001909301929091019061424c565b6000600283061561429d57601082600285048151811061428857fe5b016020015160f81c8161429757fe5b066142bf565b60108260028504815181106142ae57fe5b016020015160f81c816142bd57fe5b045b60f81b9392505050565b6060806000835111156110ff576000806142e460008661426c565b60f81c905060018114806142fb57508060ff166003145b1561438a57600185516002020367ffffffffffffffff8111801561431e57600080fd5b506040519080825280601f01601f191660200182016040528015614349576020820181803683370190505b509250600061435960018761426c565b9050808460008151811061436957fe5b60200101906001600160f81b031916908160001a90535060019250506143db565b600285516002020367ffffffffffffffff811180156143a857600080fd5b506040519080825280601f01601f1916602001820160405280156143d3576020820181803683370190505b509250600091505b60ff82165b8351811015614426576143fb8360ff1682036002018761426c565b84828151811061440757fe5b60200101906001600160f81b031916908160001a9053506001016143e0565b50505092915050565b600080600984610120015184038161444357fe5b0490507f1dcc4de8dec75d7aab85b567b6ccd41ad312451b948a7413f0a142fd40d493478460200151141561447a5760010361447e565b6002035b60621981121561448d57506062195b806108008561016001518161449e57fe5b0502846101600151019050620200008112156144ba5750620200005b6000624c4b3f905062d228c88560a00151600101106144dd575062a344df6144f4565b628c61808560a00151600101106144f457506289543f5b6000818660a001511061450b57818660a001510390505b620186a081046001811115613c25576002810360020a8401945050505050612320565b600080610400600784900b0590508284036000600782900b1215614550576000035b600791820b910b13159392505050565b604051806040016040528060008152602001600081525090565b604051806040016040528061458d614560565b8152602001600081525090565b6040805160808101825260008082526020820181905291810191909152606081016145c361469f565b905290565b828054828255906000526020600020908101928215614603579160200282015b828111156146035782518255916020019190600101906145e8565b5061460f9291506146d6565b5090565b508054600082559060005260206000209081019061125991906146d6565b604080516101a08101825260008082526020820181905291810182905260608082018390526080820183905260a0820183905260c0820183905260e0820183905261010082018390526101208201839052610140820183905261016082019290925261018081019190915290565b6040805160c0810182526000808252602082018190529181018290526060808201839052608082019290925260a081019190915290565b5b8082111561460f57600081556001016146d7565b600080858511156146fa578182fd5b83861115614706578182fd5b505082019391909203915056fe626c6f636b206973206e6f742070617274206f6620746865206c6f6e6765737420506f5720636861696e626c6f636b206973206c6f636b6564206f72206e6f7420636f6e6669726d656420627920656e6f75676820626c6f636b737472616e7366657220616d6f756e74206e6f7420657175616c20746f2066756e6374696f6e20706172616d6574657273746f72656420706172656e74206973206e6f742061207072656465636573736f72206f662073746f726564206865616465722077697468696e2045746872656c617970726f766964656420666565206973206c657373207468616e20657870656374656420666565616d6f756e7420686967686572207468616e206465706f7369746564207374616b6570726f766964656420686561646572277320706172656e7420646f6573206e6f74206d6174636820776974682070726f766964656420706172656e74272068617368a264697066735822122078941ccd0a937ffa23b67ceffd191024f24238963ba786236d2f60d582fb01b064736f6c63430007060033",
  "immutableReferences": {},
  "source": "// SPDX-License-Identifier: MIT\npragma solidity =0.7.6;\n\nimport \"./Ethrelay.sol\";\n\ncontract EthrelayTestContract is Ethrelay {\n    constructor(bytes memory _rlpHeader, uint totalDifficulty, address _ethashContractAddr) Ethrelay(_rlpHeader, totalDifficulty, _ethashContractAddr) {}\n\n    function getBlockMetaInfo(bytes32 blockHash) public view returns (\n        bytes32[] memory successors, uint forkId, uint iterableIndex, bytes32 latestFork, uint lockedUntil,\n        address submitter\n    ) {\n        return super.getHeaderMetaInfo(blockHash);\n    }\n\n    function getLockedUntilOfBlock(bytes32 blockHash) public view returns (uint) {\n        return super.getLockedUntil(blockHash);\n    }\n\n    function getNumberOfForks() public view returns (uint) {\n        return super.getNoOfForks();\n    }\n\n    function getEndpoint(uint index) public view returns (bytes32) {\n        return super.getBlockHashOfEndpoint(index);\n    }\n\n    function isBlockUnlocked(bytes32 blockHash) public view returns (bool) {\n        return super.isUnlocked(blockHash);\n    }\n\n    event DisputeBlockWithoutPunishment(address[] submittersOfIllegalBlocks);\n    function disputeBlockWithoutPunishment(bytes calldata rlpHeader, bytes memory rlpParent, uint[] memory dataSetLookup,\n            uint[] memory witnessForLookup) public returns (address[] memory) {\n        address[] memory submittersToPunish = disputeBlock(rlpHeader, rlpParent, dataSetLookup, witnessForLookup);\n        emit DisputeBlockWithoutPunishment(submittersToPunish);\n        return submittersToPunish;\n    }\n\n}\n",
  "sourcePath": "/Users/hua/Codes/block-chain/uniswap-o/v3-core/contracts/EthrelayTestContract.sol",
  "compiler": {
    "name": "solc",
    "version": "0.7.6+commit.7338295f.Emscripten.clang"
  },
  "schemaVersion": "3.4.8",
  "updatedAt": "2023-01-24T20:40:57.782Z",
  "devdoc": {
    "kind": "dev",
    "methods": {
      "depositStake(uint256)": {
        "details": "Deposits stake for a client allowing the client to submit block headers."
      },
      "verifyReceipt(uint256,bytes,uint8,bytes,bytes,bytes)": {
        "details": "Verifies if a receipt is included in the given block's receipts Merkle Patricia trie",
        "params": {
          "feeInWei": "the fee that is payed for the verification and must be equal to VERIFICATION_FEE_IN_WEI.",
          "noOfConfirmations": "the required number of succeeding blocks needed for a block to be considered as confirmed",
          "path": "the path (key) in the trie indicating the way starting at the root node and ending at the receipt",
          "rlpEncodedNodes": "an RLP encoded list of nodes of the Merkle branch, first element is the root node, last element the receipt",
          "rlpEncodedReceipt": "the receipt of the Merkle Patricia trie in RLP format",
          "rlpHeader": "the rlp encoded header that contains the Merkle root hash"
        },
        "returns": {
          "_0": "0: verification was successful         1: block is confirmed and unlocked, but the Merkle proof was invalid"
        }
      },
      "verifyState(uint256,bytes,uint8,bytes,bytes,bytes)": {
        "details": "Verifies if a node is included in the given block's state Merkle Patricia trie",
        "params": {
          "feeInWei": "the fee that is payed for the verification and must be equal to VERIFICATION_FEE_IN_WEI.",
          "noOfConfirmations": "the required number of succeeding blocks needed for a block to be considered as confirmed",
          "path": "the path (key) in the trie indicating the way starting at the root node and ending at the node",
          "rlpEncodedNodes": "an RLP encoded list of nodes of the Merkle branch, first element is the root node, last element a state node",
          "rlpEncodedState": "the node of the Merkle Patricia trie in RLP format",
          "rlpHeader": "the rlp encoded header that contains the Merkle root hash"
        },
        "returns": {
          "_0": "0: verification was successful         1: block is confirmed and unlocked, but the Merkle proof was invalid"
        }
      },
      "verifyTransaction(uint256,bytes,uint8,bytes,bytes,bytes)": {
        "details": "Verifies if a transaction is included in the given block's transactions Merkle Patricia trie",
        "params": {
          "feeInWei": "the fee that is payed for the verification and must be equal to VERIFICATION_FEE_IN_WEI.",
          "noOfConfirmations": "the required number of succeeding blocks needed for a block to be considered as confirmed",
          "path": "the path (key) in the trie indicating the way starting at the root node and ending at the transaction",
          "rlpEncodedNodes": "an RLP encoded list of nodes of the Merkle branch, first element is the root node, last element the transaction",
          "rlpEncodedTx": "the transaction of the Merkle Patricia trie in RLP format",
          "rlpHeader": "the rlp encoded header that contains the Merkle root hash"
        },
        "returns": {
          "_0": "0: verification was successful         1: block is confirmed and unlocked, but the Merkle proof was invalid"
        }
      },
      "withdrawStake(uint256)": {
        "details": "Withdraws the stake of a client. The stake is reduced by the specified amount. Emits an event WithdrawStake      containing the client's address and the amount of withdrawn stake."
      }
    },
    "version": 1
  },
  "userdoc": {
    "kind": "user",
    "methods": {},
    "version": 1
  }
}