{
  "contractName": "Ethrelay",
  "abi": [
    {
      "inputs": [
        {
          "internalType": "bytes",
          "name": "_rlpHeader",
          "type": "bytes"
        },
        {
          "internalType": "uint256",
          "name": "totalDifficulty",
          "type": "uint256"
        },
        {
          "internalType": "address",
          "name": "_ethashContractAddr",
          "type": "address"
        }
      ],
      "stateMutability": "nonpayable",
      "type": "constructor"
    },
    {
      "anonymous": false,
      "inputs": [
        {
          "indexed": false,
          "internalType": "uint256",
          "name": "returnCode",
          "type": "uint256"
        }
      ],
      "name": "DisputeBlock",
      "type": "event"
    },
    {
      "anonymous": false,
      "inputs": [
        {
          "indexed": false,
          "internalType": "bytes32",
          "name": "blockHash",
          "type": "bytes32"
        }
      ],
      "name": "NewBlock",
      "type": "event"
    },
    {
      "anonymous": false,
      "inputs": [
        {
          "indexed": false,
          "internalType": "uint256",
          "name": "returnCode",
          "type": "uint256"
        },
        {
          "indexed": false,
          "internalType": "uint256",
          "name": "errorInfo",
          "type": "uint256"
        }
      ],
      "name": "PoWValidationResult",
      "type": "event"
    },
    {
      "anonymous": false,
      "inputs": [
        {
          "indexed": false,
          "internalType": "bytes32",
          "name": "root",
          "type": "bytes32"
        }
      ],
      "name": "RemoveBranch",
      "type": "event"
    },
    {
      "anonymous": false,
      "inputs": [
        {
          "indexed": false,
          "internalType": "uint8",
          "name": "result",
          "type": "uint8"
        }
      ],
      "name": "VerifyReceipt",
      "type": "event"
    },
    {
      "anonymous": false,
      "inputs": [
        {
          "indexed": false,
          "internalType": "uint8",
          "name": "result",
          "type": "uint8"
        }
      ],
      "name": "VerifyState",
      "type": "event"
    },
    {
      "anonymous": false,
      "inputs": [
        {
          "indexed": false,
          "internalType": "uint8",
          "name": "result",
          "type": "uint8"
        }
      ],
      "name": "VerifyTransaction",
      "type": "event"
    },
    {
      "anonymous": false,
      "inputs": [
        {
          "indexed": false,
          "internalType": "address",
          "name": "client",
          "type": "address"
        },
        {
          "indexed": false,
          "internalType": "uint256",
          "name": "withdrawnStake",
          "type": "uint256"
        }
      ],
      "name": "WithdrawStake",
      "type": "event"
    },
    {
      "inputs": [],
      "name": "getGenesisBlockHash",
      "outputs": [
        {
          "internalType": "bytes32",
          "name": "hash",
          "type": "bytes32"
        }
      ],
      "stateMutability": "view",
      "type": "function"
    },
    {
      "inputs": [
        {
          "internalType": "bytes32",
          "name": "blockHash",
          "type": "bytes32"
        }
      ],
      "name": "getHeader",
      "outputs": [
        {
          "internalType": "bytes32",
          "name": "hash",
          "type": "bytes32"
        },
        {
          "internalType": "uint256",
          "name": "blockNumber",
          "type": "uint256"
        },
        {
          "internalType": "uint256",
          "name": "totalDifficulty",
          "type": "uint256"
        }
      ],
      "stateMutability": "view",
      "type": "function"
    },
    {
      "inputs": [],
      "name": "getLongestChainEndpoint",
      "outputs": [
        {
          "internalType": "bytes32",
          "name": "hash",
          "type": "bytes32"
        }
      ],
      "stateMutability": "view",
      "type": "function"
    },
    {
      "inputs": [
        {
          "internalType": "bytes32",
          "name": "hash",
          "type": "bytes32"
        }
      ],
      "name": "isHeaderStored",
      "outputs": [
        {
          "internalType": "bool",
          "name": "",
          "type": "bool"
        }
      ],
      "stateMutability": "view",
      "type": "function"
    },
    {
      "inputs": [
        {
          "internalType": "uint256",
          "name": "amount",
          "type": "uint256"
        }
      ],
      "name": "depositStake",
      "outputs": [],
      "stateMutability": "payable",
      "type": "function"
    },
    {
      "inputs": [
        {
          "internalType": "uint256",
          "name": "amount",
          "type": "uint256"
        }
      ],
      "name": "withdrawStake",
      "outputs": [],
      "stateMutability": "nonpayable",
      "type": "function"
    },
    {
      "inputs": [],
      "name": "getStake",
      "outputs": [
        {
          "internalType": "uint256",
          "name": "",
          "type": "uint256"
        }
      ],
      "stateMutability": "view",
      "type": "function"
    },
    {
      "inputs": [],
      "name": "getRequiredStakePerBlock",
      "outputs": [
        {
          "internalType": "uint256",
          "name": "",
          "type": "uint256"
        }
      ],
      "stateMutability": "pure",
      "type": "function"
    },
    {
      "inputs": [],
      "name": "getRequiredVerificationFee",
      "outputs": [
        {
          "internalType": "uint256",
          "name": "",
          "type": "uint256"
        }
      ],
      "stateMutability": "pure",
      "type": "function"
    },
    {
      "inputs": [],
      "name": "getBlockHashesSubmittedByClient",
      "outputs": [
        {
          "internalType": "bytes32[]",
          "name": "",
          "type": "bytes32[]"
        }
      ],
      "stateMutability": "view",
      "type": "function"
    },
    {
      "inputs": [
        {
          "internalType": "bytes",
          "name": "rlpHeader",
          "type": "bytes"
        }
      ],
      "name": "submitBlock",
      "outputs": [],
      "stateMutability": "nonpayable",
      "type": "function"
    },
    {
      "inputs": [
        {
          "internalType": "bytes",
          "name": "_rlpHeaders",
          "type": "bytes"
        }
      ],
      "name": "submitBlockBatch",
      "outputs": [],
      "stateMutability": "nonpayable",
      "type": "function"
    },
    {
      "inputs": [
        {
          "internalType": "bytes",
          "name": "rlpHeader",
          "type": "bytes"
        },
        {
          "internalType": "bytes",
          "name": "rlpParent",
          "type": "bytes"
        },
        {
          "internalType": "uint256[]",
          "name": "dataSetLookup",
          "type": "uint256[]"
        },
        {
          "internalType": "uint256[]",
          "name": "witnessForLookup",
          "type": "uint256[]"
        }
      ],
      "name": "disputeBlockHeader",
      "outputs": [],
      "stateMutability": "nonpayable",
      "type": "function"
    },
    {
      "inputs": [
        {
          "internalType": "uint256",
          "name": "feeInWei",
          "type": "uint256"
        },
        {
          "internalType": "bytes",
          "name": "rlpHeader",
          "type": "bytes"
        },
        {
          "internalType": "uint8",
          "name": "noOfConfirmations",
          "type": "uint8"
        },
        {
          "internalType": "bytes",
          "name": "rlpEncodedTx",
          "type": "bytes"
        },
        {
          "internalType": "bytes",
          "name": "path",
          "type": "bytes"
        },
        {
          "internalType": "bytes",
          "name": "rlpEncodedNodes",
          "type": "bytes"
        }
      ],
      "name": "verifyTransaction",
      "outputs": [
        {
          "internalType": "uint8",
          "name": "",
          "type": "uint8"
        }
      ],
      "stateMutability": "payable",
      "type": "function"
    },
    {
      "inputs": [
        {
          "internalType": "uint256",
          "name": "feeInWei",
          "type": "uint256"
        },
        {
          "internalType": "bytes",
          "name": "rlpHeader",
          "type": "bytes"
        },
        {
          "internalType": "uint8",
          "name": "noOfConfirmations",
          "type": "uint8"
        },
        {
          "internalType": "bytes",
          "name": "rlpEncodedReceipt",
          "type": "bytes"
        },
        {
          "internalType": "bytes",
          "name": "path",
          "type": "bytes"
        },
        {
          "internalType": "bytes",
          "name": "rlpEncodedNodes",
          "type": "bytes"
        }
      ],
      "name": "verifyReceipt",
      "outputs": [
        {
          "internalType": "uint8",
          "name": "",
          "type": "uint8"
        }
      ],
      "stateMutability": "payable",
      "type": "function"
    },
    {
      "inputs": [
        {
          "internalType": "uint256",
          "name": "feeInWei",
          "type": "uint256"
        },
        {
          "internalType": "bytes",
          "name": "rlpHeader",
          "type": "bytes"
        },
        {
          "internalType": "uint8",
          "name": "noOfConfirmations",
          "type": "uint8"
        },
        {
          "internalType": "bytes",
          "name": "rlpEncodedState",
          "type": "bytes"
        },
        {
          "internalType": "bytes",
          "name": "path",
          "type": "bytes"
        },
        {
          "internalType": "bytes",
          "name": "rlpEncodedNodes",
          "type": "bytes"
        }
      ],
      "name": "verifyState",
      "outputs": [
        {
          "internalType": "uint8",
          "name": "",
          "type": "uint8"
        }
      ],
      "stateMutability": "payable",
      "type": "function"
    },
    {
      "inputs": [
        {
          "internalType": "uint256",
          "name": "feeInWei",
          "type": "uint256"
        },
        {
          "internalType": "bytes32",
          "name": "blockHash",
          "type": "bytes32"
        },
        {
          "internalType": "uint8",
          "name": "noOfConfirmations",
          "type": "uint8"
        }
      ],
      "name": "isBlockConfirmed",
      "outputs": [
        {
          "internalType": "bool",
          "name": "",
          "type": "bool"
        }
      ],
      "stateMutability": "payable",
      "type": "function"
    }
  ],
  "bytecode": "0x608060405260008054600160a01b600160e01b03191690553480156200002457600080fd5b5060405162004e9438038062004e94833981810160405260608110156200004a57600080fd5b81019080805160405193929190846401000000008211156200006b57600080fd5b9083019060208201858111156200008157600080fd5b82516401000000008111828201881017156200009c57600080fd5b82525081516020918201929091019080838360005b83811015620000cb578181015183820152602001620000b1565b50505050905090810190601f168015620000f95780820380516001836020036101000a031916815260200191505b5060409081526020828101519290910151855191860191909120919350915083908390839060006200012b85620003e7565b90506200013762000a44565b828160400181815250508160a00151816000019062ffffff16908162ffffff16815250508481602001906001600160e81b031690816001600160e81b031681525050600060149054906101000a90046001600160401b03168160600151602001906001600160401b031690816001600160401b03168152505060048390806001815401808255809150506001900390600052602060002001600090919091909150556001600480549050038160600151600001906001600160401b031690816001600160401b031681525050428160600151604001906001600160401b031690816001600160401b031681525050806003600085815260200190815260200160002060008201518160000160006101000a81548162ffffff021916908362ffffff16021790555060208201518160000160036101000a8154816001600160e81b0302191690836001600160e81b031602179055506040820151816001015560608201518160020160008201518160000160006101000a8154816001600160401b0302191690836001600160401b0316021790555060208201518160000160086101000a8154816001600160401b0302191690836001600160401b0316021790555060408201518160000160106101000a8154816001600160401b0302191690836001600160401b031602179055506060820151816001015560808201518160020160006101000a8154816001600160a01b0302191690836001600160a01b0316021790555060a08201518160030190805190602001906200037a92919062000a74565b50505060018590555050600080546001600160a01b0319166001600160a01b03861617905560028390556040805184815290517f5f11b60a71ba7b4124fe41971a682a44d1af8fff92e0c4852a2701e56323218a916020908290030190a150505050505050505062000bbc565b620003f162000ac4565b620003fb62000ac4565b6000620004286200041785620006c860201b620012de1760201c565b620006ef60201b620013031760201c565b905060005b62000443826200074660201b6200134d1760201c565b15620006bd578062000482576200047a62000469836200075b60201b620013621760201c565b620007b060201b620013b01760201c565b8352620006b4565b8060011415620004b157620004a662000469836200075b60201b620013621760201c565b6020840152620006b4565b8060031415620004e057620004d562000469836200075b60201b620013621760201c565b6040840152620006b4565b80600414156200050f576200050462000469836200075b60201b620013621760201c565b6060840152620006b4565b80600514156200053e576200053362000469836200075b60201b620013621760201c565b6080840152620006b4565b80600714156200056e576200056262000469836200075b60201b620013621760201c565b610160840152620006b4565b80600814156200059d576200059262000469836200075b60201b620013621760201c565b60a0840152620006b4565b8060091415620005cc57620005c162000469836200075b60201b620013621760201c565b60c0840152620006b4565b80600a1415620005fb57620005f062000469836200075b60201b620013621760201c565b60e0840152620006b4565b80600b14156200062b576200061f62000469836200075b60201b620013621760201c565b610120840152620006b4565b80600c14156200066c57620006606200064f836200075b60201b620013621760201c565b6200081b60201b620014101760201c565b610180840152620006b4565b80600e14156200069c576200069062000469836200075b60201b620013621760201c565b610140840152620006b4565b620006b2826200075b60201b620013621760201c565b505b6001016200042d565b50909150505b919050565b620006d262000b32565b506040805180820190915281518152602082810190820152919050565b620006f962000b4c565b6200070482620008aa565b6200070e57600080fd5b6000620007258360200151620008e860201b60201c565b60208085015160408051808201909152868152920190820152915050919050565b80518051602091820151919092015191011190565b6200076562000b32565b620007708262000746565b6200077a57600080fd5b602082015160006200078c8262000954565b80830160209586015260408051808201909152908152938401919091525090919050565b805160009015801590620007c657508151602110155b620007d057600080fd5b6000620007e78360200151620008e860201b60201c565b835160208086015183018051939450918490039291908310156200081257826020036101000a820491505b50949350505050565b80516060906200082a57600080fd5b6000620008418360200151620008e860201b60201c565b83519091508190036000816001600160401b03811180156200086257600080fd5b506040519080825280601f01601f1916602001820160405280156200088e576020820181803683370190505b50602086810151919250820190620008129085018285620009f5565b8051600090620008bd57506000620006c3565b6020820151805160001a9060c0821015620008de57600092505050620006c3565b5060019392505050565b8051600090811a608081101562000904576000915050620006c3565b60b881108062000921575060c0811080159062000921575060f881105b1562000932576001915050620006c3565b60c0811015620009485760b519019050620006c3565b60f519019050620006c3565b80516000908190811a6080811015620009715760019150620009ee565b60b88110156200098857607e1981019150620009ee565b60c0811015620009b75760b78103600185019450806020036101000a85510460018201810193505050620009ee565b60f8811015620009ce5760be1981019150620009ee565b60f78103600185019450806020036101000a855104600182018101935050505b5092915050565b8062000a015762000a3f565b5b6020811062000a23578251825260209283019290910190601f190162000a02565b8251825160208390036101000a60001901801990921691161782525b505050565b60408051608081018252600080825260208201819052918101919091526060810162000a6f62000b6e565b905290565b82805482825590600052602060002090810192821562000ab2579160200282015b8281111562000ab257825182559160200191906001019062000a95565b5062000ac092915062000ba5565b5090565b604080516101a08101825260008082526020820181905291810182905260608082018390526080820183905260a0820183905260c0820183905260e0820183905261010082018390526101208201839052610140820183905261016082019290925261018081019190915290565b604051806040016040528060008152602001600081525090565b604051806040016040528062000b6162000b32565b8152602001600081525090565b6040805160c0810182526000808252602082018190529181018290526060808201839052608082019290925260a081019190915290565b5b8082111562000ac0576000815560010162000ba6565b6142c88062000bcc6000396000f3fe60806040526004361061010e5760003560e01c8063b9615878116100a5578063dfd6dff811610074578063f06dab9e11610059578063f06dab9e14610abb578063fbdf930d14610b20578063fc0e3d9014610d255761010e565b8063dfd6dff81461084a578063ed315dfa146108765761010e565b8063b9615878146106f6578063cb82cc8f1461073e578063d0f0923b1461075b578063d5107381146107995761010e565b80633452e2db116100e15780633452e2db1461022c5780635e29b7da14610241578063acef3a1e1461049c578063addd9b38146104b15761010e565b80630d6501a6146101135780631b2e10541461013a57806325d5971f146101ed57806329a12be914610217575b600080fd5b34801561011f57600080fd5b50610128610d3a565b60408051918252519081900360200190f35b34801561014657600080fd5b506101eb6004803603602081101561015d57600080fd5b810190602081018135600160201b81111561017757600080fd5b82018360208201111561018957600080fd5b803590602001918460018302840111600160201b831117156101aa57600080fd5b91908080601f016020809104026020016040519081016040528093929190818152602001838380828437600092019190915250929550610d40945050505050565b005b3480156101f957600080fd5b506101eb6004803603602081101561021057600080fd5b5035610d8c565b34801561022357600080fd5b50610128610e95565b34801561023857600080fd5b50610128610e9b565b610486600480360360c081101561025757600080fd5b81359190810190604081016020820135600160201b81111561027857600080fd5b82018360208201111561028a57600080fd5b803590602001918460018302840111600160201b831117156102ab57600080fd5b91908080601f016020809104026020016040519081016040528093929190818152602001838380828437600092019190915250929560ff853516959094909350604081019250602001359050600160201b81111561030857600080fd5b82018360208201111561031a57600080fd5b803590602001918460018302840111600160201b8311171561033b57600080fd5b91908080601f0160208091040260200160405190810160405280939291908181526020018383808284376000920191909152509295949360208101935035915050600160201b81111561038d57600080fd5b82018360208201111561039f57600080fd5b803590602001918460018302840111600160201b831117156103c057600080fd5b91908080601f0160208091040260200160405190810160405280939291908181526020018383808284376000920191909152509295949360208101935035915050600160201b81111561041257600080fd5b82018360208201111561042457600080fd5b803590602001918460018302840111600160201b8311171561044557600080fd5b91908080601f016020809104026020016040519081016040528093929190818152602001838380828437600092019190915250929550610ea7945050505050565b6040805160ff9092168252519081900360200190f35b3480156104a857600080fd5b50610128610f01565b610486600480360360c08110156104c757600080fd5b81359190810190604081016020820135600160201b8111156104e857600080fd5b8201836020820111156104fa57600080fd5b803590602001918460018302840111600160201b8311171561051b57600080fd5b91908080601f016020809104026020016040519081016040528093929190818152602001838380828437600092019190915250929560ff853516959094909350604081019250602001359050600160201b81111561057857600080fd5b82018360208201111561058a57600080fd5b803590602001918460018302840111600160201b831117156105ab57600080fd5b91908080601f0160208091040260200160405190810160405280939291908181526020018383808284376000920191909152509295949360208101935035915050600160201b8111156105fd57600080fd5b82018360208201111561060f57600080fd5b803590602001918460018302840111600160201b8311171561063057600080fd5b91908080601f0160208091040260200160405190810160405280939291908181526020018383808284376000920191909152509295949360208101935035915050600160201b81111561068257600080fd5b82018360208201111561069457600080fd5b803590602001918460018302840111600160201b831117156106b557600080fd5b91908080601f016020809104026020016040519081016040528093929190818152602001838380828437600092019190915250929550610f0d945050505050565b34801561070257600080fd5b506107206004803603602081101561071957600080fd5b5035610f65565b60408051938452602084019290925282820152519081900360600190f35b6101eb6004803603602081101561075457600080fd5b5035610f96565b34801561076757600080fd5b506107856004803603602081101561077e57600080fd5b5035610fec565b604080519115158252519081900360200190f35b3480156107a557600080fd5b506101eb600480360360208110156107bc57600080fd5b810190602081018135600160201b8111156107d657600080fd5b8201836020820111156107e857600080fd5b803590602001918460018302840111600160201b8311171561080957600080fd5b91908080601f016020809104026020016040519081016040528093929190818152602001838380828437600092019190915250929550611008945050505050565b6107856004803603606081101561086057600080fd5b508035906020810135906040013560ff166110e5565b610486600480360360c081101561088c57600080fd5b81359190810190604081016020820135600160201b8111156108ad57600080fd5b8201836020820111156108bf57600080fd5b803590602001918460018302840111600160201b831117156108e057600080fd5b91908080601f016020809104026020016040519081016040528093929190818152602001838380828437600092019190915250929560ff853516959094909350604081019250602001359050600160201b81111561093d57600080fd5b82018360208201111561094f57600080fd5b803590602001918460018302840111600160201b8311171561097057600080fd5b91908080601f0160208091040260200160405190810160405280939291908181526020018383808284376000920191909152509295949360208101935035915050600160201b8111156109c257600080fd5b8201836020820111156109d457600080fd5b803590602001918460018302840111600160201b831117156109f557600080fd5b91908080601f0160208091040260200160405190810160405280939291908181526020018383808284376000920191909152509295949360208101935035915050600160201b811115610a4757600080fd5b820183602082011115610a5957600080fd5b803590602001918460018302840111600160201b83111715610a7a57600080fd5b91908080601f01602080910402602001604051908101604052809392919081815260200183838082843760009201919091525092955061117e945050505050565b348015610ac757600080fd5b50610ad06111d6565b60408051602080825283518183015283519192839290830191858101910280838360005b83811015610b0c578181015183820152602001610af4565b505050509050019250505060405180910390f35b348015610b2c57600080fd5b506101eb60048036036080811015610b4357600080fd5b810190602081018135600160201b811115610b5d57600080fd5b820183602082011115610b6f57600080fd5b803590602001918460018302840111600160201b83111715610b9057600080fd5b919390929091602081019035600160201b811115610bad57600080fd5b820183602082011115610bbf57600080fd5b803590602001918460018302840111600160201b83111715610be057600080fd5b91908080601f0160208091040260200160405190810160405280939291908181526020018383808284376000920191909152509295949360208101935035915050600160201b811115610c3257600080fd5b820183602082011115610c4457600080fd5b803590602001918460208302840111600160201b83111715610c6557600080fd5b9190808060200260200160405190810160405280939291908181526020018383602002808284376000920191909152509295949360208101935035915050600160201b811115610cb457600080fd5b820183602082011115610cc657600080fd5b803590602001918460208302840111600160201b83111715610ce757600080fd5b919080806020026020016040519081016040528093929190818152602001838360200280828437600092019190915250929550611237945050505050565b348015610d3157600080fd5b506101286112cb565b60015490565b6000610d53610d4e836112de565b611303565b90505b610d5f8161134d565b15610d88576000610d77610d7283611362565b611410565b9050610d8281611008565b50610d56565b5050565b33600090815260066020526040902054811115610dda5760405162461bcd60e51b815260040180806020018281038252602281526020018061422f6022913960400191505060405180910390fd5b80610de433611495565b10610e3357610df333826114f8565b604080513381526020810183905281517f141ef67c4a6d3ec2adfb2f66d33c2b11de5b4f34344757554d430570b18a92ec929181900390910190a1610e92565b610e3c33611545565b5080610e4733611495565b10610e5657610df333826114f8565b604080513381526000602082015281517f141ef67c4a6d3ec2adfb2f66d33c2b11de5b4f34344757554d430570b18a92ec929181900390910190a15b50565b60025490565b67016345785d8a000090565b600080610eba6001898989898989611684565b6040805160ff8316815290519192507f567d80f0e2776186d59c264eaa20bafaf2a33c3126d76bd5d0b4c5ff4d1342c6919081900360200190a190505b9695505050505050565b670de0b6b3a764000090565b600080610f206003898989898989611684565b6040805160ff8316815290519192507fb960845fd31f80d28f3e163cea6db4e82ffd7fdabd4694856ce80ed58dd2e9ce919081900360200190a1979650505050505050565b600090815260036020526040902060018101549054909162ffffff821691630100000090046001600160e81b031690565b348114610fd45760405162461bcd60e51b815260040180806020018281038252602f815260200180614197602f913960400191505060405180910390fd5b50336000908152600660205260409020805434019055565b60008181526003602052604090205462ffffff1615155b919050565b670de0b6b3a764000061101a33611495565b101561107b5761102933611545565b50670de0b6b3a764000061103c33611495565b101561107b57604080516000815290517f5f11b60a71ba7b4124fe41971a682a44d1af8fff92e0c4852a2701e56323218a9181900360200190a1610e92565b600061108782336117d1565b336000908152600560209081526040808320805460018101825590845292829020909201839055815183815291519293507f5f11b60a71ba7b4124fe41971a682a44d1af8fff92e0c4852a2701e56323218a92918290030190a15050565b60003484146111255760405162461bcd60e51b815260040180806020018281038252602f815260200180614197602f913960400191505060405180910390fd5b67016345785d8a000084101561116c5760405162461bcd60e51b81526004018080602001828103825260268152602001806142096026913960400191505060405180910390fd5b6111768383611c7a565b949350505050565b6000806111916002898989898989611684565b6040805160ff8316815290519192507f0c3d1c6f7d35f62105cedeb1fea90976e3ea2ef20186074e47754bc04bfbf790919081900360200190a1979650505050505050565b3360009081526005602090815260409182902080548351818402810184019094528084526060939283018282801561122d57602002820191906000526020600020905b815481526020019060010190808311611219575b5050505050905090565b60006112468686868686611d2f565b90506000805b82518110156112ac57600083828151811061126357fe5b6020908102919091018101516001600160a01b031660009081526006909152604090208054670de0b6b3a763ffff1901905550670de0b6b3a7640000919091019060010161124c565b5033600090815260066020526040902080549091019055505050505050565b3360009081526006602052604090205490565b6112e6613f88565b506040805180820190915281518152602082810190820152919050565b61130b613fa2565b61131482611dda565b61131d57600080fd5b600061132c8360200151611e14565b60208085015160408051808201909152868152920190820152915050919050565b80518051602091820151919092015191011190565b61136a613f88565b6113738261134d565b61137c57600080fd5b6020820151600061138c82611e77565b80830160209586015260408051808201909152908152938401919091525090919050565b8051600090158015906113c557508151602110155b6113ce57600080fd5b60006113dd8360200151611e14565b8351602080860151830180519394509184900392919083101561140757826020036101000a820491505b50949350505050565b805160609061141e57600080fd5b600061142d8360200151611e14565b835190915081900360008167ffffffffffffffff8111801561144e57600080fd5b506040519080825280601f01601f191660200182016040528015611479576020820181803683370190505b5090506000816020019050611407848760200151018285611f0b565b6001600160a01b0381166000908152600560209081526040808320546006909252822054670de0b6b3a7640000909102908111156114d7576000915050611003565b6001600160a01b038316600090815260066020526040902054039050611003565b6001600160a01b038216600081815260066020526040808220805485900390555183156108fc0291849190818181858888f19350505050158015611540573d6000803e3d6000fd5b505050565b600080805b6001600160a01b03841660009081526005602052604090205481101561167d576001600160a01b038416600090815260056020526040812080548390811061158e57fe5b906000526020600020015490506115a481610fec565b15806115b457506115b481611f56565b15611670576001600160a01b0385166000908152600560205260409020805460001981019190829081106115e457fe5b906000526020600020015460056000886001600160a01b03166001600160a01b03168152602001908152602001600020848154811061161f57fe5b60009182526020808320909101929092556001600160a01b038816815260059091526040902080548061164e57fe5b6001900381819060005260206000200160009055905560018401935050611677565b6001909101905b5061154a565b5092915050565b60003487146116c45760405162461bcd60e51b815260040180806020018281038252602f815260200180614197602f913960400191505060405180910390fd5b67016345785d8a000087101561170b5760405162461bcd60e51b81526004018080602001828103825260268152602001806142096026913960400191505060405180910390fd5b85516020870120600060ff8a166001141561173d5761173682888888886117318e611f7f565b611fe1565b90506117c4565b60ff8a166002141561175a5761173682888888886117318e612154565b60ff8a16600314156117775761173682888888886117318e61219d565b6040805162461bcd60e51b815260206004820152601960248201527f556e6b6e6f776e20766572696669636174696f6e207479706500000000000000604482015290519081900360640190fd5b9998505050505050505050565b60006117db613fc2565b835160208501206117eb81610fec565b1561183d576040805162461bcd60e51b815260206004820152601460248201527f626c6f636b20616c726561647920657869737473000000000000000000000000604482015290519081900360640190fd5b600080600061184b886121e6565b9194509250905061185b83610fec565b6118ac576040805162461bcd60e51b815260206004820152601560248201527f706172656e7420646f6573206e6f742065786973740000000000000000000000604482015290519081900360640190fd5b60008381526003602090815260408083206005810180546001810182559085529383902090930187905587810187905262ffffff8516885282546001600160e81b03630100000090910481168501169188019190915260608701805167ffffffffffffffff4261012c0181169190930152516001600160a01b038a166080909101526002820154600454911610801561196b5750600281015460048054869267ffffffffffffffff1690811061195e57fe5b9060005260206000200154145b156119f2576002810154606087015167ffffffffffffffff600160401b8304811660209092019190915260408801516004805491939092169081106119ac57fe5b6000918252602090912001556002810180546060808901805167ffffffffffffffff8416905267ffffffffffffffff199092169092556003830154905190910152611af9565b6000805467ffffffffffffffff7401000000000000000000000000000000000000000080830482166001908101831682027fffffffff0000000000000000ffffffffffffffffffffffffffffffffffffffff909416939093178085556060808c01805193909204841660209093019290925260408b0151600480549586018155958690527f8a35acfbc15ff81a39ae7d344fd709f28e8600b4aa8c65c6b64bfe7fe36bd19b90940193909355925482516000199190910190911690525101849052600581015460021415611af957611af96003600083600201600301600081548110611ada57fe5b9060005260206000200154815260200190815260200160002085612284565b600154600090815260036020908152604090912054908701516001600160e81b036301000000909204821691161115611b325760018590555b60408087018051600090815260036020818152918490208a518154848d01516001600160e81b031663010000000262ffffff92831662ffffff1990921691909117909116178155925160018401556060808b01518051600286018054838701519884015167ffffffffffffffff908116600160801b027fffffffffffffffff0000000000000000ffffffffffffffffffffffffffffffff9a8216600160401b026fffffffffffffffff0000000000000000199290951667ffffffffffffffff1990931692909217169290921797909716178655908101519184019190915560808101516004840180546001600160a01b0390921673ffffffffffffffffffffffffffffffffffffffff1990921691909117905560a081015180518b959293611c61926005870192910190613ff0565b5050506040909701519750505050505050505b92915050565b6000611c8583610fec565b611c9157506000611c74565b600080611ca0856001546122e2565b909250905081611cb557600092505050611c74565b6000858152600360205260408082205483835291205462ffffff91821660ff8716018216911611611d2457600085815260036020526040808220548383529082205462ffffff91821691160390940393611d0f8286612423565b905080611d225760009350505050611c74565b505b506001949350505050565b60606000611d4087878787876124a1565b6040805160008152602081019091529091508115611d9c57611d99888860405180838380828437808301925050509250505060405180910390206003600089805190602001208152602001908152602001600020612671565b90505b6040805183815290517ff68bea46bc6fb530eae297355e0d416e2545678c786c03ed115311db0dd361409181900360200190a1979650505050505050565b8051600090611deb57506000611003565b6020820151805160001a9060c0821015611e0a57600092505050611003565b5060019392505050565b8051600090811a6080811015611e2e576000915050611003565b60b8811080611e49575060c08110801590611e49575060f881105b15611e58576001915050611003565b60c0811015611e6c5760b519019050611003565b60f519019050611003565b80516000908190811a6080811015611e92576001915061167d565b60b8811015611ea757607e198101915061167d565b60c0811015611ed45760b78103600185019450806020036101000a8551046001820181019350505061167d565b60f8811015611ee95760be198101915061167d565b60019390930151602084900360f7016101000a900490920160f5190192915050565b80611f1557611540565b5b60208110611f35578251825260209283019290910190601f1901611f16565b915181516020939093036101000a6000190180199091169216919091179052565b60009081526003602052604090206002015442600160801b90910467ffffffffffffffff161090565b600080611f8e610d4e846112de565b905060005b611f9c8261134d565b15611fd7578060041415611fc557611fbb611fb683611362565b6113b0565b9250611003915050565b611fce82611362565b50600101611f93565b5060009392505050565b6000611fec87610fec565b61203d576040805162461bcd60e51b815260206004820152601460248201527f626c6f636b20646f6573206e6f74206578697374000000000000000000000000604482015290519081900360640190fd5b60008061204c896001546122e2565b915091508161208c5760405162461bcd60e51b815260040180806020018281038252602a81526020018061413c602a913960400191505060405180910390fd5b6000898152600360205260408082205483835291205462ffffff91821660ff8b1601821691161161212657600089815260036020526040808220548383529082205462ffffff918216911603909803976120e6828a612423565b9050806121245760405162461bcd60e51b81526004018080602001828103825260318152602001806141666031913960400191505060405180910390fd5b505b6000612134888888886128e8565b111561214557600192505050610ef7565b50600098975050505050505050565b600080612163610d4e846112de565b905060005b6121718261134d565b15611fd757806005141561218b57611fbb611fb683611362565b61219482611362565b50600101612168565b6000806121ac610d4e846112de565b905060005b6121ba8261134d565b15611fd75780600314156121d457611fbb611fb683611362565b6121dd82611362565b506001016121b1565b6000806000806000806000806121fe610d4e8a6112de565b90505b61220a8161134d565b15612275578461222757612220611fb682611362565b935061226a565b84600714156122435761223c611fb682611362565b915061226a565b846008141561225f57612258611fb682611362565b925061226a565b61226881611362565b505b600190940193612201565b50919790965090945092505050565b600382015481141561229557610d88565b60038201819055600582015460011415610d8857610d8860036000846002016003016000815481106122c357fe5b9060005260206000200154815260200190815260200160002082612284565b6000808281806122f183611f56565b156122fa578291505b600087815260036020526040808220600290810154868452919092209091015467ffffffffffffffff600160401b9283900481169290910416111561238a57506000918252600360208190526040909220600281015492015491600160401b900467ffffffffffffffff16816123855761237383611f56565b15612385576123828382612b3f565b91505b6122fa565b600087815260036020526040808220600290810154868452919092209091015467ffffffffffffffff600160401b928390048116929091041610156123d7575060009350915061241c9050565b6000878152600360205260408082205485835291205462ffffff9182169116101561240a575060009350915061241c9050565b81612413578691505b50600193509150505b9250929050565b600061242e83611f56565b61243a57506000611c74565b60ff821661244a57506001611c74565b60008381526003602052604090206005015461246857506000611c74565b6000838152600360205260408120600501805461249a929061248657fe5b906000526020600020015460018403612423565b9392505050565b60008060008060006124ea8a8a8080601f0160208091040260200160405190810160405280939291908181526020018383808284376000920191909152508c9250612bce915050565b929650909450925090508361266357600080546001600160a01b03166329e265df856125168e8e612fc9565b86868d8d6040518763ffffffff1660e01b8152600401808762ffffff1681526020018681526020018581526020018481526020018060200180602001838103835285818151815260200191508051906020019060200280838360005b8381101561258a578181015183820152602001612572565b50505050905001838103825284818151815260200191508051906020019060200280838360005b838110156125c95781810151838201526020016125b1565b5050505090500198505050505050505050604080518083038186803b1580156125f157600080fd5b505afa158015612605573d6000803e3d6000fd5b505050506040513d604081101561261b57600080fd5b5080516020918201516040805183815293840182905280519298509093507f368fee0c56ae41c07d7c93332427c609564426ae664e6298300f00514aebe48e928290030190a1505b509198975050505050505050565b606060006126808460006131d8565b6005840154909150600114156126f25760018381015460048054928301815560008190527f8a35acfbc15ff81a39ae7d344fd709f28e8600b4aa8c65c6b64bfe7fe36bd19b909201555460028401805467ffffffffffffffff191660001990920167ffffffffffffffff169190911790555b60005b6005840154811015612792578484600201600301828154811061271457fe5b9060005260206000200154141561278a57600584018054600019810190811061273957fe5b906000526020600020015484600201600301828154811061275657fe5b6000918252602090912001556005840180548061276f57fe5b60019003818190600052602060002001600090559055612792565b6001016126f5565b506005830154600114156127f6576127f660036000856002016003016000815481106127ba57fe5b6000918252602080832090910154835282019290925260400190206003850154600286015467ffffffffffffffff600160401b909104166134e4565b600460008154811061280457fe5b60009182526020909120015460019081555b6004548110156128ad5760015460009081526003602081905260408220546004805463010000009092046001600160e81b031693918590811061285557fe5b600091825260208083209091015483528201929092526040019020546001600160e81b0363010000009091041611156128a5576004818154811061289557fe5b6000918252602090912001546001555b600101612816565b506040805185815290517ff96ae1a1e71431cfb86761b9cab725aeddab2afdaf76d40d43fc005bdc6555d49181900360200190a19392505050565b6000806128f4846112de565b9050600061290182613570565b9050606080856000806129138b613658565b905080516000141561292f576001975050505050505050611176565b60005b8651811015612b2f57815183111561295557600298505050505050505050611176565b61297187828151811061296457fe5b6020026020010151611410565b95508580519060200120841461299257600398505050505050505050611176565b6129a361299e876112de565b613570565b9450845160111415612a605781518314156129ff578c805190602001206129d08660108151811061296457fe5b8051906020012014156129ee57600098505050505050505050611176565b600498505050505050505050611176565b6000828481518110612a0d57fe5b016020015160f81c90506010811115612a325760059950505050505050505050611176565b612a51868260ff1681518110612a4457fe5b60200260200101516113b0565b94505060019290920191612b27565b845160021415612b1657612a84612a7d8660008151811061296457fe5b83856136e6565b8251930192831415612ad7578c80519060200120612aa88660018151811061296457fe5b805190602001201415612ac657600098505050505050505050611176565b600698505050505050505050611176565b612aea612a7d8660008151811061296457fe5b612aff57600798505050505050505050611176565b612b0f85600181518110612a4457fe5b9350612b27565b600898505050505050505050611176565b600101612932565b5050505050505050949350505050565b6000805b600084815260036020526040902060050154811015612bc6576000848152600360205260408120600501805483908110612b7957fe5b6000918252602080832090910154808352600390915260409091206002015490915067ffffffffffffffff600160401b90910416841415612bbd579150611c749050565b50600101612b43565b509192915050565b600080600080600086805190602001209050600086805190602001209050612bf582610fec565b612c46576040805162461bcd60e51b815260206004820152601e60248201527f70726f76696465642068656164657220646f6573206e6f742065786973740000604482015290519081900360640190fd5b612c4f81610fec565b612ca0576040805162461bcd60e51b815260206004820152601e60248201527f70726f766964656420706172656e7420646f6573206e6f742065786973740000604482015290519081900360640190fd5b612ca982611f56565b15612cfb576040805162461bcd60e51b815260206004820152601960248201527f6469737075746520706572696f64206973206578706972656400000000000000604482015290519081900360640190fd5b600082815260036020818152604080842085855293819020815160808082018452865462ffffff81168352630100000090046001600160e81b031682860152600187015482850152835160c08101855260028801805467ffffffffffffffff8082168452600160401b82048116848a0152600160801b90910416828701529688015460608083019190915260048901546001600160a01b0316928201929092526005880180548651818902810189019097528087529497612f009794968a96948801959394919360a0860193919290830182828015612df957602002820191906000526020600020905b815481526020019060010190808311612de5575b505050919092525050509052506040805160808082018352855462ffffff81168352630100000090046001600160e81b0316602080840191909152600187015483850152835160c08101855260028801805467ffffffffffffffff8082168452600160401b8204811684860152600160801b9091041682870152600389015460608084019190915260048a01546001600160a01b03169483019490945260058901805487518186028101860190985280885295968a96958801959394929360a0860193919291830182828015612eee57602002820191906000526020600020905b815481526020019060010190808311612eda575b505050505081525050815250506137c5565b612f3b5760405162461bcd60e51b81526004018080602001828103825260438152602001806141c66043913960600191505060405180910390fd5b6000612f468b61381a565b90506000612f538b61381a565b82519091508514612f955760405162461bcd60e51b81526004018080602001828103825260428152602001806142516042913960600191505060405180910390fd5b612f9f82826139d8565b935461014083015161016090930151949d62ffffff9091169c50919a509298509650505050505050565b60008061300e610d4e85858080601f0160208091040260200160405190810160405280939291908181526020018383808284376000920191909152506112de92505050565b90506003600080805b6130208561134d565b156130645782600d1415613032578391505b600061303d86611362565b805195909501949050600e8414156130585784915050613064565b50600190920191613017565b600082880182900367ffffffffffffffff8111801561308257600080fd5b506040519080825280601f01601f1916602001820160405280156130ad576020820181803683370190505b50905060005b815181101561315b578381101561310d576130d18460008b8d614113565b828181106130db57fe5b9050013560f81c60f81b8282815181106130f157fe5b60200101906001600160f81b031916908160001a905350613153565b6131198984818d614113565b85830381811061312557fe5b9050013560f81c60f81b82828151811061313b57fe5b60200101906001600160f81b031916908160001a9053505b6001016130b3565b5082820388036002190160f081901b8060001a60f81b8360018151811061317e57fe5b60200101906001600160f81b031916908160001a9053508060011a60f81b836002815181106131a957fe5b60200101906001600160f81b031916908160001a90535082805190602001209850505050505050505092915050565b6000828152600360205260409020600581015460019283019260609291839110156132af5760408051600080825260208201909252905b600584015481101561325b57600061324485600201600301838154811061323257fe5b906000526020600020015460006131d8565b90506132508382613ae5565b92505060010161320f565b506132ab8582510167ffffffffffffffff8111801561327957600080fd5b506040519080825280602002602001820160405280156132a3578160200160208202803683370190505b508287613bd7565b9150505b6005820154600114156132e6576132e3826002016003016000815481106132d257fe5b9060005260206000200154856131d8565b90505b600282015460045467ffffffffffffffff90911610801561332d5750600282015460048054879267ffffffffffffffff1690811061332057fe5b9060005260206000200154145b15613419576004805460009190600019810190811061334857fe5b6000918252602090912001546002840154600480549293508392909167ffffffffffffffff1690811061337757fe5b600091825260209091200155600480548061338e57fe5b60008281526020808220830160001990810183905590920190925560028086015484845260039092526040909220909101805467ffffffffffffffff191667ffffffffffffffff9283161790558590811180156133ea57600080fd5b50604051908082528060200260200182016040528015613414578160200160208202803683370190505b509150505b60008581526003602052604090206004015481516001600160a01b03909116908290600019870190811061344957fe5b6001600160a01b03909216602092830291909101820152600086815260039182905260408120818155600181018290556002810180547fffffffffffffffff00000000000000000000000000000000000000000000000016815592810182905560048101805473ffffffffffffffffffffffffffffffffffffffff1916905591816134d7600585018261403b565b5092979650505050505050565b60038301548214156134f557611540565b600383018290556002830180546fffffffffffffffff00000000000000001916600160401b67ffffffffffffffff84160217905560058301546001141561154057611540600360008560020160030160008154811061355057fe5b9060005260206000200154815260200190815260200160002083836134e4565b606061357b82611dda565b61358457600080fd5b600061358f83613c45565b905060008167ffffffffffffffff811180156135aa57600080fd5b506040519080825280602002602001820160405280156135e457816020015b6135d1613f88565b8152602001906001900390816135c95790505b50905060006135f68560200151611e14565b60208601510190506000805b8481101561364d5761361383611e77565b915060405180604001604052808381526020018481525084828151811061363657fe5b602090810291909101015291810191600101613602565b509195945050505050565b60606000825160020267ffffffffffffffff8111801561367757600080fd5b506040519080825280601f01601f1916602001820160405280156136a2576020820181803683370190505b50905060005b815181101561167d576136bb8185613c94565b8282815181106136c757fe5b60200101906001600160f81b031916908160001a9053506001016136a8565b60008060006136f486613cf1565b90506000815167ffffffffffffffff8111801561371057600080fd5b506040519080825280601f01601f19166020018201604052801561373b576020820181803683370190505b509050845b8251860181101561379557600087828151811061375957fe5b602001015160f81c60f81b905080838884038151811061377557fe5b60200101906001600160f81b031916908160001a90535050600101613740565b508080519060200120828051906020012014156137b557815192506137ba565b600092505b509095945050505050565b6000805b826060015160a0015151811015611fd7576000836060015160a0015182815181106137f057fe5b60200260200101519050846040015181141561381157600192505050611c74565b506001016137c9565b613822614059565b61382a614059565b6000613838610d4e856112de565b905060005b6138468261134d565b156139cf57806138635761385c611fb683611362565b83526139c7565b806001141561388257613878611fb683611362565b60208401526139c7565b80600314156138a157613897611fb683611362565b60408401526139c7565b80600414156138c0576138b6611fb683611362565b60608401526139c7565b80600514156138df576138d5611fb683611362565b60808401526139c7565b80600714156138ff576138f4611fb683611362565b6101608401526139c7565b806008141561391e57613914611fb683611362565b60a08401526139c7565b806009141561393d57613933611fb683611362565b60c08401526139c7565b80600a141561395c57613952611fb683611362565b60e08401526139c7565b80600b141561397c57613971611fb683611362565b6101208401526139c7565b80600c141561399c57613991610d7283611362565b6101808401526139c7565b80600e14156139bc576139b1611fb683611362565b6101408401526139c7565b6139c582611362565b505b60010161383d565b50909392505050565b6000602060ff168361018001515111156139f457506003611c74565b61012083015142600f011015613a0c57506005611c74565b677fffffffffffffff8360c001511115613a2857506008611c74565b60c08301516113881115613a3e57506009611c74565b60045415613ac4578260a001518260a0015160010114613a6057506004611c74565b82610120015182610120015110613a7957506006611c74565b6000613a8a83856101200151613e57565b90508361016001518114613aa2576007915050611c74565b613ab48460c001518460c00151613f56565b613ac257600a915050611c74565b505b8260c001518360e001511115613adc5750600b611c74565b50600092915050565b60606000825184510167ffffffffffffffff81118015613b0457600080fd5b50604051908082528060200260200182016040528015613b2e578160200160208202803683370190505b50905060005b8451811015613b7d57848181518110613b4957fe5b6020026020010151828281518110613b5d57fe5b6001600160a01b0390921660209283029190910190910152600101613b34565b60005b8451811015613bcd57848181518110613b9557fe5b6020026020010151838381518110613ba957fe5b6001600160a01b039092166020928302919091019091015260019182019101613b80565b5090949350505050565b60608251828551031015613bea57600080fd5b8160005b8451811015613c3b57848181518110613c0357fe5b6020026020010151868381518110613c1757fe5b6001600160a01b039092166020928302919091019091015260019182019101613bee565b5093949350505050565b8051600090613c5657506000611003565b600080613c668460200151611e14565b602085015185519181019250015b808210156139cf57613c8582611e77565b60019093019290910190613c74565b60006002830615613cc5576010826002850481518110613cb057fe5b016020015160f81c81613cbf57fe5b06613ce7565b6010826002850481518110613cd657fe5b016020015160f81c81613ce557fe5b045b60f81b9392505050565b606080600083511115611c7457600080613d0c600086613c94565b60f81c90506001811480613d2357508060ff166003145b15613db257600185516002020367ffffffffffffffff81118015613d4657600080fd5b506040519080825280601f01601f191660200182016040528015613d71576020820181803683370190505b5092506000613d81600187613c94565b90508084600081518110613d9157fe5b60200101906001600160f81b031916908160001a9053506001925050613e03565b600285516002020367ffffffffffffffff81118015613dd057600080fd5b506040519080825280601f01601f191660200182016040528015613dfb576020820181803683370190505b509250600091505b60ff82165b8351811015613e4e57613e238360ff16820360020187613c94565b848281518110613e2f57fe5b60200101906001600160f81b031916908160001a905350600101613e08565b50505092915050565b6000806009846101200151840381613e6b57fe5b0490507f1dcc4de8dec75d7aab85b567b6ccd41ad312451b948a7413f0a142fd40d4934784602001511415613ea257600103613ea6565b6002035b606219811215613eb557506062195b8061080085610160015181613ec657fe5b050284610160015101905062020000811215613ee25750620200005b6000624c4b3f905062d228c88560a0015160010110613f05575062a344df613f1c565b628c61808560a0015160010110613f1c57506289543f5b6000818660a0015110613f3357818660a001510390505b620186a08104600181111561364d576002810360020a8401945050505050611c74565b600080610400600784900b0590508284036000600782900b1215613f78576000035b600791820b910b13159392505050565b604051806040016040528060008152602001600081525090565b6040518060400160405280613fb5613f88565b8152602001600081525090565b604080516080810182526000808252602082018190529181019190915260608101613feb6140c7565b905290565b82805482825590600052602060002090810192821561402b579160200282015b8281111561402b578251825591602001919060010190614010565b506140379291506140fe565b5090565b5080546000825590600052602060002090810190610e9291906140fe565b604080516101a08101825260008082526020820181905291810182905260608082018390526080820183905260a0820183905260c0820183905260e0820183905261010082018390526101208201839052610140820183905261016082019290925261018081019190915290565b6040805160c0810182526000808252602082018190529181018290526060808201839052608082019290925260a081019190915290565b5b8082111561403757600081556001016140ff565b60008085851115614122578182fd5b8386111561412e578182fd5b505082019391909203915056fe626c6f636b206973206e6f742070617274206f6620746865206c6f6e6765737420506f5720636861696e626c6f636b206973206c6f636b6564206f72206e6f7420636f6e6669726d656420627920656e6f75676820626c6f636b737472616e7366657220616d6f756e74206e6f7420657175616c20746f2066756e6374696f6e20706172616d6574657273746f72656420706172656e74206973206e6f742061207072656465636573736f72206f662073746f726564206865616465722077697468696e2045746872656c617970726f766964656420666565206973206c657373207468616e20657870656374656420666565616d6f756e7420686967686572207468616e206465706f7369746564207374616b6570726f766964656420686561646572277320706172656e7420646f6573206e6f74206d6174636820776974682070726f766964656420706172656e74272068617368a2646970667358221220d96431be229ddc0ad09c87dd61d76fadb2a2a2e309462ab6d8125f5c4f1ea62864736f6c63430007060033",
  "immutableReferences": {},
  "source": "// SPDX-License-Identifier: MIT\n// pragma solidity >=0.7.0 <0.9.0;\npragma solidity =0.7.6;\n\nimport \"./EthrelayCore.sol\";\nimport \"./RLPReader.sol\";\n\n/// @title Ethrelay: A contract enabling cross-blockchain verifications (transactions, receipts, states)\n/// @author Marten Sigwart, Philipp Frauenthaler, Leonhard Esterbauer, Markus Levonyak\n/// @notice You can use this contract for submitting new block headers, disputing already submitted block headers, and\n///         for verifying Merkle Patricia proofs (transactions, receipts, states).\n/// @dev    This contract uses the EthrelayCore contract and extends it with an incentive structure.\ncontract Ethrelay is EthrelayCore {\n\n    using RLPReader for *;\n    uint constant REQUIRED_STAKE_PER_BLOCK = 1 ether;\n    uint constant REQUIRED_VERIFICATION_FEE_IN_WEI = 0.1 ether;\n    uint8 constant VERIFICATION_TYPE_TX = 1;\n    uint8 constant VERIFICATION_TYPE_RECEIPT = 2;\n    uint8 constant VERIFICATION_TYPE_STATE = 3;\n\n    mapping(address => bytes32[]) blocksSubmittedByClient;\n    mapping(address => uint) clientStake;\n\n    // The contract is initialized with block 8084509 and the total difficulty of that same block.\n    // The contract creator needs to make sure that these values represent a valid block of the tracked blockchain.\n    constructor(bytes memory _rlpHeader, uint totalDifficulty, address _ethashContractAddr) EthrelayCore(_rlpHeader, totalDifficulty, _ethashContractAddr) {}\n\n    /// @dev Deposits stake for a client allowing the client to submit block headers.\n    function depositStake(uint amount) payable public {\n        require(amount == msg.value, \"transfer amount not equal to function parameter\");\n        clientStake[msg.sender] = clientStake[msg.sender] + msg.value;\n    }\n\n    event WithdrawStake(address client, uint withdrawnStake);\n    /// @dev Withdraws the stake of a client. The stake is reduced by the specified amount. Emits an event WithdrawStake\n    ///      containing the client's address and the amount of withdrawn stake.\n    function withdrawStake(uint amount) public {\n        // if participant has not emitted amount stake we can for sure revert\n        require(clientStake[msg.sender] >= amount, \"amount higher than deposited stake\");\n\n        // else we check the unlocked stake and if enough stake is available we simply withdraw amount\n        if (getUnusedStake(msg.sender) >= amount) {\n            withdraw(payable(msg.sender), amount);\n            emit WithdrawStake(msg.sender, amount);\n            return;\n        }\n\n        // no enough free stake -> try to clean up array (search for stakes used by blocks that have already passed the lock period)\n        cleanSubmitList(msg.sender);\n\n        // if less than amount is available, we simply withdraw 0, so the client can distinguish\n        // between the case a participant doesn't event hold amount stake or it is simply locked\n        if (getUnusedStake(msg.sender) >= amount) {\n            withdraw(payable(msg.sender), amount);\n            emit WithdrawStake(msg.sender, amount);\n            return;\n        }\n\n        emit WithdrawStake(msg.sender, 0);\n    }\n\n    function getStake() public view returns (uint) {\n        return clientStake[msg.sender];\n    }\n\n    function getRequiredStakePerBlock() public pure returns (uint) {\n        return REQUIRED_STAKE_PER_BLOCK;\n    }\n\n    function getRequiredVerificationFee() public pure returns (uint) {\n        return REQUIRED_VERIFICATION_FEE_IN_WEI;\n    }\n\n    function getBlockHashesSubmittedByClient() public view returns (bytes32[] memory) {\n        return blocksSubmittedByClient[msg.sender];\n    }\n\n    function submitBlock(bytes memory rlpHeader) public {\n        // client must have enough stake to be able to submit blocks\n        if (getUnusedStake(msg.sender) < REQUIRED_STAKE_PER_BLOCK) {\n            // client has not enough unused stake -> check whether some of the blocks submitted by the client have left the lock period\n            cleanSubmitList(msg.sender);\n            // emit the 0x00 hash - what if this hash is really calculated? it is very very unlikely, but it is not safe\n            // - should be rather safe as the mapping for headers has 0 for not present and if we don't assume this, the whole contract would be unnecessary\n            // another way is to create a special error event and emmit an specific error code after cleanSubmitList that indicates the error\n            // additionally, one could replace this with a require, but require reverts the state and participants have to pay fees for\n            // cleanSubmitList every time#\n            if (getUnusedStake(msg.sender) < REQUIRED_STAKE_PER_BLOCK) {\n                // not enough unused stake -> abort\n                emit NewBlock(0);\n                return;\n            }\n        }\n\n        // client has enough stake -> submit header and add its hash to the client's list of submitted block headers\n        bytes32 blockHash = submitHeader(rlpHeader, msg.sender);\n\n        blocksSubmittedByClient[msg.sender].push(blockHash);\n\n        // submit hash - indicate that the block with this hash was submitted, helpful for searching the blockchain\n        // for infos like rlp header needed for disputing a block\n        emit NewBlock(blockHash);\n    }\n\n    // here, the same parallel problems like with single submitBlock in EthrelayCore occur: if there are two participants submitting\n    // at the same time, only one is being accepted and the other one is rejected resulting in high gas costs especially\n    // if the bytes memory _rlpHeaders param is quite big\n    function submitBlockBatch(bytes memory _rlpHeaders) public {\n        RLPReader.Iterator memory it = _rlpHeaders.toRlpItem().iterator();\n\n        while(it.hasNext()) {\n            bytes memory rlpHeader = it.next().toBytes();\n            submitBlock(rlpHeader);\n        }\n    }\n\n    function disputeBlockHeader(bytes calldata rlpHeader, bytes memory rlpParent, uint[] memory dataSetLookup, uint[] memory witnessForLookup) public {\n        address[] memory submittersToPunish = disputeBlock(rlpHeader, rlpParent, dataSetLookup, witnessForLookup);\n\n        // if the PoW validation initiated by the dispute function was successful (i.e., the block is legal),\n        // submittersToPunish will be empty and no further action will be carried out.\n        uint collectedStake = 0;\n\n        for (uint i = 0; i < submittersToPunish.length; i++) {\n            address client = submittersToPunish[i];\n            clientStake[client] = clientStake[client] - REQUIRED_STAKE_PER_BLOCK;\n            collectedStake += REQUIRED_STAKE_PER_BLOCK;\n        }\n\n        // client that triggered the dispute receives the collected stake\n        clientStake[msg.sender] += collectedStake;\n    }\n\n    function verify(uint8 verificationType, uint feeInWei, bytes memory rlpHeader, uint8 noOfConfirmations, bytes memory rlpEncodedValue,\n        bytes memory path, bytes memory rlpEncodedNodes) private returns (uint8) {\n\n        require(feeInWei == msg.value, \"transfer amount not equal to function parameter\");\n        require(feeInWei >= REQUIRED_VERIFICATION_FEE_IN_WEI, \"provided fee is less than expected fee\");\n\n        bytes32 blockHash = keccak256(rlpHeader);\n        uint8 result;\n\n        if (verificationType == VERIFICATION_TYPE_TX) {\n            result = verifyMerkleProof(blockHash, noOfConfirmations, rlpEncodedValue, path, rlpEncodedNodes, getTxRoot(rlpHeader));\n        } else if (verificationType == VERIFICATION_TYPE_RECEIPT) {\n            result = verifyMerkleProof(blockHash, noOfConfirmations, rlpEncodedValue, path, rlpEncodedNodes, getReceiptsRoot(rlpHeader));\n        } else if (verificationType == VERIFICATION_TYPE_STATE) {\n            result = verifyMerkleProof(blockHash, noOfConfirmations, rlpEncodedValue, path, rlpEncodedNodes, getStateRoot(rlpHeader));\n        } else {\n            revert(\"Unknown verification type\");\n        }\n\n        // send fee to block submitter\n        // (, , , , , address submitter) = getHeaderMetaInfo(blockHash);\n\n        // address payable submitterAddr = payable(address(uint160(submitter)));\n\n        // submitterAddr.transfer(feeInWei);\n\n        return result;\n    }\n\n    event VerifyTransaction(uint8 result);\n    /// @dev Verifies if a transaction is included in the given block's transactions Merkle Patricia trie\n    /// @param feeInWei the fee that is payed for the verification and must be equal to VERIFICATION_FEE_IN_WEI.\n    /// @param rlpHeader the rlp encoded header that contains the Merkle root hash\n    /// @param noOfConfirmations the required number of succeeding blocks needed for a block to be considered as confirmed\n    /// @param rlpEncodedTx the transaction of the Merkle Patricia trie in RLP format\n    /// @param path the path (key) in the trie indicating the way starting at the root node and ending at the transaction\n    /// @param rlpEncodedNodes an RLP encoded list of nodes of the Merkle branch, first element is the root node, last element the transaction\n    /// @return 0: verification was successful\n    ///         1: block is confirmed and unlocked, but the Merkle proof was invalid\n    function verifyTransaction(uint feeInWei, bytes memory rlpHeader, uint8 noOfConfirmations, bytes memory rlpEncodedTx,\n        bytes memory path, bytes memory rlpEncodedNodes) payable public returns (uint8) {\n\n        uint8 result = verify(VERIFICATION_TYPE_TX, feeInWei, rlpHeader, noOfConfirmations, rlpEncodedTx, path, rlpEncodedNodes);\n\n        emit VerifyTransaction(result);\n\n        return result;\n    }\n\n    event VerifyReceipt(uint8 result);\n    /// @dev Verifies if a receipt is included in the given block's receipts Merkle Patricia trie\n    /// @param feeInWei the fee that is payed for the verification and must be equal to VERIFICATION_FEE_IN_WEI.\n    /// @param rlpHeader the rlp encoded header that contains the Merkle root hash\n    /// @param noOfConfirmations the required number of succeeding blocks needed for a block to be considered as confirmed\n    /// @param rlpEncodedReceipt the receipt of the Merkle Patricia trie in RLP format\n    /// @param path the path (key) in the trie indicating the way starting at the root node and ending at the receipt\n    /// @param rlpEncodedNodes an RLP encoded list of nodes of the Merkle branch, first element is the root node, last element the receipt\n    /// @return 0: verification was successful\n    ///         1: block is confirmed and unlocked, but the Merkle proof was invalid\n    function verifyReceipt(uint feeInWei, bytes memory rlpHeader, uint8 noOfConfirmations, bytes memory rlpEncodedReceipt,\n        bytes memory path, bytes memory rlpEncodedNodes) payable public returns (uint8) {\n\n        uint8 result = verify(VERIFICATION_TYPE_RECEIPT, feeInWei, rlpHeader, noOfConfirmations, rlpEncodedReceipt, path, rlpEncodedNodes);\n\n        emit VerifyReceipt(result);\n\n        return result;\n    }\n\n    event VerifyState(uint8 result);\n    /// @dev   Verifies if a node is included in the given block's state Merkle Patricia trie\n    /// @param feeInWei the fee that is payed for the verification and must be equal to VERIFICATION_FEE_IN_WEI.\n    /// @param rlpHeader the rlp encoded header that contains the Merkle root hash\n    /// @param noOfConfirmations the required number of succeeding blocks needed for a block to be considered as confirmed\n    /// @param rlpEncodedState the node of the Merkle Patricia trie in RLP format\n    /// @param path the path (key) in the trie indicating the way starting at the root node and ending at the node\n    /// @param rlpEncodedNodes an RLP encoded list of nodes of the Merkle branch, first element is the root node, last element a state node\n    /// @return 0: verification was successful\n    ///         1: block is confirmed and unlocked, but the Merkle proof was invalid\n    function verifyState(uint feeInWei, bytes memory rlpHeader, uint8 noOfConfirmations, bytes memory rlpEncodedState,\n        bytes memory path, bytes memory rlpEncodedNodes) payable public returns (uint8) {\n\n        uint8 result = verify(VERIFICATION_TYPE_STATE, feeInWei, rlpHeader, noOfConfirmations, rlpEncodedState, path, rlpEncodedNodes);\n\n        emit VerifyState(result);\n\n        return result;\n    }\n\n    function isBlockConfirmed(uint feeInWei, bytes32 blockHash, uint8 noOfConfirmations) public payable returns (bool) {\n        require(feeInWei == msg.value, \"transfer amount not equal to function parameter\");\n        require(feeInWei >= REQUIRED_VERIFICATION_FEE_IN_WEI, \"provided fee is less than expected fee\");\n\n        return isBlockConfirmed(blockHash, noOfConfirmations);\n    }\n\n    /// @dev Calculates the fraction of the provided stake that is not used by any of the blocks in the client's list of\n    ///      submitted block headers (blocksSubmittedByClient). It does not matter whether a block's lock period has already\n    ///      been elapsed. As long as the block is referenced in blocksSubmittedByClient, the stake is considered as \"used\".\n    function getUnusedStake(address client) private view returns (uint) {\n        uint usedStake = blocksSubmittedByClient[client].length * REQUIRED_STAKE_PER_BLOCK;\n\n        if (clientStake[client] < usedStake) {\n            // if a client get punished due to a dispute the clientStake[client] can be less than\n            // blocksSubmittedByClient[client].length * REQUIRED_STAKE_PER_BLOCK, since clientStake[client] is deducted\n            // after the dispute, but blocksSubmittedByClient[client] remains unaffected (i.e., it is not cleared)\n            return 0;\n        } else {\n            return clientStake[client] - usedStake;\n        }\n    }\n\n    // take care of cleanSubmitList, maybe more gas than estimated is needed: e.g. if the time from estimating the gas costs\n    // on the local machine to running the code on a node takes so long that a new block is unlocked in this time and can be\n    // freed by this procedure, then gas-estimation from before is too less and an out of gas exception occur, this can easily\n    // be the case if two blocks are directly relayed and submitted by the same person having less time between the submits\n    // as the time from estimation to running the code lasts\n\n    /// @dev Checks for each block referenced in blocksSubmittedByClient whether it is unlocked. In case a referenced\n    ///      block's lock period has expired, its reference is removed from the list blocksSubmittedByClient.\n    function cleanSubmitList(address client) private returns (uint) {\n        uint deletedElements = 0;\n\n        // this is very unpredictable as we relay on the \"now\" value in isUnlocked\n        // and \"now\" relies on the timestamp a block is being mined\n        // so imagine one submits blocks all the time and we don't know exactly when\n        // we execute cleanSubmitList, if one is creating the contract from a genesis\n        // block in the past, the contract has to catch up all the blocks until now\n        // for this, one has to submit all the blocks either in batchMode so all blocks\n        // are submitted at the exact same timestamp, which may run out of gas submitting\n        // many blocks, so one may submit the blocks one by one or in batches, if we do this\n        // we get some blocks with different lockedTimes laying directly side by side in the\n        // blocksSubmittedByClient-list, in this case it can happen, that a client tries to\n        // submit a block, the client estimates the gas at timestamp t where x blocks are locked,\n        // the client uses f gas, after submitting the transaction, it is not guaranteed when\n        // the transaction is included, it can happen, that at timestamp t + 1  where x + 1\n        // blocks are unlocked, the gas consumption is much higher as we clear 1 additional block\n        // and the transaction run out of gas\n        // one possible workaround is to pass the time-parameter directly with the actions\n        // using cleanSubmitList like withdrawStake and submitBlock, after the contract\n        // checks if the date is in the past, the contract can free exactly as many blocks\n        // as the client requires\n        // another is to pass much more gas to the client, which as actually the simplest solution\n        // additionally, we may re-implement this with a queue containing only uint16 values that\n        // save the timestamps and unlock the blocks one by one to not run through the whole array\n        // but that may only be a small improvement if any\n        // for the default usage this is very unlikely, but can happen for sure if the client submits\n        // a block, has too less stake deposited, estimates the gas and exactly at this point in time,\n        // an old block is unlocked and at the estimation timestamp the client assumed there will be\n        // less blocks too free if not even an exception and a rollback that does cost less than the\n        // two described cases\n        for (uint i = 0; i < blocksSubmittedByClient[client].length;) {\n            bytes32 blockHash = blocksSubmittedByClient[client][i];\n\n            if (!isHeaderStored(blockHash) || isUnlocked(blockHash)) {\n                // block has been removed or is already unlocked (i.e., lock period has elapsed) -> remove hash from array\n                uint lastElemPos = blocksSubmittedByClient[client].length - 1;\n                // copy last element to position i (overwrite current elem)\n                blocksSubmittedByClient[client][i] = blocksSubmittedByClient[client][lastElemPos];\n                // remove last element\n                blocksSubmittedByClient[client].pop();\n                deletedElements += 1;\n                // i is not increased, since we copied the last element to position i (otherwise the copied element would not be checked)\n            } else {\n                // nothing changed -> increase i and check next element\n                i++;\n            }\n        }\n\n        return deletedElements;\n    }\n\n    function withdraw(address payable receiver, uint amount) private {\n        clientStake[receiver] = clientStake[receiver] - amount;\n        receiver.transfer(amount);\n    }\n}\n",
  "sourcePath": "/Users/hua/Codes/block-chain/uniswap-o/v3-core/contracts/Ethrelay.sol",
  "compiler": {
    "name": "solc",
    "version": "0.7.6+commit.7338295f.Emscripten.clang"
  },
  "schemaVersion": "3.4.8",
  "updatedAt": "2023-01-24T20:40:57.742Z",
  "devdoc": {
    "author": "Marten Sigwart, Philipp Frauenthaler, Leonhard Esterbauer, Markus Levonyak",
    "details": "This contract uses the EthrelayCore contract and extends it with an incentive structure.",
    "kind": "dev",
    "methods": {
      "depositStake(uint256)": {
        "details": "Deposits stake for a client allowing the client to submit block headers."
      },
      "verifyReceipt(uint256,bytes,uint8,bytes,bytes,bytes)": {
        "details": "Verifies if a receipt is included in the given block's receipts Merkle Patricia trie",
        "params": {
          "feeInWei": "the fee that is payed for the verification and must be equal to VERIFICATION_FEE_IN_WEI.",
          "noOfConfirmations": "the required number of succeeding blocks needed for a block to be considered as confirmed",
          "path": "the path (key) in the trie indicating the way starting at the root node and ending at the receipt",
          "rlpEncodedNodes": "an RLP encoded list of nodes of the Merkle branch, first element is the root node, last element the receipt",
          "rlpEncodedReceipt": "the receipt of the Merkle Patricia trie in RLP format",
          "rlpHeader": "the rlp encoded header that contains the Merkle root hash"
        },
        "returns": {
          "_0": "0: verification was successful         1: block is confirmed and unlocked, but the Merkle proof was invalid"
        }
      },
      "verifyState(uint256,bytes,uint8,bytes,bytes,bytes)": {
        "details": "Verifies if a node is included in the given block's state Merkle Patricia trie",
        "params": {
          "feeInWei": "the fee that is payed for the verification and must be equal to VERIFICATION_FEE_IN_WEI.",
          "noOfConfirmations": "the required number of succeeding blocks needed for a block to be considered as confirmed",
          "path": "the path (key) in the trie indicating the way starting at the root node and ending at the node",
          "rlpEncodedNodes": "an RLP encoded list of nodes of the Merkle branch, first element is the root node, last element a state node",
          "rlpEncodedState": "the node of the Merkle Patricia trie in RLP format",
          "rlpHeader": "the rlp encoded header that contains the Merkle root hash"
        },
        "returns": {
          "_0": "0: verification was successful         1: block is confirmed and unlocked, but the Merkle proof was invalid"
        }
      },
      "verifyTransaction(uint256,bytes,uint8,bytes,bytes,bytes)": {
        "details": "Verifies if a transaction is included in the given block's transactions Merkle Patricia trie",
        "params": {
          "feeInWei": "the fee that is payed for the verification and must be equal to VERIFICATION_FEE_IN_WEI.",
          "noOfConfirmations": "the required number of succeeding blocks needed for a block to be considered as confirmed",
          "path": "the path (key) in the trie indicating the way starting at the root node and ending at the transaction",
          "rlpEncodedNodes": "an RLP encoded list of nodes of the Merkle branch, first element is the root node, last element the transaction",
          "rlpEncodedTx": "the transaction of the Merkle Patricia trie in RLP format",
          "rlpHeader": "the rlp encoded header that contains the Merkle root hash"
        },
        "returns": {
          "_0": "0: verification was successful         1: block is confirmed and unlocked, but the Merkle proof was invalid"
        }
      },
      "withdrawStake(uint256)": {
        "details": "Withdraws the stake of a client. The stake is reduced by the specified amount. Emits an event WithdrawStake      containing the client's address and the amount of withdrawn stake."
      }
    },
    "title": "Ethrelay: A contract enabling cross-blockchain verifications (transactions, receipts, states)",
    "version": 1
  },
  "userdoc": {
    "kind": "user",
    "methods": {},
    "notice": "You can use this contract for submitting new block headers, disputing already submitted block headers, and         for verifying Merkle Patricia proofs (transactions, receipts, states).",
    "version": 1
  }
}