{
  "contractName": "MockTimeUniswapV3PoolDeployer",
  "abi": [
    {
      "anonymous": false,
      "inputs": [
        {
          "indexed": false,
          "internalType": "address",
          "name": "pool",
          "type": "address"
        }
      ],
      "name": "PoolDeployed",
      "type": "event"
    },
    {
      "inputs": [],
      "name": "parameters",
      "outputs": [
        {
          "internalType": "address",
          "name": "factory",
          "type": "address"
        },
        {
          "internalType": "address",
          "name": "token0",
          "type": "address"
        },
        {
          "internalType": "address",
          "name": "token1",
          "type": "address"
        },
        {
          "internalType": "uint24",
          "name": "fee",
          "type": "uint24"
        },
        {
          "internalType": "int24",
          "name": "tickSpacing",
          "type": "int24"
        }
      ],
      "stateMutability": "view",
      "type": "function"
    },
    {
      "inputs": [
        {
          "internalType": "address",
          "name": "factory",
          "type": "address"
        },
        {
          "internalType": "address",
          "name": "token0",
          "type": "address"
        },
        {
          "internalType": "address",
          "name": "token1",
          "type": "address"
        },
        {
          "internalType": "uint24",
          "name": "fee",
          "type": "uint24"
        },
        {
          "internalType": "int24",
          "name": "tickSpacing",
          "type": "int24"
        }
      ],
      "name": "deploy",
      "outputs": [
        {
          "internalType": "address",
          "name": "pool",
          "type": "address"
        }
      ],
      "stateMutability": "nonpayable",
      "type": "function"
    }
  ],
  "bytecode": "0x608060405234801561001057600080fd5b50615a3a806100206000396000f3fe608060405234801561001057600080fd5b50600436106100365760003560e01c8063890357301461003b578063fad5359f14610085575b600080fd5b6100436100eb565b604080516001600160a01b0396871681529486166020860152929094168383015262ffffff16606083015260029290920b608082015290519081900360a00190f35b6100cf600480360360a081101561009b57600080fd5b506001600160a01b03813581169160208101358216916040820135169062ffffff606082013516906080013560020b610121565b604080516001600160a01b039092168252519081900360200190f35b600054600154600280546001600160a01b03938416939283169281169162ffffff600160a01b83041691600160b81b9004900b85565b6040805160a0810182526001600160a01b03878116808352878216602080850182905292881684860181905262ffffff888116606080880182905260028a810b60809099018990526000805473ffffffffffffffffffffffffffffffffffffffff19908116909817815560018054891690971790965580549096169093177fffffffffffffffffff000000ffffffffffffffffffffffffffffffffffffffff16600160a01b909102177fffffffffffff000000ffffffffffffffffffffffffffffffffffffffffffffff16600160b81b87860b9092169190910217909255845189831b6bffffffffffffffffffffffff19908116828601529289901b909216603483015260e887811b7fffffff00000000000000000000000000000000000000000000000000000000001660488401529390931b604b8201528351808203602e018152604e909101938490528051910120909161027d90610338565b8190604051809103906000f590508015801561029d573d6000803e3d6000fd5b50604080516001600160a01b038316815290519192507ff0d1eeab175eee2e20b8dc452773bf2257b25724b323b42bc6e5b4616233ae1f919081900360200190a16000805473ffffffffffffffffffffffffffffffffffffffff19908116909155600180549091169055600280547fffffffffffff000000000000000000000000000000000000000000000000000016905595945050505050565b6156bf806103468339019056fe610160604052635f7b26e062010009553480156200001c57600080fd5b503060601b60805260408051630890357360e41b81529051600091339163890357309160048082019260a092909190829003018186803b1580156200006057600080fd5b505afa15801562000075573d6000803e3d6000fd5b505050506040513d60a08110156200008c57600080fd5b508051602080830151604084015160608086015160809096015160e896871b6001600160e81b0319166101005291811b6001600160601b031990811660e05292811b831660c0529390931b1660a052600282810b900b90921b6101205291506200010190829062000119811b6200248017901c565b60801b6001600160801b031916610140525062000187565b60008082600281900b620d89e719816200012f57fe5b05029050600083600281900b620d89e8816200014757fe5b0502905060008460020b83830360020b816200015f57fe5b0560010190508062ffffff166001600160801b038016816200017d57fe5b0495945050505050565b60805160601c60a05160601c60c05160601c60e05160601c6101005160e81c6101205160e81c6101405160801c61547f6200024060003980611f2352806148eb5280614922525080610cfa52806121ef52806149565280614988525080610de95280611b1a5280611b51528061223c5250806112c15280611bd45280612213528061375352806139d25250806109cc52806113ef5280611ba3528061360a52806139955250806121cb5250806124f7525061547f6000f3fe6080604052600436106101ac5760003560e01c8063514ea4bf116100ec578063d21220a71161008a578063f305839911610064578063f3058399146108bc578063f30dba93146108d1578063f637731d14610960578063f6eb760f14610993576101ac565b8063d21220a714610850578063d380c67914610865578063ddca3f431461088f576101ac565b8063883bdbfd116100c6578063883bdbfd14610691578063a38807f2146107a7578063c45a01551461080f578063d0c93a7c14610824576101ac565b8063514ea4bf146105e95780635339c2961461064f57806370cf754a1461067c576101ac565b80631ad8b03b116101595780633850c7bd116101335780633850c7bd146104265780633c8a7d8d1461048c578063461413191461053b578063490e6cbc14610550576101ac565b80631ad8b03b14610350578063252c09d71461039457806332148f67146103f8576101ac565b806313ee0ea61161018a57806313ee0ea6146102ca57806316ada547146102f85780631a6865021461031f576101ac565b806307e32f0a146101b15780630dfe1681146101dd578063128acb081461020e575b600080fd5b3480156101bd57600080fd5b506101db600480360360208110156101d457600080fd5b50356109bd565b005b3480156101e957600080fd5b506101f26109ca565b604080516001600160a01b039092168252519081900360200190f35b34801561021a57600080fd5b506102b1600480360360a081101561023157600080fd5b6001600160a01b0382358116926020810135151592604082013592606083013516919081019060a08101608082013564010000000081111561027257600080fd5b82018360208201111561028457600080fd5b803590602001918460018302840111640100000000831117156102a657600080fd5b5090925090506109ee565b6040805192835260208301919091528051918290030190f35b6101db600480360360608110156102e057600080fd5b508035906020810135906040013562ffffff166115a7565b34801561030457600080fd5b5061030d6115f4565b60408051918252519081900360200190f35b34801561032b57600080fd5b506103346115fc565b604080516001600160801b039092168252519081900360200190f35b34801561035c57600080fd5b5061036561160b565b60405180836001600160801b03168152602001826001600160801b031681526020019250505060405180910390f35b3480156103a057600080fd5b506103be600480360360208110156103b757600080fd5b5035611625565b6040805163ffffffff909516855260069390930b60208501526001600160a01b039091168383015215156060830152519081900360800190f35b34801561040457600080fd5b506101db6004803603602081101561041b57600080fd5b503561ffff1661166b565b34801561043257600080fd5b5061043b611765565b604080516001600160a01b03909816885260029690960b602088015261ffff9485168787015292841660608701529216608085015260ff90911660a0840152151560c0830152519081900360e00190f35b34801561049857600080fd5b506102b1600480360360a08110156104af57600080fd5b6001600160a01b03823516916020810135600290810b92604083013590910b916001600160801b036060820135169181019060a0810160808201356401000000008111156104fc57600080fd5b82018360208201111561050e57600080fd5b8035906020019184600183028401116401000000008311171561053057600080fd5b5090925090506117b5565b34801561054757600080fd5b5061030d611a71565b34801561055c57600080fd5b506101db6004803603608081101561057357600080fd5b6001600160a01b0382351691602081013591604082013591908101906080810160608201356401000000008111156105aa57600080fd5b8201836020820111156105bc57600080fd5b803590602001918460018302840111640100000000831117156105de57600080fd5b509092509050611a77565b3480156105f557600080fd5b506106136004803603602081101561060c57600080fd5b5035611ed2565b604080516001600160801b0396871681526020810195909552848101939093529084166060840152909216608082015290519081900360a00190f35b34801561065b57600080fd5b5061030d6004803603602081101561067257600080fd5b503560010b611f0f565b34801561068857600080fd5b50610334611f21565b34801561069d57600080fd5b5061070e600480360360208110156106b457600080fd5b8101906020810181356401000000008111156106cf57600080fd5b8201836020820111156106e157600080fd5b8035906020019184602083028401116401000000008311171561070357600080fd5b509092509050611f45565b604051808060200180602001838103835285818151815260200191508051906020019060200280838360005b8381101561075257818101518382015260200161073a565b50505050905001838103825284818151815260200191508051906020019060200280838360005b83811015610791578181015183820152602001610779565b5050505090500194505050505060405180910390f35b3480156107b357600080fd5b506107de600480360360408110156107ca57600080fd5b508035600290810b9160200135900b611fd2565b6040805160069490940b84526001600160a01b03909216602084015263ffffffff1682820152519081900360600190f35b34801561081b57600080fd5b506101f26121c9565b34801561083057600080fd5b506108396121ed565b6040805160029290920b8252519081900360200190f35b34801561085c57600080fd5b506101f2612211565b34801561087157600080fd5b506101db6004803603602081101561088857600080fd5b5035612235565b34801561089b57600080fd5b506108a461223a565b6040805162ffffff9092168252519081900360200190f35b3480156108c857600080fd5b5061030d61225e565b3480156108dd57600080fd5b506108fe600480360360208110156108f457600080fd5b503560020b612264565b604080516001600160801b039099168952600f9790970b602089015287870195909552606087019390935260069190910b60808601526001600160a01b031660a085015263ffffffff1660c0840152151560e083015251908190036101000190f35b34801561096c57600080fd5b506101db6004803603602081101561098357600080fd5b50356001600160a01b03166122d2565b34801561099f57600080fd5b506101db600480360360208110156109b657600080fd5b503561247b565b6201000980549091019055565b7f000000000000000000000000000000000000000000000000000000000000000081565b6000806109f96124ec565b85610a30576040805162461bcd60e51b8152602060048201526002602482015261415360f01b604482015290519081900360640190fd5b6040805160e0810182526000546001600160a01b0381168252600160a01b8104600290810b810b900b602083015261ffff600160b81b8204811693830193909352600160c81b810483166060830152600160d81b8104909216608082015260ff600160e81b8304811660a0830152600160f01b909204909116151560c08201819052610ae9576040805162461bcd60e51b81526020600482015260036024820152624c4f4b60e81b604482015290519081900360640190fd5b87610b345780600001516001600160a01b0316866001600160a01b0316118015610b2f575073fffd8963efd1fc6a506488495d951d5263988d266001600160a01b038716105b610b66565b80600001516001600160a01b0316866001600160a01b0316108015610b6657506401000276a36001600160a01b038716115b610b9d576040805162461bcd60e51b815260206004820152600360248201526214d41360ea1b604482015290519081900360640190fd5b6000805460ff60f01b191681556040805160c08101909152808a610bcc5760048460a0015160ff16901c610bdf565b60108460a0015160ff1681610bdd57fe5b065b60ff1681526004546001600160801b03166020820152604001610c00612523565b63ffffffff168152602001600060060b815260200160006001600160a01b031681526020016000151581525090506000808913905060006040518060e001604052808b81526020016000815260200185600001516001600160a01b03168152602001856020015160020b81526020018c610c7c57600254610c80565b6001545b815260200160006001600160801b0316815260200184602001516001600160801b031681525090505b805115801590610ccf5750886001600160a01b031681604001516001600160a01b031614155b1561109957610cdc6153e6565b60408201516001600160a01b031681526060820151610d1f906006907f00000000000000000000000000000000000000000000000000000000000000008f61252b565b15156040830152600290810b810b60208301819052620d89e719910b1215610d5057620d89e7196020820152610d6f565b6020810151620d89e860029190910b1315610d6f57620d89e860208201525b610d7c816020015161266d565b6001600160a01b031660608201526040820151610e0d908d610db6578b6001600160a01b031683606001516001600160a01b031611610dd0565b8b6001600160a01b031683606001516001600160a01b0316105b610dde578260600151610de0565b8b5b60c085015185517f000000000000000000000000000000000000000000000000000000000000000061299f565b60c085015260a084015260808301526001600160a01b031660408301528215610e6f57610e438160c00151826080015101612b91565b825103825260a0810151610e6590610e5a90612b91565b602084015190612ba7565b6020830152610eaa565b610e7c8160a00151612b91565b825101825260c08101516080820151610ea491610e999101612b91565b602084015190612bc3565b60208301525b835160ff1615610ef0576000846000015160ff168260c0015181610eca57fe5b60c0840180519290910491829003905260a0840180519091016001600160801b03169052505b60c08201516001600160801b031615610f2f57610f238160c00151600160801b8460c001516001600160801b0316612bd9565b60808301805190910190525b80606001516001600160a01b031682604001516001600160a01b031614156110585780604001511561102f578360a00151610fb957610f97846040015160008760200151886040015188602001518a606001516008612c89909695949392919063ffffffff16565b6001600160a01b03166080860152600690810b900b6060850152600160a08501525b600061100582602001518e610fd057600154610fd6565b84608001515b8f610fe5578560800151610fe9565b6002545b608089015160608a015160408b01516005959493929190612e1c565b90508c15611011576000035b61101f8360c0015182612eef565b6001600160801b031660c0840152505b8b61103e578060200151611047565b60018160200151035b600290810b900b6060830152611093565b80600001516001600160a01b031682604001516001600160a01b031614611093576110868260400151612fa5565b600290810b900b60608301525b50610ca9565b836020015160020b816060015160020b14611174576000806110e786604001518660400151886020015188602001518a606001518b6080015160086132d1909695949392919063ffffffff16565b604085015160608601516000805461ffff60c81b1916600160c81b61ffff958616021761ffff60b81b1916600160b81b95909416949094029290921762ffffff60a01b1916600160a01b62ffffff60029490940b93909316929092029190911773ffffffffffffffffffffffffffffffffffffffff19166001600160a01b03909116179055506111a69050565b60408101516000805473ffffffffffffffffffffffffffffffffffffffff19166001600160a01b039092169190911790555b8060c001516001600160801b031683602001516001600160801b0316146111ec5760c0810151600480546001600160801b0319166001600160801b039092169190911790555b8a1561123c57608081015160015560a08101516001600160801b0316156112375760a0810151600380546001600160801b031981166001600160801b03918216909301169190911790555b611282565b608081015160025560a08101516001600160801b0316156112825760a0810151600380546001600160801b03808216600160801b92839004821690940116029190911790555b8115158b15151461129b57602081015181518b036112a8565b80600001518a0381602001515b90965094508a156113e15760008512156112ea576112ea7f00000000000000000000000000000000000000000000000000000000000000008d8760000361346e565b60006112f46135bc565b9050336001600160a01b031663fa461e3388888c8c6040518563ffffffff1660e01b815260040180858152602001848152602001806020018281038252848482818152602001925080828437600081840152601f19601f82011690508083019250505095505050505050600060405180830381600087803b15801561137857600080fd5b505af115801561138c573d6000803e3d6000fd5b505050506113986135bc565b6113a282896136f5565b11156113db576040805162461bcd60e51b815260206004820152600360248201526249494160e81b604482015290519081900360640190fd5b5061150b565b6000861215611418576114187f00000000000000000000000000000000000000000000000000000000000000008d8860000361346e565b6000611422613705565b9050336001600160a01b031663fa461e3388888c8c6040518563ffffffff1660e01b815260040180858152602001848152602001806020018281038252848482818152602001925080828437600081840152601f19601f82011690508083019250505095505050505050600060405180830381600087803b1580156114a657600080fd5b505af11580156114ba573d6000803e3d6000fd5b505050506114c6613705565b6114d082886136f5565b1115611509576040805162461bcd60e51b815260206004820152600360248201526249494160e81b604482015290519081900360640190fd5b505b60408082015160c083015160608085015184518b8152602081018b90526001600160a01b03948516818701526001600160801b039093169183019190915260020b60808201529151908e169133917fc42079f94a6350d7e6235f29174924f928cc2ac818eb64fed8004e115fbcca679181900360a00190a350506000805460ff60f01b1916600160f01b17905550919890975095505050505050565b60006115b484848461379d565b90506001600160a01b0381166115c957600080fd5b6115d481338661346e565b505060009081526201000760205260409020805460ff1916600117905550565b620100095481565b6004546001600160801b031681565b6003546001600160801b0380821691600160801b90041682565b60088161ffff811061163657600080fd5b015463ffffffff81169150640100000000810460060b90600160581b81046001600160a01b031690600160f81b900460ff1684565b600054600160f01b900460ff166116af576040805162461bcd60e51b81526020600482015260036024820152624c4f4b60e81b604482015290519081900360640190fd5b6000805460ff60f01b191690556116c46124ec565b60008054600160d81b900461ffff16906116e060088385613c11565b6000805461ffff808416600160d81b810261ffff60d81b199093169290921790925591925083161461174d576040805161ffff80851682528316602082015281517fac49e518f90a358f652e4400164f05a5d8f7e35e7747279bc3a93dbf584e125a929181900390910190a15b50506000805460ff60f01b1916600160f01b17905550565b6000546001600160a01b03811690600160a01b810460020b9061ffff600160b81b8204811691600160c81b8104821691600160d81b8204169060ff600160e81b8204811691600160f01b90041687565b600080548190600160f01b900460ff166117fc576040805162461bcd60e51b81526020600482015260036024820152624c4f4b60e81b604482015290519081900360640190fd5b6000805460ff60f01b191690556001600160801b03851661181c57600080fd5b60008061186a60405180608001604052808c6001600160a01b031681526020018b60020b81526020018a60020b81526020016118608a6001600160801b0316613cb4565b600f0b9052613cc5565b9250925050819350809250600080600086111561188c576118896135bc565b91505b841561189d5761189a613705565b90505b336001600160a01b031663d348799787878b8b6040518563ffffffff1660e01b815260040180858152602001848152602001806020018281038252848482818152602001925080828437600081840152601f19601f82011690508083019250505095505050505050600060405180830381600087803b15801561191f57600080fd5b505af1158015611933573d6000803e3d6000fd5b50505050600086111561198a576119486135bc565b61195283886136f5565b111561198a576040805162461bcd60e51b815260206004820152600260248201526104d360f41b604482015290519081900360640190fd5b84156119da57611998613705565b6119a282876136f5565b11156119da576040805162461bcd60e51b81526020600482015260026024820152614d3160f01b604482015290519081900360640190fd5b8960020b8b60020b8d6001600160a01b03167f7a53080ba414158be7ec69b987b5fb7d07dee101fe85488f0853ae16239d0bde338d8b8b60405180856001600160a01b03168152602001846001600160801b0316815260200183815260200182815260200194505050505060405180910390a450506000805460ff60f01b1916600160f01b17905550919890975095505050505050565b60025481565b600054600160f01b900460ff16611abb576040805162461bcd60e51b81526020600482015260036024820152624c4f4b60e81b604482015290519081900360640190fd5b6000805460ff60f01b19169055611ad06124ec565b6004546001600160801b031680611b12576040805162461bcd60e51b81526020600482015260016024820152601360fa1b604482015290519081900360640190fd5b6000611b47867f000000000000000000000000000000000000000000000000000000000000000062ffffff16620f4240613f05565b90506000611b7e867f000000000000000000000000000000000000000000000000000000000000000062ffffff16620f4240613f05565b90506000611b8a6135bc565b90506000611b96613705565b90508815611bc957611bc97f00000000000000000000000000000000000000000000000000000000000000008b8b61346e565b8715611bfa57611bfa7f00000000000000000000000000000000000000000000000000000000000000008b8a61346e565b336001600160a01b031663e9cbafb085858a8a6040518563ffffffff1660e01b815260040180858152602001848152602001806020018281038252848482818152602001925080828437600081840152601f19601f82011690508083019250505095505050505050600060405180830381600087803b158015611c7c57600080fd5b505af1158015611c90573d6000803e3d6000fd5b505050506000611c9e6135bc565b90506000611caa613705565b905081611cb785886136f5565b1115611cef576040805162461bcd60e51b8152602060048201526002602482015261046360f41b604482015290519081900360640190fd5b80611cfa84876136f5565b1115611d32576040805162461bcd60e51b8152602060048201526002602482015261463160f01b604482015290519081900360640190fd5b8382038382038115611dc15760008054600160e81b9004600f16908115611d65578160ff168481611d5f57fe5b04611d68565b60005b90506001600160801b03811615611d9b57600380546001600160801b038082168401166001600160801b03199091161790555b611db5818503600160801b8d6001600160801b0316612bd9565b60018054909101905550505b8015611e4c5760008054600160e81b900460041c600f16908115611df1578160ff168381611deb57fe5b04611df4565b60005b90506001600160801b03811615611e2657600380546001600160801b03600160801b8083048216850182160291161790555b611e40818403600160801b8d6001600160801b0316612bd9565b60028054909101905550505b8d6001600160a01b0316336001600160a01b03167fbdbdb71d7860376ba52b25a5028beea23581364a40522f6bcfb86bb1f2dca6338f8f86866040518085815260200184815260200183815260200182815260200194505050505060405180910390a350506000805460ff60f01b1916600160f01b179055505050505050505050505050565b60076020526000908152604090208054600182015460028301546003909301546001600160801b0392831693919281811691600160801b90041685565b60066020526000908152604090205481565b7f000000000000000000000000000000000000000000000000000000000000000081565b606080611f506124ec565b611fc7611f5b612523565b858580806020026020016040519081016040528093929190818152602001838360200280828437600092018290525054600454600896959450600160a01b820460020b935061ffff600160b81b8304811693506001600160801b0390911691600160c81b900416613f3f565b915091509250929050565b6000806000611fdf6124ec565b611fe98585614099565b600285810b810b60009081526005602052604080822087840b90930b825281206003830154600681900b9367010000000000000082046001600160a01b0316928492600160d81b810463ffffffff169284929091600160f81b900460ff168061205157600080fd5b6003820154600681900b985067010000000000000081046001600160a01b03169650600160d81b810463ffffffff169450600160f81b900460ff168061209657600080fd5b50506040805160e0810182526000546001600160a01b0381168252600160a01b8104600290810b810b810b6020840181905261ffff600160b81b8404811695850195909552600160c81b830485166060850152600160d81b8304909416608084015260ff600160e81b8304811660a0850152600160f01b909204909116151560c08301529093508e810b91900b1215905061213f575093909403965090039350900390506121c2565b8a60020b816020015160020b12156121b357600061215b612523565b6020830151604084015160045460608601519394506000938493612191936008938893879392916001600160801b031690612c89565b9a9003989098039b5050949096039290920396509091030392506121c2915050565b50949093039650039350900390505b9250925092565b7f000000000000000000000000000000000000000000000000000000000000000081565b7f000000000000000000000000000000000000000000000000000000000000000081565b7f000000000000000000000000000000000000000000000000000000000000000081565b600155565b7f000000000000000000000000000000000000000000000000000000000000000081565b60015481565b60056020526000908152604090208054600182015460028301546003909301546001600160801b03831693600160801b909304600f0b9290600681900b9067010000000000000081046001600160a01b031690600160d81b810463ffffffff1690600160f81b900460ff1688565b6000546001600160a01b031615612315576040805162461bcd60e51b8152602060048201526002602482015261414960f01b604482015290519081900360640190fd5b600061232082612fa5565b9050600080612338612330612523565b600890614162565b6040805160e0810182526001600160a01b038816808252600288810b6020808501829052600085870181905261ffff898116606088018190529089166080880181905260a08801839052600160c0909801979097528154600160f01b73ffffffffffffffffffffffffffffffffffffffff19909116871762ffffff60a01b1916600160a01b62ffffff9787900b9790971696909602959095177fffffffffff00000000ffffffffffffffffffffffffffffffffffffffffffffff16600160c81b9091021761ffff60d81b1916600160d81b909602959095177fff0000ffffffffffffffffffffffffffffffffffffffffffffffffffffffffff1692909217909355835191825281019190915281519395509193507f98636036cb66a9c19a37435efc1e90142190214e8abeb821bdba3f2990dd4c9592918290030190a150505050565b600255565b60008082600281900b620d89e7198161249557fe5b05029050600083600281900b620d89e8816124ac57fe5b0502905060008460020b83830360020b816124c357fe5b0560010190508062ffffff166001600160801b038016816124e057fe5b0493505050505b919050565b306001600160a01b037f0000000000000000000000000000000000000000000000000000000000000000161461252157600080fd5b565b620100095490565b60008060008460020b8660020b8161253f57fe5b05905060008660020b12801561256657508460020b8660020b8161255f57fe5b0760020b15155b1561257057600019015b83156125e557600080612582836141ae565b600182810b810b600090815260208d9052604090205460ff83169190911b800160001901908116801515975092945090925090856125c757888360ff168603026125da565b886125d1826141c0565b840360ff168603025b965050505050612663565b6000806125f4836001016141ae565b91509150600060018260ff166001901b031990506000818b60008660010b60010b815260200190815260200160002054169050806000141595508561264657888360ff0360ff1686600101010261265c565b888361265183614260565b0360ff168660010101025b9650505050505b5094509492505050565b60008060008360020b12612684578260020b61268c565b8260020b6000035b9050620d89e88111156126ca576040805162461bcd60e51b81526020600482015260016024820152601560fa1b604482015290519081900360640190fd5b6000600182166126de57600160801b6126f0565b6ffffcb933bd6fad37aa2d162d1a5940015b70ffffffffffffffffffffffffffffffffff1690506002821615612724576ffff97272373d413259a46990580e213a0260801c5b6004821615612743576ffff2e50f5f656932ef12357cf3c7fdcc0260801c5b6008821615612762576fffe5caca7e10e4e61c3624eaa0941cd00260801c5b6010821615612781576fffcb9843d60f6159c9db58835c9266440260801c5b60208216156127a0576fff973b41fa98c081472e6896dfb254c00260801c5b60408216156127bf576fff2ea16466c96a3843ec78b326b528610260801c5b60808216156127de576ffe5dee046a99a2a811c461f1969c30530260801c5b6101008216156127fe576ffcbe86c7900a88aedcffc83b479aa3a40260801c5b61020082161561281e576ff987a7253ac413176f2b074cf7815e540260801c5b61040082161561283e576ff3392b0822b70005940c7a398e4b70f30260801c5b61080082161561285e576fe7159475a2c29b7443b29c7fa6e889d90260801c5b61100082161561287e576fd097f3bdfd2022b8845ad8f792aa58250260801c5b61200082161561289e576fa9f746462d870fdf8a65dc1f90e061e50260801c5b6140008216156128be576f70d869a156d2a1b890bb3df62baf32f70260801c5b6180008216156128de576f31be135f97d08fd981231505542fcfa60260801c5b620100008216156128ff576f09aa508b5b7a84e1c677de54f3e99bc90260801c5b6202000082161561291f576e5d6af8dedb81196699c329225ee6040260801c5b6204000082161561293e576d2216e584f5fa1ea926041bedfe980260801c5b6208000082161561295b576b048a170391f7dc42444e8fa20260801c5b60008460020b131561297657806000198161297257fe5b0490505b64010000000081061561298a57600161298d565b60005b60ff16602082901c0192505050919050565b60008080806001600160a01b03808916908a161015818712801590612a245760006129d88989620f42400362ffffff16620f4240612bd9565b9050826129f1576129ec8c8c8c600161434a565b6129fe565b6129fe8b8d8c60016143c5565b9550858110612a0f578a9650612a1e565b612a1b8c8b8386614482565b96505b50612a6e565b81612a3b57612a368b8b8b60006143c5565b612a48565b612a488a8c8b600061434a565b9350838860000310612a5c57899550612a6e565b612a6b8b8a8a600003856144ce565b95505b6001600160a01b038a8116908716148215612ad157808015612a8d5750815b612aa357612a9e878d8c60016143c5565b612aa5565b855b9550808015612ab2575081155b612ac857612ac3878d8c600061434a565b612aca565b845b9450612b1b565b808015612adb5750815b612af157612aec8c888c600161434a565b612af3565b855b9550808015612b00575081155b612b1657612b118c888c60006143c5565b612b18565b845b94505b81158015612b2b57508860000385115b15612b37578860000394505b818015612b5657508a6001600160a01b0316876001600160a01b031614155b15612b65578589039350612b82565b612b7f868962ffffff168a620f42400362ffffff16613f05565b93505b50505095509550955095915050565b6000600160ff1b8210612ba357600080fd5b5090565b80820382811315600083121514612bbd57600080fd5b92915050565b81810182811215600083121514612bbd57600080fd5b6000808060001985870986860292508281109083900303905080612c0f5760008411612c0457600080fd5b508290049050612c82565b808411612c1b57600080fd5b6000848688096000868103871696879004966002600389028118808a02820302808a02820302808a02820302808a02820302808a02820302808a02909103029181900381900460010186841190950394909402919094039290920491909117919091029150505b9392505050565b60008063ffffffff8716612d30576000898661ffff1661ffff8110612caa57fe5b60408051608081018252919092015463ffffffff8082168084526401000000008304600690810b810b900b6020850152600160581b83046001600160a01b031694840194909452600160f81b90910460ff16151560608301529092508a1614612d1c57612d19818a898861451a565b90505b806020015181604001519250925050612e10565b868803600080612d458c8c858c8c8c8c6145ca565b91509150816000015163ffffffff168363ffffffff161415612d77578160200151826040015194509450505050612e10565b805163ffffffff84811691161415612d9f578060200151816040015194509450505050612e10565b8151815160208085015190840151918390039286039163ffffffff80841692908516910360060b81612dcd57fe5b05028460200151018263ffffffff168263ffffffff1686604001518660400151036001600160a01b03160281612dff57fe5b048560400151019650965050505050505b97509795505050505050565b600295860b860b60009081526020979097526040909620600181018054909503909455938301805490920390915560038201805463ffffffff600160d81b6001600160a01b036701000000000000008085048216909603169094027fffffffffff0000000000000000000000000000000000000000ffffffffffffff90921691909117600681810b90960390950b66ffffffffffffff1666ffffffffffffff199095169490941782810485169095039093160263ffffffff60d81b1990931692909217905554600160801b9004600f0b90565b60008082600f0b1215612f5457826001600160801b03168260000384039150816001600160801b031610612f4f576040805162461bcd60e51b81526020600482015260026024820152614c5360f01b604482015290519081900360640190fd5b612bbd565b826001600160801b03168284019150816001600160801b03161015612bbd576040805162461bcd60e51b81526020600482015260026024820152614c4160f01b604482015290519081900360640190fd5b60006401000276a36001600160a01b03831610801590612fe1575073fffd8963efd1fc6a506488495d951d5263988d266001600160a01b038316105b613016576040805162461bcd60e51b81526020600482015260016024820152602960f91b604482015290519081900360640190fd5b77ffffffffffffffffffffffffffffffffffffffff00000000602083901b166001600160801b03811160071b81811c67ffffffffffffffff811160061b90811c63ffffffff811160051b90811c61ffff811160041b90811c60ff8111600390811b91821c600f811160021b90811c918211600190811b92831c979088119617909417909217179091171717608081106130b757607f810383901c91506130c1565b80607f0383901b91505b908002607f81811c60ff83811c9190911c800280831c81831c1c800280841c81841c1c800280851c81851c1c800280861c81861c1c800280871c81871c1c800280881c81881c1c800280891c81891c1c8002808a1c818a1c1c8002808b1c818b1c1c8002808c1c818c1c1c8002808d1c818d1c1c8002808e1c9c81901c9c909c1c80029c8d901c9e9d607f198f0160401b60c09190911c678000000000000000161760c19b909b1c674000000000000000169a909a1760c29990991c672000000000000000169890981760c39790971c671000000000000000169690961760c49590951c670800000000000000169490941760c59390931c670400000000000000169290921760c69190911c670200000000000000161760c79190911c670100000000000000161760c89190911c6680000000000000161760c99190911c6640000000000000161760ca9190911c6620000000000000161760cb9190911c6610000000000000161760cc9190911c6608000000000000161760cd9190911c66040000000000001617693627a301d71055774c8581026f028f6481ab7f045a5af012a19d003aa9198101608090811d906fdb2df09e81959a81455e260799a0632f8301901d600281810b9083900b146132c257886001600160a01b03166132a68261266d565b6001600160a01b031611156132bb57816132bd565b805b6132c4565b815b9998505050505050505050565b6000806000898961ffff1661ffff81106132e757fe5b60408051608081018252919092015463ffffffff8082168084526401000000008304600690810b810b900b6020850152600160581b83046001600160a01b031694840194909452600160f81b90910460ff1615156060830152909250891614156133575788859250925050612e10565b8461ffff168461ffff1611801561337857506001850361ffff168961ffff16145b1561338557839150613389565b8491505b8161ffff168960010161ffff168161339d57fe5b0692506133ac8189898961451a565b8a8461ffff1661ffff81106133bd57fe5b825191018054602084015160408501516060909501511515600160f81b026001600160f81b036001600160a01b03909616600160581b027fff0000000000000000000000000000000000000000ffffffffffffffffffffff60069390930b66ffffffffffffff16640100000000026affffffffffffff000000001963ffffffff90971663ffffffff199095169490941795909516929092171692909217929092161790555097509795505050505050565b604080516001600160a01b038481166024830152604480830185905283518084039091018152606490920183526020820180516001600160e01b031663a9059cbb60e01b1781529251825160009485949389169392918291908083835b602083106134ea5780518252601f1990920191602091820191016134cb565b6001836020036101000a0380198251168184511680821785525050505050509050019150506000604051808303816000865af19150503d806000811461354c576040519150601f19603f3d011682016040523d82523d6000602084013e613551565b606091505b509150915081801561357f57508051158061357f575080806020019051602081101561357c57600080fd5b50515b6135b5576040805162461bcd60e51b81526020600482015260026024820152612a2360f11b604482015290519081900360640190fd5b5050505050565b604080513060248083019190915282518083039091018152604490910182526020810180516001600160e01b03166370a0823160e01b17815291518151600093849384936001600160a01b037f00000000000000000000000000000000000000000000000000000000000000001693919290918291908083835b602083106136555780518252601f199092019160209182019101613636565b6001836020036101000a038019825116818451168082178552505050505050905001915050600060405180830381855afa9150503d80600081146136b5576040519150601f19603f3d011682016040523d82523d6000602084013e6136ba565b606091505b50915091508180156136ce57506020815110155b6136d757600080fd5b8080602001905160208110156136ec57600080fd5b50519250505090565b80820182811015612bbd57600080fd5b604080513060248083019190915282518083039091018152604490910182526020810180516001600160e01b03166370a0823160e01b17815291518151600093849384936001600160a01b037f0000000000000000000000000000000000000000000000000000000000000000169391929091829190808383602083106136555780518252601f199092019160209182019101613636565b600082815262010007602052604081205460ff16156137be57506000612c82565b620100085460408051631ae255b360e21b815260048101869052905160009283926060926001600160a01b0390921691636b8956cc916024808201928792909190829003018186803b15801561381357600080fd5b505afa158015613827573d6000803e3d6000fd5b505050506040513d6000823e601f3d908101601f19168201604052606081101561385057600080fd5b8151602083015160408085018051915193959294830192918464010000000082111561387b57600080fd5b90830190602082018581111561389057600080fd5b82516401000000008111828201881017156138aa57600080fd5b82525081516020918201929091019080838360005b838110156138d75781810151838201526020016138bf565b50505050905090810190601f1680156139045780820380516001836020036101000a031916815260200191505b506040525050508093508194508295505050506000308860405160240180836001600160a01b031681526020018281526020019250505060405160208183030381529060405263a9059cbb60e01b6001600160e01b0319166020820180516001600160e01b0383818316178352505050509050336001600160a01b0316846001600160a01b0316141580613a0757507f00000000000000000000000000000000000000000000000000000000000000006001600160a01b0316836001600160a01b031614158015613a0757507f00000000000000000000000000000000000000000000000000000000000000006001600160a01b0316836001600160a01b031614155b80613a195750613a1781836147c7565b155b15613a2b576000945050505050612c82565b620100085460408051633452e2db60e01b815290516000926001600160a01b031691633452e2db916004808301926020929190829003018186803b158015613a7257600080fd5b505afa158015613a86573d6000803e3d6000fd5b505050506040513d6020811015613a9c57600080fd5b5051905034811115613aad57600080fd5b62010008546040805162ffffff8a166024820152604481018b9052600660648083019190915282518083039091018152608490910182526020810180516001600160e01b031663ba154cff60e01b1781529151815160009485946001600160a01b039091169387939092909182918083835b60208310613b3e5780518252601f199092019160209182019101613b1f565b6001836020036101000a03801982511681845116808217855250505050505090500191505060006040518083038185875af1925050503d8060008114613ba0576040519150601f19603f3d011682016040523d82523d6000602084013e613ba5565b606091505b50915091508115613bf357613bda816001604051602001808281526020019150506040516020818303038152906040526147c7565b15613bee5785975050505050505050612c82565b613c03565b6000975050505050505050612c82565b505050505050509392505050565b6000808361ffff1611613c4f576040805162461bcd60e51b81526020600482015260016024820152604960f81b604482015290519081900360640190fd5b8261ffff168261ffff1611613c65575081612c82565b825b8261ffff168161ffff161015613cab576001858261ffff1661ffff8110613c8a57fe5b01805463ffffffff191663ffffffff92909216919091179055600101613c67565b50909392505050565b80600f81900b81146124e757600080fd5b6000806000613cd26124ec565b613ce484602001518560400151614099565b6040805160e0810182526000546001600160a01b0381168252600160a01b8104600290810b810b900b602080840182905261ffff600160b81b8404811685870152600160c81b84048116606080870191909152600160d81b8504909116608086015260ff600160e81b8504811660a0870152600160f01b909404909316151560c085015288519089015194890151928901519394613d88949193909290919061485b565b93508460600151600f0b600014613efd57846020015160020b816020015160020b1215613ddd57613dd6613dbf866020015161266d565b613dcc876040015161266d565b8760600151614a10565b9250613efd565b846040015160020b816020015160020b1215613ed35760045460408201516001600160801b0390911690613e2f90613e13612523565b60208501516060860151608087015160089493929187916132d1565b6000805461ffff60c81b1916600160c81b61ffff938416021761ffff60b81b1916600160b81b939092169290920217905581516040870151613e7f9190613e759061266d565b8860600151614a10565b9350613e9d613e91876020015161266d565b83516060890151614a54565b9250613ead818760600151612eef565b600480546001600160801b0319166001600160801b039290921691909117905550613efd565b613efa613ee3866020015161266d565b613ef0876040015161266d565b8760600151614a54565b91505b509193909250565b6000613f12848484612bd9565b905060008280613f1e57fe5b8486091115612c82576000198110613f3557600080fd5b6001019392505050565b60608060008361ffff1611613f7f576040805162461bcd60e51b81526020600482015260016024820152604960f81b604482015290519081900360640190fd5b865167ffffffffffffffff81118015613f9757600080fd5b50604051908082528060200260200182016040528015613fc1578160200160208202803683370190505b509150865167ffffffffffffffff81118015613fdc57600080fd5b50604051908082528060200260200182016040528015614006578160200160208202803683370190505b50905060005b875181101561408c576140378a8a8a848151811061402657fe5b60200260200101518a8a8a8a612c89565b84838151811061404357fe5b6020026020010184848151811061405657fe5b60200260200101826001600160a01b03166001600160a01b03168152508260060b60060b8152505050808060010191505061400c565b5097509795505050505050565b8060020b8260020b126140d9576040805162461bcd60e51b8152602060048201526003602482015262544c5560e81b604482015290519081900360640190fd5b620d89e719600283900b121561411c576040805162461bcd60e51b8152602060048201526003602482015262544c4d60e81b604482015290519081900360640190fd5b620d89e8600282900b131561415e576040805162461bcd60e51b815260206004820152600360248201526254554d60e81b604482015290519081900360640190fd5b5050565b6040805160808101825263ffffffff9283168082526000602083018190529282019290925260016060909101819052835463ffffffff1916909117909116600160f81b17909155908190565b60020b600881901d9161010090910790565b60008082116141ce57600080fd5b600160801b82106141e157608091821c91015b6801000000000000000082106141f957604091821c91015b640100000000821061420d57602091821c91015b62010000821061421f57601091821c91015b610100821061423057600891821c91015b6010821061424057600491821c91015b6004821061425057600291821c91015b600282106124e757600101919050565b600080821161426e57600080fd5b5060ff6001600160801b0382161561428957607f1901614291565b608082901c91505b67ffffffffffffffff8216156142aa57603f19016142b2565b604082901c91505b63ffffffff8216156142c757601f19016142cf565b602082901c91505b61ffff8216156142e257600f19016142ea565b601082901c91505b60ff8216156142fc5760071901614304565b600882901c91505b600f821615614316576003190161431e565b600482901c91505b60038216156143305760011901614338565b600282901c91505b60018216156124e75760001901919050565b6000836001600160a01b0316856001600160a01b0316111561436a579293925b8161439757614392836001600160801b03168686036001600160a01b0316600160601b612bd9565b6143ba565b6143ba836001600160801b03168686036001600160a01b0316600160601b613f05565b90505b949350505050565b6000836001600160a01b0316856001600160a01b031611156143e5579293925b7bffffffffffffffffffffffffffffffff000000000000000000000000606084901b166001600160a01b03868603811690871661442157600080fd5b8361445157866001600160a01b03166144448383896001600160a01b0316612bd9565b8161444b57fe5b04614477565b6144776144688383896001600160a01b0316613f05565b886001600160a01b0316614a83565b979650505050505050565b600080856001600160a01b03161161449957600080fd5b6000846001600160801b0316116144af57600080fd5b816144c1576143928585856001614a8e565b6143ba8585856001614b6f565b600080856001600160a01b0316116144e557600080fd5b6000846001600160801b0316116144fb57600080fd5b8161450d576143928585856000614b6f565b6143ba8585856000614a8e565b614522615422565b600085600001518503905060405180608001604052808663ffffffff1681526020018263ffffffff168660020b0288602001510160060b81526020016000856001600160801b031611614576576001614578565b845b6001600160801b031673ffffffff00000000000000000000000000000000608085901b16816145a357fe5b048860400151016001600160a01b0316815260200160011515815250915050949350505050565b6145d2615422565b6145da615422565b888561ffff1661ffff81106145eb57fe5b60408051608081018252919092015463ffffffff81168083526401000000008204600690810b810b900b6020840152600160581b82046001600160a01b031693830193909352600160f81b900460ff1615156060820152925061465090899089614c64565b15614688578663ffffffff16826000015163ffffffff16141561467257612e10565b8161467f8389898861451a565b91509150612e10565b888361ffff168660010161ffff168161469d57fe5b0661ffff1661ffff81106146ad57fe5b60408051608081018252929091015463ffffffff811683526401000000008104600690810b810b900b60208401526001600160a01b03600160581b8204169183019190915260ff600160f81b9091041615156060820181905290925061476457604080516080810182528a5463ffffffff811682526401000000008104600690810b810b900b6020830152600160581b81046001600160a01b031692820192909252600160f81b90910460ff161515606082015291505b61477388836000015189614c64565b6147aa576040805162461bcd60e51b815260206004820152600360248201526213d31160ea1b604482015290519081900360640190fd5b6147b78989898887614d27565b9150915097509795505050505050565b600081518351146147da57506000612bbd565b60005b8351811015614851578281815181106147f257fe5b602001015160f81c60f81b6001600160f81b03191684828151811061481357fe5b01602001517fff000000000000000000000000000000000000000000000000000000000000001614614849576000915050612bbd565b6001016147dd565b5060019392505050565b600061486a6007878787614ec7565b60015460025491925090600080600f87900b156149b057600061488b612523565b60008054600454929350909182916148d59160089186918591600160a01b810460020b9161ffff600160b81b83048116926001600160801b0390921691600160c81b900416612c89565b909250905061490f60058d8b8d8b8b87898b60007f0000000000000000000000000000000000000000000000000000000000000000614f2b565b945061494660058c8b8d8b8b87898b60017f0000000000000000000000000000000000000000000000000000000000000000614f2b565b9350841561497a5761497a60068d7f00000000000000000000000000000000000000000000000000000000000000006150fd565b83156149ac576149ac60068c7f00000000000000000000000000000000000000000000000000000000000000006150fd565b5050505b6000806149c260058c8c8b8a8a615163565b90925090506149d3878a848461520f565b600089600f0b1215614a015783156149f0576149f060058c6153a4565b8215614a0157614a0160058b6153a4565b50505050505095945050505050565b60008082600f0b12614a3657614a31614a2c85858560016143c5565b612b91565b6143bd565b614a49614a2c85858560000360006143c5565b600003949350505050565b60008082600f0b12614a7057614a31614a2c858585600161434a565b614a49614a2c858585600003600061434a565b808204910615150190565b60008115614b015760006001600160a01b03841115614ac457614abf84600160601b876001600160801b0316612bd9565b614adc565b6001600160801b038516606085901b81614ada57fe5b045b9050614af9614af46001600160a01b038816836136f5565b6153d0565b9150506143bd565b60006001600160a01b03841115614b2f57614b2a84600160601b876001600160801b0316613f05565b614b46565b614b46606085901b6001600160801b038716614a83565b905080866001600160a01b031611614b5d57600080fd5b6001600160a01b0386160390506143bd565b600082614b7d5750836143bd565b7bffffffffffffffffffffffffffffffff000000000000000000000000606085901b168215614c1d576001600160a01b03861684810290858281614bbd57fe5b041415614bee57818101828110614bec57614be283896001600160a01b031683613f05565b93505050506143bd565b505b614c1482614c0f878a6001600160a01b03168681614c0857fe5b04906136f5565b614a83565b925050506143bd565b6001600160a01b03861684810290858281614c3457fe5b04148015614c4157508082115b614c4a57600080fd5b808203614be2614af4846001600160a01b038b1684613f05565b60008363ffffffff168363ffffffff1611158015614c8e57508363ffffffff168263ffffffff1611155b15614caa578163ffffffff168363ffffffff1611159050612c82565b60008463ffffffff168463ffffffff1611614cd2578363ffffffff1664010000000001614cda565b8363ffffffff165b64ffffffffff16905060008563ffffffff168463ffffffff1611614d0b578363ffffffff1664010000000001614d13565b8363ffffffff165b64ffffffffff169091111595945050505050565b614d2f615422565b614d37615422565b60008361ffff168560010161ffff1681614d4d57fe5b0661ffff169050600060018561ffff16830103905060005b506002818301048961ffff87168281614d7a57fe5b0661ffff8110614d8657fe5b60408051608081018252929091015463ffffffff811683526401000000008104600690810b810b900b60208401526001600160a01b03600160581b8204169183019190915260ff600160f81b90910416151560608201819052909550614df157806001019250614d65565b898661ffff168260010181614e0257fe5b0661ffff8110614e0e57fe5b60408051608081018252929091015463ffffffff811683526401000000008104600690810b810b900b60208401526001600160a01b03600160581b8204169183019190915260ff600160f81b90910416151560608201528551909450600090614e79908b908b614c64565b9050808015614e925750614e928a8a8760000151614c64565b15614e9d5750614eba565b80614ead57600182039250614eb4565b8160010193505b50614d65565b5050509550959350505050565b6040805160609490941b6bffffffffffffffffffffffff1916602080860191909152600293840b60e890811b60348701529290930b90911b60378401528051808403601a018152603a90930181528251928201929092206000908152929052902090565b60028a810b900b600090815260208c90526040812080546001600160801b031682614f56828d612eef565b9050846001600160801b0316816001600160801b03161115614fa4576040805162461bcd60e51b81526020600482015260026024820152614c4f60f01b604482015290519081900360640190fd5b6001600160801b038281161590821615811415945015615062578c60020b8e60020b1361504a57600183018b9055600283018a90556003830180547fffffffffff0000000000000000000000000000000000000000ffffffffffffff166701000000000000006001600160a01b038c16021766ffffffffffffff191666ffffffffffffff60068b900b161763ffffffff60d81b1916600160d81b63ffffffff8a16021790555b6003830180546001600160f81b0316600160f81b1790555b82546001600160801b0319166001600160801b038216178355856150ab5782546150a6906150a190600160801b9004600f90810b810b908f900b612bc3565b613cb4565b6150cc565b82546150cc906150a190600160801b9004600f90810b810b908f900b612ba7565b8354600f9190910b6001600160801b03908116600160801b0291161790925550909c9b505050505050505050505050565b8060020b8260020b8161510c57fe5b0760020b1561511a57600080fd5b6000806151358360020b8560020b8161512f57fe5b056141ae565b600191820b820b60009081526020979097526040909620805460ff9097169190911b90951890945550505050565b600285810b80820b60009081526020899052604080822088850b850b83529082209193849391929184918291908a900b126151a9575050600182015460028301546151bc565b8360010154880391508360020154870390505b6000808b60020b8b60020b12156151de575050600183015460028401546151f1565b84600101548a0391508460020154890390505b92909803979097039b96909503949094039850939650505050505050565b6040805160a08101825285546001600160801b0390811682526001870154602083015260028701549282019290925260038601548083166060830152600160801b900490911660808201526000600f85900b6152ae5781516001600160801b03166152a6576040805162461bcd60e51b815260206004820152600260248201526104e560f41b604482015290519081900360640190fd5b5080516152bd565b81516152ba9086612eef565b90505b60006152e18360200151860384600001516001600160801b0316600160801b612bd9565b905060006153078460400151860385600001516001600160801b0316600160801b612bd9565b905086600f0b60001461532e5787546001600160801b0319166001600160801b0384161788555b60018801869055600288018590556001600160801b03821615158061535c57506000816001600160801b0316115b1561539a576003880180546001600160801b031981166001600160801b039182168501821617808216600160801b9182900483168501909216021790555b5050505050505050565b600290810b810b6000908152602092909252604082208281556001810183905590810182905560030155565b806001600160a01b03811681146124e757600080fd5b6040805160e081018252600080825260208201819052918101829052606081018290526080810182905260a0810182905260c081019190915290565b6040805160808101825260008082526020820181905291810182905260608101919091529056fea264697066735822122091df0563a687265732b5eca852b02024f4b558cb879c93e1c09be4e85c0b67bc64736f6c63430007060033a264697066735822122053adbfca18ac4091fbe4e677e46d65ac15b5df3f54771561d96a4b5a40dd16d964736f6c63430007060033",
  "immutableReferences": {},
  "source": "// SPDX-License-Identifier: UNLICENSED\npragma solidity =0.7.6;\n\nimport '../interfaces/IUniswapV3PoolDeployer.sol';\n\nimport './MockTimeUniswapV3Pool.sol';\n\ncontract MockTimeUniswapV3PoolDeployer is IUniswapV3PoolDeployer {\n    struct Parameters {\n        address factory;\n        address token0;\n        address token1;\n        uint24 fee;\n        int24 tickSpacing;\n    }\n\n    Parameters public override parameters;\n\n    event PoolDeployed(address pool);\n\n    function deploy(\n        address factory,\n        address token0,\n        address token1,\n        uint24 fee,\n        int24 tickSpacing\n    ) external returns (address pool) {\n        parameters = Parameters({factory: factory, token0: token0, token1: token1, fee: fee, tickSpacing: tickSpacing});\n        pool = address(\n            new MockTimeUniswapV3Pool{salt: keccak256(abi.encodePacked(token0, token1, fee, tickSpacing))}()\n        );\n        emit PoolDeployed(pool);\n        delete parameters;\n    }\n}\n",
  "sourcePath": "/Users/hua/Codes/block-chain/uniswap-o/v3-core/contracts/test/MockTimeUniswapV3PoolDeployer.sol",
  "compiler": {
    "name": "solc",
    "version": "0.7.6+commit.7338295f.Emscripten.clang"
  },
  "schemaVersion": "3.4.8",
  "updatedAt": "2023-01-24T23:42:42.132Z",
  "devdoc": {
    "kind": "dev",
    "methods": {},
    "stateVariables": {
      "parameters": {
        "details": "Called by the pool constructor to fetch the parameters of the pool Returns factory The factory address Returns token0 The first token of the pool by address sort order Returns token1 The second token of the pool by address sort order Returns fee The fee collected upon every swap in the pool, denominated in hundredths of a bip Returns tickSpacing The minimum number of ticks between initialized ticks"
      }
    },
    "version": 1
  },
  "userdoc": {
    "kind": "user",
    "methods": {
      "parameters()": {
        "notice": "Get the parameters to be used in constructing the pool, set transiently during pool creation."
      }
    },
    "version": 1
  }
}