{
  "contractName": "TestUniswapV3ReentrantCallee",
  "abi": [
    {
      "inputs": [
        {
          "internalType": "address",
          "name": "pool",
          "type": "address"
        }
      ],
      "name": "swapToReenter",
      "outputs": [],
      "stateMutability": "nonpayable",
      "type": "function"
    },
    {
      "inputs": [
        {
          "internalType": "int256",
          "name": "",
          "type": "int256"
        },
        {
          "internalType": "int256",
          "name": "",
          "type": "int256"
        },
        {
          "internalType": "bytes",
          "name": "",
          "type": "bytes"
        }
      ],
      "name": "uniswapV3SwapCallback",
      "outputs": [],
      "stateMutability": "nonpayable",
      "type": "function"
    }
  ],
  "bytecode": "0x608060405234801561001057600080fd5b50610a14806100206000396000f3fe608060405234801561001057600080fd5b50600436106100365760003560e01c8063c22a2bfe1461003b578063fa461e3314610070575b600080fd5b61006e6004803603602081101561005157600080fd5b503573ffffffffffffffffffffffffffffffffffffffff166100ec565b005b61006e6004803603606081101561008657600080fd5b8135916020810135918101906060810160408201356401000000008111156100ad57600080fd5b8201836020820111156100bf57600080fd5b803590602001918460018302840111640100000000831117156100e157600080fd5b509092509050610212565b6040805160008082526020820192839052630251596160e31b8352602482018181526044830182905260016064840181905273fffd8963efd1fc6a506488495d951d5263988d256084850181905260a060a48601908152855160c4870181905273ffffffffffffffffffffffffffffffffffffffff89169763128acb0897879690939092909160e48501918083838b5b8381101561019457818101518382015260200161017c565b50505050905090810190601f1680156101c15780820380516001836020036101000a031916815260200191505b5096505050505050506040805180830381600087803b1580156101e357600080fd5b505af11580156101f7573d6000803e3d6000fd5b505050506040513d604081101561020d57600080fd5b505050565b6040805160008082526020820192839052630251596160e31b835260248201818152604483018290526001606484018190526084840183905260a060a48501908152845160c48601819052339663128acb0896869586949193909260e4850191808383895b8381101561028f578181015183820152602001610277565b50505050905090810190601f1680156102bc5780820380516001836020036101000a031916815260200191505b5096505050505050506040805180830381600087803b1580156102de57600080fd5b505af192505050801561030a57506040513d60408110156102fe57600080fd5b50805160209091015160015b61046d57610316610938565b80610321575061045e565b604051806040016040528060038152602001624c4f4b60e81b8152506040516020018080602001828103825283818151815260200191508051906020019080838360005b8381101561037d578181015183820152602001610365565b50505050905090810190601f1680156103aa5780820380516001836020036101000a031916815260200191505b509250505060405160208183030381529060405280519060200120816040516020018080602001828103825283818151815260200191508051906020019080838360005b838110156104065781810151838201526020016103ee565b50505050905090810190601f1680156104335780820380516001836020036101000a031916815260200191505b5092505050604051602081830303815290604052805190602001201461045857600080fd5b50610468565b3d6000803e3d6000fd5b610470565b50505b6040805160008082526020820192839052633c8a7d8d60e01b83526024820181815260448301829052606483018290526084830182905260a060a48401908152835160c485018190523395633c8a7d8d9585948594859492939192909160e4850191808383895b838110156104ef5781810151838201526020016104d7565b50505050905090810190601f16801561051c5780820380516001836020036101000a031916815260200191505b5096505050505050506040805180830381600087803b15801561053e57600080fd5b505af192505050801561056a57506040513d604081101561055e57600080fd5b50805160209091015160015b6106be57610576610938565b80610581575061045e565b604051806040016040528060038152602001624c4f4b60e81b8152506040516020018080602001828103825283818151815260200191508051906020019080838360005b838110156105dd5781810151838201526020016105c5565b50505050905090810190601f16801561060a5780820380516001836020036101000a031916815260200191505b509250505060405160208183030381529060405280519060200120816040516020018080602001828103825283818151815260200191508051906020019080838360005b8381101561066657818101518382015260200161064e565b50505050905090810190601f1680156106935780820380516001836020036101000a031916815260200191505b509250505060405160208183030381529060405280519060200120146106b857600080fd5b506106c1565b50505b60408051600080825260208201928390526312439b2f60e21b8352602482018181526044830182905260648301829052608060848401908152835160a48501819052339563490e6cbc95859485949193909260c4850191808383895b8381101561073557818101518382015260200161071d565b50505050905090810190601f1680156107625780820380516001836020036101000a031916815260200191505b5095505050505050600060405180830381600087803b15801561078457600080fd5b505af1925050508015610795575060015b6108e5576107a1610938565b806107ac575061045e565b604051806040016040528060038152602001624c4f4b60e81b8152506040516020018080602001828103825283818151815260200191508051906020019080838360005b838110156108085781810151838201526020016107f0565b50505050905090810190601f1680156108355780820380516001836020036101000a031916815260200191505b509250505060405160208183030381529060405280519060200120816040516020018080602001828103825283818151815260200191508051906020019080838360005b83811015610891578181015183820152602001610879565b50505050905090810190601f1680156108be5780820380516001836020036101000a031916815260200191505b509250505060405160208183030381529060405280519060200120146108e357600080fd5b505b6040805162461bcd60e51b815260206004820152601160248201527f556e61626c6520746f207265656e746572000000000000000000000000000000604482015290519081900360640190fd5b60e01c90565b600060443d1015610948576109db565b600481823e6308c379a061095c8251610932565b14610966576109db565b6040513d600319016004823e80513d67ffffffffffffffff816024840111818411171561099657505050506109db565b828401925082519150808211156109b057505050506109db565b503d830160208284010111156109c8575050506109db565b601f01601f191681016020016040529150505b9056fea26469706673582212209f92c8e50a55b67a1f154731b2b0ed86775511c5c8f0174c196dab1063864f9364736f6c63430007060033",
  "immutableReferences": {},
  "source": "// SPDX-License-Identifier: UNLICENSED\npragma solidity =0.7.6;\n\nimport '../libraries/TickMath.sol';\n\nimport '../interfaces/callback/IUniswapV3SwapCallback.sol';\n\nimport '../interfaces/IUniswapV3Pool.sol';\n\ncontract TestUniswapV3ReentrantCallee is IUniswapV3SwapCallback {\n    string private constant expectedReason = 'LOK';\n\n    function swapToReenter(address pool) external {\n        IUniswapV3Pool(pool).swap(address(0), false, 1, TickMath.MAX_SQRT_RATIO - 1, new bytes(0));\n    }\n\n    function uniswapV3SwapCallback(\n        int256,\n        int256,\n        bytes calldata\n    ) external override {\n        // try to reenter swap\n        try IUniswapV3Pool(msg.sender).swap(address(0), false, 1, 0, new bytes(0)) {} catch Error(\n            string memory reason\n        ) {\n            require(keccak256(abi.encode(reason)) == keccak256(abi.encode(expectedReason)));\n        }\n\n        // try to reenter mint\n        try IUniswapV3Pool(msg.sender).mint(address(0), 0, 0, 0, new bytes(0)) {} catch Error(string memory reason) {\n            require(keccak256(abi.encode(reason)) == keccak256(abi.encode(expectedReason)));\n        }\n\n        // try to reenter collect\n        // try IUniswapV3Pool(msg.sender).collect(address(0), 0, 0, 0, 0) {} catch Error(string memory reason) {\n        //     require(keccak256(abi.encode(reason)) == keccak256(abi.encode(expectedReason)));\n        // }\n\n        // try to reenter burn\n        // try IUniswapV3Pool(msg.sender).burn(0, 0, 0) {} catch Error(string memory reason) {\n        //     require(keccak256(abi.encode(reason)) == keccak256(abi.encode(expectedReason)));\n        // }\n\n        // try to reenter flash\n        try IUniswapV3Pool(msg.sender).flash(address(0), 0, 0, new bytes(0)) {} catch Error(string memory reason) {\n            require(keccak256(abi.encode(reason)) == keccak256(abi.encode(expectedReason)));\n        }\n\n        // try to reenter collectProtocol\n        // try IUniswapV3Pool(msg.sender).collectProtocol(address(0), 0, 0) {} catch Error(string memory reason) {\n        //     require(keccak256(abi.encode(reason)) == keccak256(abi.encode(expectedReason)));\n        // }\n\n        require(false, 'Unable to reenter');\n    }\n}\n",
  "sourcePath": "/Users/hua/Codes/block-chain/uniswap-o/v3-core/contracts/test/TestUniswapV3ReentrantCallee.sol",
  "compiler": {
    "name": "solc",
    "version": "0.7.6+commit.7338295f.Emscripten.clang"
  },
  "schemaVersion": "3.4.8",
  "updatedAt": "2023-01-24T23:42:42.144Z",
  "devdoc": {
    "kind": "dev",
    "methods": {},
    "version": 1
  },
  "userdoc": {
    "kind": "user",
    "methods": {},
    "version": 1
  }
}