{
  "contractName": "UniswapV3Factory",
  "abi": [
    {
      "inputs": [],
      "stateMutability": "nonpayable",
      "type": "constructor"
    },
    {
      "anonymous": false,
      "inputs": [
        {
          "indexed": true,
          "internalType": "uint24",
          "name": "fee",
          "type": "uint24"
        },
        {
          "indexed": true,
          "internalType": "int24",
          "name": "tickSpacing",
          "type": "int24"
        }
      ],
      "name": "FeeAmountEnabled",
      "type": "event"
    },
    {
      "anonymous": false,
      "inputs": [
        {
          "indexed": true,
          "internalType": "address",
          "name": "oldOwner",
          "type": "address"
        },
        {
          "indexed": true,
          "internalType": "address",
          "name": "newOwner",
          "type": "address"
        }
      ],
      "name": "OwnerChanged",
      "type": "event"
    },
    {
      "anonymous": false,
      "inputs": [
        {
          "indexed": true,
          "internalType": "address",
          "name": "token0",
          "type": "address"
        },
        {
          "indexed": true,
          "internalType": "address",
          "name": "token1",
          "type": "address"
        },
        {
          "indexed": true,
          "internalType": "uint24",
          "name": "fee",
          "type": "uint24"
        },
        {
          "indexed": false,
          "internalType": "int24",
          "name": "tickSpacing",
          "type": "int24"
        },
        {
          "indexed": false,
          "internalType": "address",
          "name": "pool",
          "type": "address"
        }
      ],
      "name": "PoolCreated",
      "type": "event"
    },
    {
      "inputs": [
        {
          "internalType": "uint24",
          "name": "",
          "type": "uint24"
        }
      ],
      "name": "feeAmountTickSpacing",
      "outputs": [
        {
          "internalType": "int24",
          "name": "",
          "type": "int24"
        }
      ],
      "stateMutability": "view",
      "type": "function"
    },
    {
      "inputs": [
        {
          "internalType": "address",
          "name": "",
          "type": "address"
        },
        {
          "internalType": "address",
          "name": "",
          "type": "address"
        },
        {
          "internalType": "uint24",
          "name": "",
          "type": "uint24"
        }
      ],
      "name": "getPool",
      "outputs": [
        {
          "internalType": "address",
          "name": "",
          "type": "address"
        }
      ],
      "stateMutability": "view",
      "type": "function"
    },
    {
      "inputs": [],
      "name": "owner",
      "outputs": [
        {
          "internalType": "address",
          "name": "",
          "type": "address"
        }
      ],
      "stateMutability": "view",
      "type": "function"
    },
    {
      "inputs": [],
      "name": "parameters",
      "outputs": [
        {
          "internalType": "address",
          "name": "factory",
          "type": "address"
        },
        {
          "internalType": "address",
          "name": "token0",
          "type": "address"
        },
        {
          "internalType": "address",
          "name": "token1",
          "type": "address"
        },
        {
          "internalType": "uint24",
          "name": "fee",
          "type": "uint24"
        },
        {
          "internalType": "int24",
          "name": "tickSpacing",
          "type": "int24"
        }
      ],
      "stateMutability": "view",
      "type": "function"
    },
    {
      "inputs": [
        {
          "internalType": "address",
          "name": "tokenA",
          "type": "address"
        },
        {
          "internalType": "address",
          "name": "tokenB",
          "type": "address"
        },
        {
          "internalType": "uint24",
          "name": "fee",
          "type": "uint24"
        }
      ],
      "name": "createPool",
      "outputs": [
        {
          "internalType": "address",
          "name": "pool",
          "type": "address"
        }
      ],
      "stateMutability": "nonpayable",
      "type": "function"
    },
    {
      "inputs": [
        {
          "internalType": "address",
          "name": "_owner",
          "type": "address"
        }
      ],
      "name": "setOwner",
      "outputs": [],
      "stateMutability": "nonpayable",
      "type": "function"
    },
    {
      "inputs": [
        {
          "internalType": "uint24",
          "name": "fee",
          "type": "uint24"
        },
        {
          "internalType": "int24",
          "name": "tickSpacing",
          "type": "int24"
        }
      ],
      "name": "enableFeeAmount",
      "outputs": [],
      "stateMutability": "nonpayable",
      "type": "function"
    }
  ],
  "bytecode": "0x60a060405234801561001057600080fd5b503060601b608052600380546001600160a01b031916339081179091556040516000907fb532073b38c83145e3e5135377a08bf9aab55bc0fd7c1179cd4fb995d2a5159c908290a36101f4600081815260046020527ffb8cf1d12598d1a039dd1d106665851a96aadf67d0d9ed76fceea282119208b7805462ffffff1916600a908117909155604051909291600080516020615e7f83398151915291a3610bb8600081815260046020527f72dffa9b822156d9cf4b0090fa0b656bcb9cc2b2c60eb6acfc20a34f54b31743805462ffffff1916603c908117909155604051909291600080516020615e7f83398151915291a3612710600081815260046020527f8cc740d51daa94ff54f33bd779c2d20149f524c340519b49181be5a08615f829805462ffffff191660c8908117909155604051909291600080516020615e7f83398151915291a360805160601c615d0b610174600039806105515250615d0b6000f3fe608060405234801561001057600080fd5b506004361061007d5760003560e01c8063890357301161005b578063890357301461013b5780638a7c195f146101855780638da5cb5b146101b0578063a1671295146101b85761007d565b806313af4035146100825780631698ee82146100aa57806322afcccb14610102575b600080fd5b6100a86004803603602081101561009857600080fd5b50356001600160a01b03166101f4565b005b6100e6600480360360608110156100c057600080fd5b5080356001600160a01b03908116916020810135909116906040013562ffffff16610267565b604080516001600160a01b039092168252519081900360200190f35b6101246004803603602081101561011857600080fd5b503562ffffff16610293565b6040805160029290920b8252519081900360200190f35b6101436102a8565b604080516001600160a01b0396871681529486166020860152929094168383015262ffffff16606083015260029290920b608082015290519081900360a00190f35b6100a86004803603604081101561019b57600080fd5b5062ffffff813516906020013560020b6102de565b6100e66103a1565b6100e6600480360360608110156101ce57600080fd5b5080356001600160a01b03908116916020810135909116906040013562ffffff166103b0565b6003546001600160a01b0316331461020b57600080fd5b6003546040516001600160a01b038084169216907fb532073b38c83145e3e5135377a08bf9aab55bc0fd7c1179cd4fb995d2a5159c90600090a3600380546001600160a01b0319166001600160a01b0392909216919091179055565b60056020908152600093845260408085208252928452828420905282529020546001600160a01b031681565b60046020526000908152604090205460020b81565b600054600154600280546001600160a01b03938416939283169281169162ffffff600160a01b83041691600160b81b9004900b85565b6003546001600160a01b031633146102f557600080fd5b620f42408262ffffff161061030957600080fd5b60008160020b13801561032057506140008160020b125b61032957600080fd5b62ffffff8216600090815260046020526040902054600290810b900b1561034f57600080fd5b62ffffff828116600081815260046020526040808220805462ffffff1916600287900b958616179055517fc66a3fdf07232cdd185febcc6579d408c241b47ae2f9907d84be655141eeaecc9190a35050565b6003546001600160a01b031681565b60006103ba610546565b826001600160a01b0316846001600160a01b031614156103d957600080fd5b600080846001600160a01b0316866001600160a01b0316106103fc5784866103ff565b85855b90925090506001600160a01b03821661041757600080fd5b62ffffff8416600090815260046020526040902054600290810b9081900b61043e57600080fd5b6001600160a01b0383811660009081526005602090815260408083208685168452825280832062ffffff8a168452909152902054161561047d57600080fd5b61048a308484888561057d565b6001600160a01b03808516600081815260056020818152604080842089871680865290835281852062ffffff8e168087529084528286208054988a166001600160a01b0319998a1681179091558287529484528286208787528452828620818752845294829020805490971684179096558051600289900b815291820192909252815195995091947f783cca1c0412dd0d695e784568c96da2e9c22ff989357a2e8b1d9b2b4e6b71189281900390910190a45050509392505050565b306001600160a01b037f0000000000000000000000000000000000000000000000000000000000000000161461057b57600080fd5b565b6040805160a0810182526001600160a01b03878116808352878216602080850182905292881684860181905262ffffff888116606080880182905260028a810b6080998a01819052600080546001600160a01b03199081169099178155600180548a1689179055825490981686177fffffffffffffffffff000000ffffffffffffffffffffffffffffffffffffffff16600160a01b8502177fffffffffffff000000ffffffffffffffffffffffffffffffffffffffffffffff16600160b81b91830b9095160293909317909255875180870194909452838801929092528281019190915285518083039091018152930193849052825192909101919091209091610686906106f5565b8190604051809103906000f59050801580156106a6573d6000803e3d6000fd5b50600080546001600160a01b0319908116909155600180549091169055600280547fffffffffffff00000000000000000000000000000000000000000000000000001690559695505050505050565b6155d3806107038339019056fe6101606040523480156200001257600080fd5b503060601b60805260408051630890357360e41b81529051600091339163890357309160048082019260a092909190829003018186803b1580156200005657600080fd5b505afa1580156200006b573d6000803e3d6000fd5b505050506040513d60a08110156200008257600080fd5b508051602080830151604084015160608086015160809096015160e896871b6001600160e81b0319166101005291811b6001600160601b031990811660e05292811b831660c0529390931b1660a052600282810b900b90921b610120529150620000f79082906200010f811b620023a217901c565b60801b6001600160801b03191661014052506200017d565b60008082600281900b620d89e719816200012557fe5b05029050600083600281900b620d89e8816200013d57fe5b0502905060008460020b83830360020b816200015557fe5b0560010190508062ffffff166001600160801b038016816200017357fe5b0495945050505050565b60805160601c60a05160601c60c05160601c60e05160601c6101005160e81c6101205160e81c6101405160801c61539d6200023660003980611e4f52806148095280614840525080610c2e528061211b528061487452806148a6525080610d1d5280611a465280611a7d52806121635250806111f55280611b00528061213f528061367152806138f052508061090052806113235280611acf528061352852806138b35250806120f7525080612419525061539d6000f3fe6080604052600436106101805760003560e01c8063514ea4bf116100d6578063d0c93a7c1161007f578063f305839911610059578063f305839914610827578063f30dba931461083c578063f637731d146108cb57610180565b8063d0c93a7c146107b9578063d21220a7146107e5578063ddca3f43146107fa57610180565b8063883bdbfd116100b0578063883bdbfd14610626578063a38807f21461073c578063c45a0155146107a457610180565b8063514ea4bf1461057e5780635339c296146105e457806370cf754a1461061157610180565b8063252c09d7116101385780633c8a7d8d116101125780633c8a7d8d1461040f57806346141319146104be578063490e6cbc146104e557610180565b8063252c09d71461031757806332148f671461037b5780633850c7bd146103a957610180565b806313ee0ea61161016957806313ee0ea6146102725780631a686502146102a25780631ad8b03b146102d357610180565b80630dfe168114610185578063128acb08146101b6575b600080fd5b34801561019157600080fd5b5061019a6108fe565b604080516001600160a01b039092168252519081900360200190f35b3480156101c257600080fd5b50610259600480360360a08110156101d957600080fd5b6001600160a01b0382358116926020810135151592604082013592606083013516919081019060a08101608082013564010000000081111561021a57600080fd5b82018360208201111561022c57600080fd5b8035906020019184600183028401116401000000008311171561024e57600080fd5b509092509050610922565b6040805192835260208301919091528051918290030190f35b6102a06004803603606081101561028857600080fd5b508035906020810135906040013562ffffff166114db565b005b3480156102ae57600080fd5b506102b7611528565b604080516001600160801b039092168252519081900360200190f35b3480156102df57600080fd5b506102e8611537565b60405180836001600160801b03168152602001826001600160801b031681526020019250505060405180910390f35b34801561032357600080fd5b506103416004803603602081101561033a57600080fd5b5035611551565b6040805163ffffffff909516855260069390930b60208501526001600160a01b039091168383015215156060830152519081900360800190f35b34801561038757600080fd5b506102a06004803603602081101561039e57600080fd5b503561ffff16611597565b3480156103b557600080fd5b506103be611691565b604080516001600160a01b03909816885260029690960b602088015261ffff9485168787015292841660608701529216608085015260ff90911660a0840152151560c0830152519081900360e00190f35b34801561041b57600080fd5b50610259600480360360a081101561043257600080fd5b6001600160a01b03823516916020810135600290810b92604083013590910b916001600160801b036060820135169181019060a08101608082013564010000000081111561047f57600080fd5b82018360208201111561049157600080fd5b803590602001918460018302840111640100000000831117156104b357600080fd5b5090925090506116e1565b3480156104ca57600080fd5b506104d361199d565b60408051918252519081900360200190f35b3480156104f157600080fd5b506102a06004803603608081101561050857600080fd5b6001600160a01b03823516916020810135916040820135919081019060808101606082013564010000000081111561053f57600080fd5b82018360208201111561055157600080fd5b8035906020019184600183028401116401000000008311171561057357600080fd5b5090925090506119a3565b34801561058a57600080fd5b506105a8600480360360208110156105a157600080fd5b5035611dfe565b604080516001600160801b0396871681526020810195909552848101939093529084166060840152909216608082015290519081900360a00190f35b3480156105f057600080fd5b506104d36004803603602081101561060757600080fd5b503560010b611e3b565b34801561061d57600080fd5b506102b7611e4d565b34801561063257600080fd5b506106a36004803603602081101561064957600080fd5b81019060208101813564010000000081111561066457600080fd5b82018360208201111561067657600080fd5b8035906020019184602083028401116401000000008311171561069857600080fd5b509092509050611e71565b604051808060200180602001838103835285818151815260200191508051906020019060200280838360005b838110156106e75781810151838201526020016106cf565b50505050905001838103825284818151815260200191508051906020019060200280838360005b8381101561072657818101518382015260200161070e565b5050505090500194505050505060405180910390f35b34801561074857600080fd5b506107736004803603604081101561075f57600080fd5b508035600290810b9160200135900b611efe565b6040805160069490940b84526001600160a01b03909216602084015263ffffffff1682820152519081900360600190f35b3480156107b057600080fd5b5061019a6120f5565b3480156107c557600080fd5b506107ce612119565b6040805160029290920b8252519081900360200190f35b3480156107f157600080fd5b5061019a61213d565b34801561080657600080fd5b5061080f612161565b6040805162ffffff9092168252519081900360200190f35b34801561083357600080fd5b506104d3612185565b34801561084857600080fd5b506108696004803603602081101561085f57600080fd5b503560020b61218b565b604080516001600160801b039099168952600f9790970b602089015287870195909552606087019390935260069190910b60808601526001600160a01b031660a085015263ffffffff1660c0840152151560e083015251908190036101000190f35b3480156108d757600080fd5b506102a0600480360360208110156108ee57600080fd5b50356001600160a01b03166121f9565b7f000000000000000000000000000000000000000000000000000000000000000081565b60008061092d61240e565b85610964576040805162461bcd60e51b8152602060048201526002602482015261415360f01b604482015290519081900360640190fd5b6040805160e0810182526000546001600160a01b0381168252600160a01b8104600290810b810b900b602083015261ffff600160b81b8204811693830193909352600160c81b810483166060830152600160d81b8104909216608082015260ff600160e81b8304811660a0830152600160f01b909204909116151560c08201819052610a1d576040805162461bcd60e51b81526020600482015260036024820152624c4f4b60e81b604482015290519081900360640190fd5b87610a685780600001516001600160a01b0316866001600160a01b0316118015610a63575073fffd8963efd1fc6a506488495d951d5263988d266001600160a01b038716105b610a9a565b80600001516001600160a01b0316866001600160a01b0316108015610a9a57506401000276a36001600160a01b038716115b610ad1576040805162461bcd60e51b815260206004820152600360248201526214d41360ea1b604482015290519081900360640190fd5b6000805460ff60f01b191681556040805160c08101909152808a610b005760048460a0015160ff16901c610b13565b60108460a0015160ff1681610b1157fe5b065b60ff1681526004546001600160801b03166020820152604001610b34612445565b63ffffffff168152602001600060060b815260200160006001600160a01b031681526020016000151581525090506000808913905060006040518060e001604052808b81526020016000815260200185600001516001600160a01b03168152602001856020015160020b81526020018c610bb057600254610bb4565b6001545b815260200160006001600160801b0316815260200184602001516001600160801b031681525090505b805115801590610c035750886001600160a01b031681604001516001600160a01b031614155b15610fcd57610c10615304565b60408201516001600160a01b031681526060820151610c53906006907f00000000000000000000000000000000000000000000000000000000000000008f612449565b15156040830152600290810b810b60208301819052620d89e719910b1215610c8457620d89e7196020820152610ca3565b6020810151620d89e860029190910b1315610ca357620d89e860208201525b610cb0816020015161258b565b6001600160a01b031660608201526040820151610d41908d610cea578b6001600160a01b031683606001516001600160a01b031611610d04565b8b6001600160a01b031683606001516001600160a01b0316105b610d12578260600151610d14565b8b5b60c085015185517f00000000000000000000000000000000000000000000000000000000000000006128bd565b60c085015260a084015260808301526001600160a01b031660408301528215610da357610d778160c00151826080015101612aaf565b825103825260a0810151610d9990610d8e90612aaf565b602084015190612ac5565b6020830152610dde565b610db08160a00151612aaf565b825101825260c08101516080820151610dd891610dcd9101612aaf565b602084015190612ae1565b60208301525b835160ff1615610e24576000846000015160ff168260c0015181610dfe57fe5b60c0840180519290910491829003905260a0840180519091016001600160801b03169052505b60c08201516001600160801b031615610e6357610e578160c00151600160801b8460c001516001600160801b0316612af7565b60808301805190910190525b80606001516001600160a01b031682604001516001600160a01b03161415610f8c57806040015115610f63578360a00151610eed57610ecb846040015160008760200151886040015188602001518a606001516008612ba7909695949392919063ffffffff16565b6001600160a01b03166080860152600690810b900b6060850152600160a08501525b6000610f3982602001518e610f0457600154610f0a565b84608001515b8f610f19578560800151610f1d565b6002545b608089015160608a015160408b01516005959493929190612d3a565b90508c15610f45576000035b610f538360c0015182612e0d565b6001600160801b031660c0840152505b8b610f72578060200151610f7b565b60018160200151035b600290810b900b6060830152610fc7565b80600001516001600160a01b031682604001516001600160a01b031614610fc757610fba8260400151612ec3565b600290810b900b60608301525b50610bdd565b836020015160020b816060015160020b146110a85760008061101b86604001518660400151886020015188602001518a606001518b6080015160086131ef909695949392919063ffffffff16565b604085015160608601516000805461ffff60c81b1916600160c81b61ffff958616021761ffff60b81b1916600160b81b95909416949094029290921762ffffff60a01b1916600160a01b62ffffff60029490940b93909316929092029190911773ffffffffffffffffffffffffffffffffffffffff19166001600160a01b03909116179055506110da9050565b60408101516000805473ffffffffffffffffffffffffffffffffffffffff19166001600160a01b039092169190911790555b8060c001516001600160801b031683602001516001600160801b0316146111205760c0810151600480546001600160801b0319166001600160801b039092169190911790555b8a1561117057608081015160015560a08101516001600160801b03161561116b5760a0810151600380546001600160801b031981166001600160801b03918216909301169190911790555b6111b6565b608081015160025560a08101516001600160801b0316156111b65760a0810151600380546001600160801b03808216600160801b92839004821690940116029190911790555b8115158b1515146111cf57602081015181518b036111dc565b80600001518a0381602001515b90965094508a1561131557600085121561121e5761121e7f00000000000000000000000000000000000000000000000000000000000000008d8760000361338c565b60006112286134da565b9050336001600160a01b031663fa461e3388888c8c6040518563ffffffff1660e01b815260040180858152602001848152602001806020018281038252848482818152602001925080828437600081840152601f19601f82011690508083019250505095505050505050600060405180830381600087803b1580156112ac57600080fd5b505af11580156112c0573d6000803e3d6000fd5b505050506112cc6134da565b6112d68289613613565b111561130f576040805162461bcd60e51b815260206004820152600360248201526249494160e81b604482015290519081900360640190fd5b5061143f565b600086121561134c5761134c7f00000000000000000000000000000000000000000000000000000000000000008d8860000361338c565b6000611356613623565b9050336001600160a01b031663fa461e3388888c8c6040518563ffffffff1660e01b815260040180858152602001848152602001806020018281038252848482818152602001925080828437600081840152601f19601f82011690508083019250505095505050505050600060405180830381600087803b1580156113da57600080fd5b505af11580156113ee573d6000803e3d6000fd5b505050506113fa613623565b6114048288613613565b111561143d576040805162461bcd60e51b815260206004820152600360248201526249494160e81b604482015290519081900360640190fd5b505b60408082015160c083015160608085015184518b8152602081018b90526001600160a01b03948516818701526001600160801b039093169183019190915260020b60808201529151908e169133917fc42079f94a6350d7e6235f29174924f928cc2ac818eb64fed8004e115fbcca679181900360a00190a350506000805460ff60f01b1916600160f01b17905550919890975095505050505050565b60006114e88484846136bb565b90506001600160a01b0381166114fd57600080fd5b61150881338661338c565b505060009081526201000760205260409020805460ff1916600117905550565b6004546001600160801b031681565b6003546001600160801b0380821691600160801b90041682565b60088161ffff811061156257600080fd5b015463ffffffff81169150640100000000810460060b90600160581b81046001600160a01b031690600160f81b900460ff1684565b600054600160f01b900460ff166115db576040805162461bcd60e51b81526020600482015260036024820152624c4f4b60e81b604482015290519081900360640190fd5b6000805460ff60f01b191690556115f061240e565b60008054600160d81b900461ffff169061160c60088385613b2f565b6000805461ffff808416600160d81b810261ffff60d81b1990931692909217909255919250831614611679576040805161ffff80851682528316602082015281517fac49e518f90a358f652e4400164f05a5d8f7e35e7747279bc3a93dbf584e125a929181900390910190a15b50506000805460ff60f01b1916600160f01b17905550565b6000546001600160a01b03811690600160a01b810460020b9061ffff600160b81b8204811691600160c81b8104821691600160d81b8204169060ff600160e81b8204811691600160f01b90041687565b600080548190600160f01b900460ff16611728576040805162461bcd60e51b81526020600482015260036024820152624c4f4b60e81b604482015290519081900360640190fd5b6000805460ff60f01b191690556001600160801b03851661174857600080fd5b60008061179660405180608001604052808c6001600160a01b031681526020018b60020b81526020018a60020b815260200161178c8a6001600160801b0316613bd2565b600f0b9052613be3565b925092505081935080925060008060008611156117b8576117b56134da565b91505b84156117c9576117c6613623565b90505b336001600160a01b031663d348799787878b8b6040518563ffffffff1660e01b815260040180858152602001848152602001806020018281038252848482818152602001925080828437600081840152601f19601f82011690508083019250505095505050505050600060405180830381600087803b15801561184b57600080fd5b505af115801561185f573d6000803e3d6000fd5b5050505060008611156118b6576118746134da565b61187e8388613613565b11156118b6576040805162461bcd60e51b815260206004820152600260248201526104d360f41b604482015290519081900360640190fd5b8415611906576118c4613623565b6118ce8287613613565b1115611906576040805162461bcd60e51b81526020600482015260026024820152614d3160f01b604482015290519081900360640190fd5b8960020b8b60020b8d6001600160a01b03167f7a53080ba414158be7ec69b987b5fb7d07dee101fe85488f0853ae16239d0bde338d8b8b60405180856001600160a01b03168152602001846001600160801b0316815260200183815260200182815260200194505050505060405180910390a450506000805460ff60f01b1916600160f01b17905550919890975095505050505050565b60025481565b600054600160f01b900460ff166119e7576040805162461bcd60e51b81526020600482015260036024820152624c4f4b60e81b604482015290519081900360640190fd5b6000805460ff60f01b191690556119fc61240e565b6004546001600160801b031680611a3e576040805162461bcd60e51b81526020600482015260016024820152601360fa1b604482015290519081900360640190fd5b6000611a73867f000000000000000000000000000000000000000000000000000000000000000062ffffff16620f4240613e23565b90506000611aaa867f000000000000000000000000000000000000000000000000000000000000000062ffffff16620f4240613e23565b90506000611ab66134da565b90506000611ac2613623565b90508815611af557611af57f00000000000000000000000000000000000000000000000000000000000000008b8b61338c565b8715611b2657611b267f00000000000000000000000000000000000000000000000000000000000000008b8a61338c565b336001600160a01b031663e9cbafb085858a8a6040518563ffffffff1660e01b815260040180858152602001848152602001806020018281038252848482818152602001925080828437600081840152601f19601f82011690508083019250505095505050505050600060405180830381600087803b158015611ba857600080fd5b505af1158015611bbc573d6000803e3d6000fd5b505050506000611bca6134da565b90506000611bd6613623565b905081611be38588613613565b1115611c1b576040805162461bcd60e51b8152602060048201526002602482015261046360f41b604482015290519081900360640190fd5b80611c268487613613565b1115611c5e576040805162461bcd60e51b8152602060048201526002602482015261463160f01b604482015290519081900360640190fd5b8382038382038115611ced5760008054600160e81b9004600f16908115611c91578160ff168481611c8b57fe5b04611c94565b60005b90506001600160801b03811615611cc757600380546001600160801b038082168401166001600160801b03199091161790555b611ce1818503600160801b8d6001600160801b0316612af7565b60018054909101905550505b8015611d785760008054600160e81b900460041c600f16908115611d1d578160ff168381611d1757fe5b04611d20565b60005b90506001600160801b03811615611d5257600380546001600160801b03600160801b8083048216850182160291161790555b611d6c818403600160801b8d6001600160801b0316612af7565b60028054909101905550505b8d6001600160a01b0316336001600160a01b03167fbdbdb71d7860376ba52b25a5028beea23581364a40522f6bcfb86bb1f2dca6338f8f86866040518085815260200184815260200183815260200182815260200194505050505060405180910390a350506000805460ff60f01b1916600160f01b179055505050505050505050505050565b60076020526000908152604090208054600182015460028301546003909301546001600160801b0392831693919281811691600160801b90041685565b60066020526000908152604090205481565b7f000000000000000000000000000000000000000000000000000000000000000081565b606080611e7c61240e565b611ef3611e87612445565b858580806020026020016040519081016040528093929190818152602001838360200280828437600092018290525054600454600896959450600160a01b820460020b935061ffff600160b81b8304811693506001600160801b0390911691600160c81b900416613e5d565b915091509250929050565b6000806000611f0b61240e565b611f158585613fb7565b600285810b810b60009081526005602052604080822087840b90930b825281206003830154600681900b9367010000000000000082046001600160a01b0316928492600160d81b810463ffffffff169284929091600160f81b900460ff1680611f7d57600080fd5b6003820154600681900b985067010000000000000081046001600160a01b03169650600160d81b810463ffffffff169450600160f81b900460ff1680611fc257600080fd5b50506040805160e0810182526000546001600160a01b0381168252600160a01b8104600290810b810b810b6020840181905261ffff600160b81b8404811695850195909552600160c81b830485166060850152600160d81b8304909416608084015260ff600160e81b8304811660a0850152600160f01b909204909116151560c08301529093508e810b91900b1215905061206b575093909403965090039350900390506120ee565b8a60020b816020015160020b12156120df576000612087612445565b60208301516040840151600454606086015193945060009384936120bd936008938893879392916001600160801b031690612ba7565b9a9003989098039b5050949096039290920396509091030392506120ee915050565b50949093039650039350900390505b9250925092565b7f000000000000000000000000000000000000000000000000000000000000000081565b7f000000000000000000000000000000000000000000000000000000000000000081565b7f000000000000000000000000000000000000000000000000000000000000000081565b7f000000000000000000000000000000000000000000000000000000000000000081565b60015481565b60056020526000908152604090208054600182015460028301546003909301546001600160801b03831693600160801b909304600f0b9290600681900b9067010000000000000081046001600160a01b031690600160d81b810463ffffffff1690600160f81b900460ff1688565b6000546001600160a01b03161561223c576040805162461bcd60e51b8152602060048201526002602482015261414960f01b604482015290519081900360640190fd5b600061224782612ec3565b905060008061225f612257612445565b600890614080565b6040805160e0810182526001600160a01b038816808252600288810b6020808501829052600085870181905261ffff898116606088018190529089166080880181905260a08801839052600160c0909801979097528154600160f01b73ffffffffffffffffffffffffffffffffffffffff19909116871762ffffff60a01b1916600160a01b62ffffff9787900b9790971696909602959095177fffffffffff00000000ffffffffffffffffffffffffffffffffffffffffffffff16600160c81b9091021761ffff60d81b1916600160d81b909602959095177fff0000ffffffffffffffffffffffffffffffffffffffffffffffffffffffffff1692909217909355835191825281019190915281519395509193507f98636036cb66a9c19a37435efc1e90142190214e8abeb821bdba3f2990dd4c9592918290030190a150505050565b60008082600281900b620d89e719816123b757fe5b05029050600083600281900b620d89e8816123ce57fe5b0502905060008460020b83830360020b816123e557fe5b0560010190508062ffffff166001600160801b0380168161240257fe5b0493505050505b919050565b306001600160a01b037f0000000000000000000000000000000000000000000000000000000000000000161461244357600080fd5b565b4290565b60008060008460020b8660020b8161245d57fe5b05905060008660020b12801561248457508460020b8660020b8161247d57fe5b0760020b15155b1561248e57600019015b8315612503576000806124a0836140cc565b600182810b810b600090815260208d9052604090205460ff83169190911b800160001901908116801515975092945090925090856124e557888360ff168603026124f8565b886124ef826140de565b840360ff168603025b965050505050612581565b600080612512836001016140cc565b91509150600060018260ff166001901b031990506000818b60008660010b60010b815260200190815260200160002054169050806000141595508561256457888360ff0360ff1686600101010261257a565b888361256f8361417e565b0360ff168660010101025b9650505050505b5094509492505050565b60008060008360020b126125a2578260020b6125aa565b8260020b6000035b9050620d89e88111156125e8576040805162461bcd60e51b81526020600482015260016024820152601560fa1b604482015290519081900360640190fd5b6000600182166125fc57600160801b61260e565b6ffffcb933bd6fad37aa2d162d1a5940015b70ffffffffffffffffffffffffffffffffff1690506002821615612642576ffff97272373d413259a46990580e213a0260801c5b6004821615612661576ffff2e50f5f656932ef12357cf3c7fdcc0260801c5b6008821615612680576fffe5caca7e10e4e61c3624eaa0941cd00260801c5b601082161561269f576fffcb9843d60f6159c9db58835c9266440260801c5b60208216156126be576fff973b41fa98c081472e6896dfb254c00260801c5b60408216156126dd576fff2ea16466c96a3843ec78b326b528610260801c5b60808216156126fc576ffe5dee046a99a2a811c461f1969c30530260801c5b61010082161561271c576ffcbe86c7900a88aedcffc83b479aa3a40260801c5b61020082161561273c576ff987a7253ac413176f2b074cf7815e540260801c5b61040082161561275c576ff3392b0822b70005940c7a398e4b70f30260801c5b61080082161561277c576fe7159475a2c29b7443b29c7fa6e889d90260801c5b61100082161561279c576fd097f3bdfd2022b8845ad8f792aa58250260801c5b6120008216156127bc576fa9f746462d870fdf8a65dc1f90e061e50260801c5b6140008216156127dc576f70d869a156d2a1b890bb3df62baf32f70260801c5b6180008216156127fc576f31be135f97d08fd981231505542fcfa60260801c5b6201000082161561281d576f09aa508b5b7a84e1c677de54f3e99bc90260801c5b6202000082161561283d576e5d6af8dedb81196699c329225ee6040260801c5b6204000082161561285c576d2216e584f5fa1ea926041bedfe980260801c5b62080000821615612879576b048a170391f7dc42444e8fa20260801c5b60008460020b131561289457806000198161289057fe5b0490505b6401000000008106156128a85760016128ab565b60005b60ff16602082901c0192505050919050565b60008080806001600160a01b03808916908a1610158187128015906129425760006128f68989620f42400362ffffff16620f4240612af7565b90508261290f5761290a8c8c8c6001614268565b61291c565b61291c8b8d8c60016142e3565b955085811061292d578a965061293c565b6129398c8b83866143a0565b96505b5061298c565b81612959576129548b8b8b60006142e3565b612966565b6129668a8c8b6000614268565b935083886000031061297a5789955061298c565b6129898b8a8a600003856143ec565b95505b6001600160a01b038a81169087161482156129ef578080156129ab5750815b6129c1576129bc878d8c60016142e3565b6129c3565b855b95508080156129d0575081155b6129e6576129e1878d8c6000614268565b6129e8565b845b9450612a39565b8080156129f95750815b612a0f57612a0a8c888c6001614268565b612a11565b855b9550808015612a1e575081155b612a3457612a2f8c888c60006142e3565b612a36565b845b94505b81158015612a4957508860000385115b15612a55578860000394505b818015612a7457508a6001600160a01b0316876001600160a01b031614155b15612a83578589039350612aa0565b612a9d868962ffffff168a620f42400362ffffff16613e23565b93505b50505095509550955095915050565b6000600160ff1b8210612ac157600080fd5b5090565b80820382811315600083121514612adb57600080fd5b92915050565b81810182811215600083121514612adb57600080fd5b6000808060001985870986860292508281109083900303905080612b2d5760008411612b2257600080fd5b508290049050612ba0565b808411612b3957600080fd5b6000848688096000868103871696879004966002600389028118808a02820302808a02820302808a02820302808a02820302808a02820302808a02909103029181900381900460010186841190950394909402919094039290920491909117919091029150505b9392505050565b60008063ffffffff8716612c4e576000898661ffff1661ffff8110612bc857fe5b60408051608081018252919092015463ffffffff8082168084526401000000008304600690810b810b900b6020850152600160581b83046001600160a01b031694840194909452600160f81b90910460ff16151560608301529092508a1614612c3a57612c37818a8988614438565b90505b806020015181604001519250925050612d2e565b868803600080612c638c8c858c8c8c8c6144e8565b91509150816000015163ffffffff168363ffffffff161415612c95578160200151826040015194509450505050612d2e565b805163ffffffff84811691161415612cbd578060200151816040015194509450505050612d2e565b8151815160208085015190840151918390039286039163ffffffff80841692908516910360060b81612ceb57fe5b05028460200151018263ffffffff168263ffffffff1686604001518660400151036001600160a01b03160281612d1d57fe5b048560400151019650965050505050505b97509795505050505050565b600295860b860b60009081526020979097526040909620600181018054909503909455938301805490920390915560038201805463ffffffff600160d81b6001600160a01b036701000000000000008085048216909603169094027fffffffffff0000000000000000000000000000000000000000ffffffffffffff90921691909117600681810b90960390950b66ffffffffffffff1666ffffffffffffff199095169490941782810485169095039093160263ffffffff60d81b1990931692909217905554600160801b9004600f0b90565b60008082600f0b1215612e7257826001600160801b03168260000384039150816001600160801b031610612e6d576040805162461bcd60e51b81526020600482015260026024820152614c5360f01b604482015290519081900360640190fd5b612adb565b826001600160801b03168284019150816001600160801b03161015612adb576040805162461bcd60e51b81526020600482015260026024820152614c4160f01b604482015290519081900360640190fd5b60006401000276a36001600160a01b03831610801590612eff575073fffd8963efd1fc6a506488495d951d5263988d266001600160a01b038316105b612f34576040805162461bcd60e51b81526020600482015260016024820152602960f91b604482015290519081900360640190fd5b77ffffffffffffffffffffffffffffffffffffffff00000000602083901b166001600160801b03811160071b81811c67ffffffffffffffff811160061b90811c63ffffffff811160051b90811c61ffff811160041b90811c60ff8111600390811b91821c600f811160021b90811c918211600190811b92831c97908811961790941790921717909117171760808110612fd557607f810383901c9150612fdf565b80607f0383901b91505b908002607f81811c60ff83811c9190911c800280831c81831c1c800280841c81841c1c800280851c81851c1c800280861c81861c1c800280871c81871c1c800280881c81881c1c800280891c81891c1c8002808a1c818a1c1c8002808b1c818b1c1c8002808c1c818c1c1c8002808d1c818d1c1c8002808e1c9c81901c9c909c1c80029c8d901c9e9d607f198f0160401b60c09190911c678000000000000000161760c19b909b1c674000000000000000169a909a1760c29990991c672000000000000000169890981760c39790971c671000000000000000169690961760c49590951c670800000000000000169490941760c59390931c670400000000000000169290921760c69190911c670200000000000000161760c79190911c670100000000000000161760c89190911c6680000000000000161760c99190911c6640000000000000161760ca9190911c6620000000000000161760cb9190911c6610000000000000161760cc9190911c6608000000000000161760cd9190911c66040000000000001617693627a301d71055774c8581026f028f6481ab7f045a5af012a19d003aa9198101608090811d906fdb2df09e81959a81455e260799a0632f8301901d600281810b9083900b146131e057886001600160a01b03166131c48261258b565b6001600160a01b031611156131d957816131db565b805b6131e2565b815b9998505050505050505050565b6000806000898961ffff1661ffff811061320557fe5b60408051608081018252919092015463ffffffff8082168084526401000000008304600690810b810b900b6020850152600160581b83046001600160a01b031694840194909452600160f81b90910460ff1615156060830152909250891614156132755788859250925050612d2e565b8461ffff168461ffff1611801561329657506001850361ffff168961ffff16145b156132a3578391506132a7565b8491505b8161ffff168960010161ffff16816132bb57fe5b0692506132ca81898989614438565b8a8461ffff1661ffff81106132db57fe5b825191018054602084015160408501516060909501511515600160f81b026001600160f81b036001600160a01b03909616600160581b027fff0000000000000000000000000000000000000000ffffffffffffffffffffff60069390930b66ffffffffffffff16640100000000026affffffffffffff000000001963ffffffff90971663ffffffff199095169490941795909516929092171692909217929092161790555097509795505050505050565b604080516001600160a01b038481166024830152604480830185905283518084039091018152606490920183526020820180516001600160e01b031663a9059cbb60e01b1781529251825160009485949389169392918291908083835b602083106134085780518252601f1990920191602091820191016133e9565b6001836020036101000a0380198251168184511680821785525050505050509050019150506000604051808303816000865af19150503d806000811461346a576040519150601f19603f3d011682016040523d82523d6000602084013e61346f565b606091505b509150915081801561349d57508051158061349d575080806020019051602081101561349a57600080fd5b50515b6134d3576040805162461bcd60e51b81526020600482015260026024820152612a2360f11b604482015290519081900360640190fd5b5050505050565b604080513060248083019190915282518083039091018152604490910182526020810180516001600160e01b03166370a0823160e01b17815291518151600093849384936001600160a01b037f00000000000000000000000000000000000000000000000000000000000000001693919290918291908083835b602083106135735780518252601f199092019160209182019101613554565b6001836020036101000a038019825116818451168082178552505050505050905001915050600060405180830381855afa9150503d80600081146135d3576040519150601f19603f3d011682016040523d82523d6000602084013e6135d8565b606091505b50915091508180156135ec57506020815110155b6135f557600080fd5b80806020019051602081101561360a57600080fd5b50519250505090565b80820182811015612adb57600080fd5b604080513060248083019190915282518083039091018152604490910182526020810180516001600160e01b03166370a0823160e01b17815291518151600093849384936001600160a01b037f0000000000000000000000000000000000000000000000000000000000000000169391929091829190808383602083106135735780518252601f199092019160209182019101613554565b600082815262010007602052604081205460ff16156136dc57506000612ba0565b620100085460408051631ae255b360e21b815260048101869052905160009283926060926001600160a01b0390921691636b8956cc916024808201928792909190829003018186803b15801561373157600080fd5b505afa158015613745573d6000803e3d6000fd5b505050506040513d6000823e601f3d908101601f19168201604052606081101561376e57600080fd5b8151602083015160408085018051915193959294830192918464010000000082111561379957600080fd5b9083019060208201858111156137ae57600080fd5b82516401000000008111828201881017156137c857600080fd5b82525081516020918201929091019080838360005b838110156137f55781810151838201526020016137dd565b50505050905090810190601f1680156138225780820380516001836020036101000a031916815260200191505b506040525050508093508194508295505050506000308860405160240180836001600160a01b031681526020018281526020019250505060405160208183030381529060405263a9059cbb60e01b6001600160e01b0319166020820180516001600160e01b0383818316178352505050509050336001600160a01b0316846001600160a01b031614158061392557507f00000000000000000000000000000000000000000000000000000000000000006001600160a01b0316836001600160a01b03161415801561392557507f00000000000000000000000000000000000000000000000000000000000000006001600160a01b0316836001600160a01b031614155b80613937575061393581836146e5565b155b15613949576000945050505050612ba0565b620100085460408051633452e2db60e01b815290516000926001600160a01b031691633452e2db916004808301926020929190829003018186803b15801561399057600080fd5b505afa1580156139a4573d6000803e3d6000fd5b505050506040513d60208110156139ba57600080fd5b50519050348111156139cb57600080fd5b62010008546040805162ffffff8a166024820152604481018b9052600660648083019190915282518083039091018152608490910182526020810180516001600160e01b031663ba154cff60e01b1781529151815160009485946001600160a01b039091169387939092909182918083835b60208310613a5c5780518252601f199092019160209182019101613a3d565b6001836020036101000a03801982511681845116808217855250505050505090500191505060006040518083038185875af1925050503d8060008114613abe576040519150601f19603f3d011682016040523d82523d6000602084013e613ac3565b606091505b50915091508115613b1157613af8816001604051602001808281526020019150506040516020818303038152906040526146e5565b15613b0c5785975050505050505050612ba0565b613b21565b6000975050505050505050612ba0565b505050505050509392505050565b6000808361ffff1611613b6d576040805162461bcd60e51b81526020600482015260016024820152604960f81b604482015290519081900360640190fd5b8261ffff168261ffff1611613b83575081612ba0565b825b8261ffff168161ffff161015613bc9576001858261ffff1661ffff8110613ba857fe5b01805463ffffffff191663ffffffff92909216919091179055600101613b85565b50909392505050565b80600f81900b811461240957600080fd5b6000806000613bf061240e565b613c0284602001518560400151613fb7565b6040805160e0810182526000546001600160a01b0381168252600160a01b8104600290810b810b900b602080840182905261ffff600160b81b8404811685870152600160c81b84048116606080870191909152600160d81b8504909116608086015260ff600160e81b8504811660a0870152600160f01b909404909316151560c085015288519089015194890151928901519394613ca69491939092909190614779565b93508460600151600f0b600014613e1b57846020015160020b816020015160020b1215613cfb57613cf4613cdd866020015161258b565b613cea876040015161258b565b876060015161492e565b9250613e1b565b846040015160020b816020015160020b1215613df15760045460408201516001600160801b0390911690613d4d90613d31612445565b60208501516060860151608087015160089493929187916131ef565b6000805461ffff60c81b1916600160c81b61ffff938416021761ffff60b81b1916600160b81b939092169290920217905581516040870151613d9d9190613d939061258b565b886060015161492e565b9350613dbb613daf876020015161258b565b83516060890151614972565b9250613dcb818760600151612e0d565b600480546001600160801b0319166001600160801b039290921691909117905550613e1b565b613e18613e01866020015161258b565b613e0e876040015161258b565b8760600151614972565b91505b509193909250565b6000613e30848484612af7565b905060008280613e3c57fe5b8486091115612ba0576000198110613e5357600080fd5b6001019392505050565b60608060008361ffff1611613e9d576040805162461bcd60e51b81526020600482015260016024820152604960f81b604482015290519081900360640190fd5b865167ffffffffffffffff81118015613eb557600080fd5b50604051908082528060200260200182016040528015613edf578160200160208202803683370190505b509150865167ffffffffffffffff81118015613efa57600080fd5b50604051908082528060200260200182016040528015613f24578160200160208202803683370190505b50905060005b8751811015613faa57613f558a8a8a8481518110613f4457fe5b60200260200101518a8a8a8a612ba7565b848381518110613f6157fe5b60200260200101848481518110613f7457fe5b60200260200101826001600160a01b03166001600160a01b03168152508260060b60060b81525050508080600101915050613f2a565b5097509795505050505050565b8060020b8260020b12613ff7576040805162461bcd60e51b8152602060048201526003602482015262544c5560e81b604482015290519081900360640190fd5b620d89e719600283900b121561403a576040805162461bcd60e51b8152602060048201526003602482015262544c4d60e81b604482015290519081900360640190fd5b620d89e8600282900b131561407c576040805162461bcd60e51b815260206004820152600360248201526254554d60e81b604482015290519081900360640190fd5b5050565b6040805160808101825263ffffffff9283168082526000602083018190529282019290925260016060909101819052835463ffffffff1916909117909116600160f81b17909155908190565b60020b600881901d9161010090910790565b60008082116140ec57600080fd5b600160801b82106140ff57608091821c91015b68010000000000000000821061411757604091821c91015b640100000000821061412b57602091821c91015b62010000821061413d57601091821c91015b610100821061414e57600891821c91015b6010821061415e57600491821c91015b6004821061416e57600291821c91015b6002821061240957600101919050565b600080821161418c57600080fd5b5060ff6001600160801b038216156141a757607f19016141af565b608082901c91505b67ffffffffffffffff8216156141c857603f19016141d0565b604082901c91505b63ffffffff8216156141e557601f19016141ed565b602082901c91505b61ffff82161561420057600f1901614208565b601082901c91505b60ff82161561421a5760071901614222565b600882901c91505b600f821615614234576003190161423c565b600482901c91505b600382161561424e5760011901614256565b600282901c91505b60018216156124095760001901919050565b6000836001600160a01b0316856001600160a01b03161115614288579293925b816142b5576142b0836001600160801b03168686036001600160a01b0316600160601b612af7565b6142d8565b6142d8836001600160801b03168686036001600160a01b0316600160601b613e23565b90505b949350505050565b6000836001600160a01b0316856001600160a01b03161115614303579293925b7bffffffffffffffffffffffffffffffff000000000000000000000000606084901b166001600160a01b03868603811690871661433f57600080fd5b8361436f57866001600160a01b03166143628383896001600160a01b0316612af7565b8161436957fe5b04614395565b6143956143868383896001600160a01b0316613e23565b886001600160a01b03166149a1565b979650505050505050565b600080856001600160a01b0316116143b757600080fd5b6000846001600160801b0316116143cd57600080fd5b816143df576142b085858560016149ac565b6142d88585856001614a8d565b600080856001600160a01b03161161440357600080fd5b6000846001600160801b03161161441957600080fd5b8161442b576142b08585856000614a8d565b6142d885858560006149ac565b614440615340565b600085600001518503905060405180608001604052808663ffffffff1681526020018263ffffffff168660020b0288602001510160060b81526020016000856001600160801b031611614494576001614496565b845b6001600160801b031673ffffffff00000000000000000000000000000000608085901b16816144c157fe5b048860400151016001600160a01b0316815260200160011515815250915050949350505050565b6144f0615340565b6144f8615340565b888561ffff1661ffff811061450957fe5b60408051608081018252919092015463ffffffff81168083526401000000008204600690810b810b900b6020840152600160581b82046001600160a01b031693830193909352600160f81b900460ff1615156060820152925061456e90899089614b82565b156145a6578663ffffffff16826000015163ffffffff16141561459057612d2e565b8161459d83898988614438565b91509150612d2e565b888361ffff168660010161ffff16816145bb57fe5b0661ffff1661ffff81106145cb57fe5b60408051608081018252929091015463ffffffff811683526401000000008104600690810b810b900b60208401526001600160a01b03600160581b8204169183019190915260ff600160f81b9091041615156060820181905290925061468257604080516080810182528a5463ffffffff811682526401000000008104600690810b810b900b6020830152600160581b81046001600160a01b031692820192909252600160f81b90910460ff161515606082015291505b61469188836000015189614b82565b6146c8576040805162461bcd60e51b815260206004820152600360248201526213d31160ea1b604482015290519081900360640190fd5b6146d58989898887614c45565b9150915097509795505050505050565b600081518351146146f857506000612adb565b60005b835181101561476f5782818151811061471057fe5b602001015160f81c60f81b6001600160f81b03191684828151811061473157fe5b01602001517fff000000000000000000000000000000000000000000000000000000000000001614614767576000915050612adb565b6001016146fb565b5060019392505050565b60006147886007878787614de5565b60015460025491925090600080600f87900b156148ce5760006147a9612445565b60008054600454929350909182916147f39160089186918591600160a01b810460020b9161ffff600160b81b83048116926001600160801b0390921691600160c81b900416612ba7565b909250905061482d60058d8b8d8b8b87898b60007f0000000000000000000000000000000000000000000000000000000000000000614e49565b945061486460058c8b8d8b8b87898b60017f0000000000000000000000000000000000000000000000000000000000000000614e49565b935084156148985761489860068d7f000000000000000000000000000000000000000000000000000000000000000061501b565b83156148ca576148ca60068c7f000000000000000000000000000000000000000000000000000000000000000061501b565b5050505b6000806148e060058c8c8b8a8a615081565b90925090506148f1878a848461512d565b600089600f0b121561491f57831561490e5761490e60058c6152c2565b821561491f5761491f60058b6152c2565b50505050505095945050505050565b60008082600f0b126149545761494f61494a85858560016142e3565b612aaf565b6142db565b61496761494a85858560000360006142e3565b600003949350505050565b60008082600f0b1261498e5761494f61494a8585856001614268565b61496761494a8585856000036000614268565b808204910615150190565b60008115614a1f5760006001600160a01b038411156149e2576149dd84600160601b876001600160801b0316612af7565b6149fa565b6001600160801b038516606085901b816149f857fe5b045b9050614a17614a126001600160a01b03881683613613565b6152ee565b9150506142db565b60006001600160a01b03841115614a4d57614a4884600160601b876001600160801b0316613e23565b614a64565b614a64606085901b6001600160801b0387166149a1565b905080866001600160a01b031611614a7b57600080fd5b6001600160a01b0386160390506142db565b600082614a9b5750836142db565b7bffffffffffffffffffffffffffffffff000000000000000000000000606085901b168215614b3b576001600160a01b03861684810290858281614adb57fe5b041415614b0c57818101828110614b0a57614b0083896001600160a01b031683613e23565b93505050506142db565b505b614b3282614b2d878a6001600160a01b03168681614b2657fe5b0490613613565b6149a1565b925050506142db565b6001600160a01b03861684810290858281614b5257fe5b04148015614b5f57508082115b614b6857600080fd5b808203614b00614a12846001600160a01b038b1684613e23565b60008363ffffffff168363ffffffff1611158015614bac57508363ffffffff168263ffffffff1611155b15614bc8578163ffffffff168363ffffffff1611159050612ba0565b60008463ffffffff168463ffffffff1611614bf0578363ffffffff1664010000000001614bf8565b8363ffffffff165b64ffffffffff16905060008563ffffffff168463ffffffff1611614c29578363ffffffff1664010000000001614c31565b8363ffffffff165b64ffffffffff169091111595945050505050565b614c4d615340565b614c55615340565b60008361ffff168560010161ffff1681614c6b57fe5b0661ffff169050600060018561ffff16830103905060005b506002818301048961ffff87168281614c9857fe5b0661ffff8110614ca457fe5b60408051608081018252929091015463ffffffff811683526401000000008104600690810b810b900b60208401526001600160a01b03600160581b8204169183019190915260ff600160f81b90910416151560608201819052909550614d0f57806001019250614c83565b898661ffff168260010181614d2057fe5b0661ffff8110614d2c57fe5b60408051608081018252929091015463ffffffff811683526401000000008104600690810b810b900b60208401526001600160a01b03600160581b8204169183019190915260ff600160f81b90910416151560608201528551909450600090614d97908b908b614b82565b9050808015614db05750614db08a8a8760000151614b82565b15614dbb5750614dd8565b80614dcb57600182039250614dd2565b8160010193505b50614c83565b5050509550959350505050565b6040805160609490941b6bffffffffffffffffffffffff1916602080860191909152600293840b60e890811b60348701529290930b90911b60378401528051808403601a018152603a90930181528251928201929092206000908152929052902090565b60028a810b900b600090815260208c90526040812080546001600160801b031682614e74828d612e0d565b9050846001600160801b0316816001600160801b03161115614ec2576040805162461bcd60e51b81526020600482015260026024820152614c4f60f01b604482015290519081900360640190fd5b6001600160801b038281161590821615811415945015614f80578c60020b8e60020b13614f6857600183018b9055600283018a90556003830180547fffffffffff0000000000000000000000000000000000000000ffffffffffffff166701000000000000006001600160a01b038c16021766ffffffffffffff191666ffffffffffffff60068b900b161763ffffffff60d81b1916600160d81b63ffffffff8a16021790555b6003830180546001600160f81b0316600160f81b1790555b82546001600160801b0319166001600160801b03821617835585614fc9578254614fc490614fbf90600160801b9004600f90810b810b908f900b612ae1565b613bd2565b614fea565b8254614fea90614fbf90600160801b9004600f90810b810b908f900b612ac5565b8354600f9190910b6001600160801b03908116600160801b0291161790925550909c9b505050505050505050505050565b8060020b8260020b8161502a57fe5b0760020b1561503857600080fd5b6000806150538360020b8560020b8161504d57fe5b056140cc565b600191820b820b60009081526020979097526040909620805460ff9097169190911b90951890945550505050565b600285810b80820b60009081526020899052604080822088850b850b83529082209193849391929184918291908a900b126150c7575050600182015460028301546150da565b8360010154880391508360020154870390505b6000808b60020b8b60020b12156150fc5750506001830154600284015461510f565b84600101548a0391508460020154890390505b92909803979097039b96909503949094039850939650505050505050565b6040805160a08101825285546001600160801b0390811682526001870154602083015260028701549282019290925260038601548083166060830152600160801b900490911660808201526000600f85900b6151cc5781516001600160801b03166151c4576040805162461bcd60e51b815260206004820152600260248201526104e560f41b604482015290519081900360640190fd5b5080516151db565b81516151d89086612e0d565b90505b60006151ff8360200151860384600001516001600160801b0316600160801b612af7565b905060006152258460400151860385600001516001600160801b0316600160801b612af7565b905086600f0b60001461524c5787546001600160801b0319166001600160801b0384161788555b60018801869055600288018590556001600160801b03821615158061527a57506000816001600160801b0316115b156152b8576003880180546001600160801b031981166001600160801b039182168501821617808216600160801b9182900483168501909216021790555b5050505050505050565b600290810b810b6000908152602092909252604082208281556001810183905590810182905560030155565b806001600160a01b038116811461240957600080fd5b6040805160e081018252600080825260208201819052918101829052606081018290526080810182905260a0810182905260c081019190915290565b6040805160808101825260008082526020820181905291810182905260608101919091529056fea2646970667358221220764b82096937246bd04a8f5bf7503f3e71a7bb63c73c17abac842351fe171d4e64736f6c63430007060033a2646970667358221220c87da847034b8e09f59476499f93e76b34ee0c31df08cca49eb2a7137ca8c81464736f6c63430007060033c66a3fdf07232cdd185febcc6579d408c241b47ae2f9907d84be655141eeaecc",
  "immutableReferences": {
    "5": [
      {
        "length": 32,
        "start": 1361
      }
    ]
  },
  "source": "// SPDX-License-Identifier: BUSL-1.1\npragma solidity =0.7.6;\n\nimport './interfaces/IUniswapV3Factory.sol';\n\nimport './UniswapV3PoolDeployer.sol';\nimport './NoDelegateCall.sol';\n\nimport './UniswapV3Pool.sol';\n\n/// @title Canonical Uniswap V3 factory\n/// @notice Deploys Uniswap V3 pools and manages ownership and control over pool protocol fees\ncontract UniswapV3Factory is IUniswapV3Factory, UniswapV3PoolDeployer, NoDelegateCall {\n    /// @inheritdoc IUniswapV3Factory\n    address public override owner;\n\n    /// @inheritdoc IUniswapV3Factory\n    mapping(uint24 => int24) public override feeAmountTickSpacing;\n    /// @inheritdoc IUniswapV3Factory\n    mapping(address => mapping(address => mapping(uint24 => address))) public override getPool;\n\n    constructor() {\n        owner = msg.sender;\n        emit OwnerChanged(address(0), msg.sender);\n\n        feeAmountTickSpacing[500] = 10;\n        emit FeeAmountEnabled(500, 10);\n        feeAmountTickSpacing[3000] = 60;\n        emit FeeAmountEnabled(3000, 60);\n        feeAmountTickSpacing[10000] = 200;\n        emit FeeAmountEnabled(10000, 200);\n    }\n\n    /// @inheritdoc IUniswapV3Factory\n    function createPool(\n        address tokenA,\n        address tokenB,\n        uint24 fee\n    ) external override noDelegateCall returns (address pool) {\n        require(tokenA != tokenB);\n        (address token0, address token1) = tokenA < tokenB ? (tokenA, tokenB) : (tokenB, tokenA);\n        require(token0 != address(0));\n        int24 tickSpacing = feeAmountTickSpacing[fee];\n        require(tickSpacing != 0);\n        require(getPool[token0][token1][fee] == address(0));\n        pool = deploy(address(this), token0, token1, fee, tickSpacing);\n        getPool[token0][token1][fee] = pool;\n        // populate mapping in the reverse direction, deliberate choice to avoid the cost of comparing addresses\n        getPool[token1][token0][fee] = pool;\n        emit PoolCreated(token0, token1, fee, tickSpacing, pool);\n    }\n\n    /// @inheritdoc IUniswapV3Factory\n    function setOwner(address _owner) external override {\n        require(msg.sender == owner);\n        emit OwnerChanged(owner, _owner);\n        owner = _owner;\n    }\n\n    /// @inheritdoc IUniswapV3Factory\n    function enableFeeAmount(uint24 fee, int24 tickSpacing) public override {\n        require(msg.sender == owner);\n        require(fee < 1000000);\n        // tick spacing is capped at 16384 to prevent the situation where tickSpacing is so large that\n        // TickBitmap#nextInitializedTickWithinOneWord overflows int24 container from a valid tick\n        // 16384 ticks represents a >5x price change with ticks of 1 bips\n        require(tickSpacing > 0 && tickSpacing < 16384);\n        require(feeAmountTickSpacing[fee] == 0);\n\n        feeAmountTickSpacing[fee] = tickSpacing;\n        emit FeeAmountEnabled(fee, tickSpacing);\n    }\n}\n",
  "sourcePath": "/Users/hua/Codes/block-chain/uniswap-o/v3-core/contracts/UniswapV3Factory.sol",
  "compiler": {
    "name": "solc",
    "version": "0.7.6+commit.7338295f.Emscripten.clang"
  },
  "schemaVersion": "3.4.8",
  "updatedAt": "2023-01-24T23:42:42.026Z",
  "devdoc": {
    "kind": "dev",
    "methods": {
      "createPool(address,address,uint24)": {
        "details": "tokenA and tokenB may be passed in either order: token0/token1 or token1/token0. tickSpacing is retrieved from the fee. The call will revert if the pool already exists, the fee is invalid, or the token arguments are invalid.",
        "params": {
          "fee": "The desired fee for the pool",
          "tokenA": "One of the two tokens in the desired pool",
          "tokenB": "The other of the two tokens in the desired pool"
        },
        "returns": {
          "pool": "The address of the newly created pool"
        }
      },
      "enableFeeAmount(uint24,int24)": {
        "details": "Fee amounts may never be removed once enabled",
        "params": {
          "fee": "The fee amount to enable, denominated in hundredths of a bip (i.e. 1e-6)",
          "tickSpacing": "The spacing between ticks to be enforced for all pools created with the given fee amount"
        }
      },
      "setOwner(address)": {
        "details": "Must be called by the current owner",
        "params": {
          "_owner": "The new owner of the factory"
        }
      }
    },
    "stateVariables": {
      "feeAmountTickSpacing": {
        "details": "A fee amount can never be removed, so this value should be hard coded or cached in the calling context",
        "params": {
          "fee": "The enabled fee, denominated in hundredths of a bip. Returns 0 in case of unenabled fee"
        },
        "return": "The tick spacing"
      },
      "getPool": {
        "details": "tokenA and tokenB may be passed in either token0/token1 or token1/token0 order",
        "params": {
          "fee": "The fee collected upon every swap in the pool, denominated in hundredths of a bip",
          "tokenA": "The contract address of either token0 or token1",
          "tokenB": "The contract address of the other token"
        },
        "return": "pool The pool address"
      },
      "owner": {
        "details": "Can be changed by the current owner via setOwner",
        "return": "The address of the factory owner"
      }
    },
    "title": "Canonical Uniswap V3 factory",
    "version": 1
  },
  "userdoc": {
    "events": {
      "FeeAmountEnabled(uint24,int24)": {
        "notice": "Emitted when a new fee amount is enabled for pool creation via the factory"
      },
      "OwnerChanged(address,address)": {
        "notice": "Emitted when the owner of the factory is changed"
      },
      "PoolCreated(address,address,uint24,int24,address)": {
        "notice": "Emitted when a pool is created"
      }
    },
    "kind": "user",
    "methods": {
      "createPool(address,address,uint24)": {
        "notice": "Creates a pool for the given two tokens and fee"
      },
      "enableFeeAmount(uint24,int24)": {
        "notice": "Enables a fee amount with the given tickSpacing"
      },
      "feeAmountTickSpacing(uint24)": {
        "notice": "Returns the tick spacing for a given fee amount, if enabled, or 0 if not enabled"
      },
      "getPool(address,address,uint24)": {
        "notice": "Returns the pool address for a given pair of tokens and a fee, or address 0 if it does not exist"
      },
      "owner()": {
        "notice": "Returns the current owner of the factory"
      },
      "parameters()": {
        "notice": "Get the parameters to be used in constructing the pool, set transiently during pool creation."
      },
      "setOwner(address)": {
        "notice": "Updates the owner of the factory"
      }
    },
    "notice": "Deploys Uniswap V3 pools and manages ownership and control over pool protocol fees",
    "version": 1
  }
}