{
  "contractName": "VerifyTransaction",
  "abi": [
    {
      "inputs": [
        {
          "internalType": "address payable",
          "name": "ethrelayAddr",
          "type": "address"
        }
      ],
      "stateMutability": "nonpayable",
      "type": "constructor"
    },
    {
      "anonymous": false,
      "inputs": [
        {
          "indexed": false,
          "internalType": "bool",
          "name": "res",
          "type": "bool"
        }
      ],
      "name": "Deposit",
      "type": "event"
    },
    {
      "anonymous": false,
      "inputs": [
        {
          "indexed": false,
          "internalType": "uint256",
          "name": "blockNumber",
          "type": "uint256"
        }
      ],
      "name": "SubmittedBlock",
      "type": "event"
    },
    {
      "anonymous": false,
      "inputs": [
        {
          "indexed": false,
          "internalType": "bytes32",
          "name": "txHash",
          "type": "bytes32"
        }
      ],
      "name": "SubmittedTx",
      "type": "event"
    },
    {
      "anonymous": false,
      "inputs": [
        {
          "indexed": false,
          "internalType": "bytes",
          "name": "res",
          "type": "bytes"
        }
      ],
      "name": "Verify",
      "type": "event"
    },
    {
      "anonymous": false,
      "inputs": [
        {
          "indexed": false,
          "internalType": "bytes",
          "name": "blockHeader",
          "type": "bytes"
        },
        {
          "indexed": false,
          "internalType": "uint8",
          "name": "nConfirm",
          "type": "uint8"
        },
        {
          "indexed": false,
          "internalType": "bytes",
          "name": "rlpEncodedTx",
          "type": "bytes"
        },
        {
          "indexed": false,
          "internalType": "bytes",
          "name": "path",
          "type": "bytes"
        },
        {
          "indexed": false,
          "internalType": "bytes",
          "name": "rlpEncodedNodes",
          "type": "bytes"
        }
      ],
      "name": "VerifyArgs",
      "type": "event"
    },
    {
      "anonymous": false,
      "inputs": [
        {
          "indexed": false,
          "internalType": "bool",
          "name": "b",
          "type": "bool"
        }
      ],
      "name": "VerifyBool",
      "type": "event"
    },
    {
      "inputs": [
        {
          "internalType": "uint24",
          "name": "blockNumber",
          "type": "uint24"
        },
        {
          "internalType": "bytes32",
          "name": "txHash",
          "type": "bytes32"
        },
        {
          "internalType": "uint8",
          "name": "noOfConfirmations",
          "type": "uint8"
        }
      ],
      "name": "verify",
      "outputs": [
        {
          "internalType": "bool",
          "name": "",
          "type": "bool"
        }
      ],
      "stateMutability": "payable",
      "type": "function"
    },
    {
      "inputs": [
        {
          "internalType": "uint24",
          "name": "blockNumber",
          "type": "uint24"
        }
      ],
      "name": "isHeaderStored",
      "outputs": [
        {
          "internalType": "bool",
          "name": "",
          "type": "bool"
        }
      ],
      "stateMutability": "view",
      "type": "function"
    },
    {
      "inputs": [
        {
          "internalType": "uint24",
          "name": "blockNumber",
          "type": "uint24"
        },
        {
          "internalType": "bytes",
          "name": "rlpHeader",
          "type": "bytes"
        }
      ],
      "name": "submitBlock",
      "outputs": [],
      "stateMutability": "nonpayable",
      "type": "function"
    },
    {
      "inputs": [
        {
          "internalType": "uint24",
          "name": "blockNumber",
          "type": "uint24"
        },
        {
          "internalType": "bytes",
          "name": "rlpHeader",
          "type": "bytes"
        },
        {
          "internalType": "bytes",
          "name": "rlpParent",
          "type": "bytes"
        },
        {
          "internalType": "uint256[]",
          "name": "dataSetLookup",
          "type": "uint256[]"
        },
        {
          "internalType": "uint256[]",
          "name": "witnessForLookup",
          "type": "uint256[]"
        }
      ],
      "name": "submitAndVerifyBlock",
      "outputs": [],
      "stateMutability": "nonpayable",
      "type": "function"
    },
    {
      "inputs": [
        {
          "internalType": "bytes32",
          "name": "txHash",
          "type": "bytes32"
        },
        {
          "internalType": "bytes",
          "name": "rlpEncodedTx",
          "type": "bytes"
        },
        {
          "internalType": "bytes",
          "name": "path",
          "type": "bytes"
        },
        {
          "internalType": "bytes",
          "name": "rlpEncodedNodes",
          "type": "bytes"
        }
      ],
      "name": "submitTx",
      "outputs": [],
      "stateMutability": "nonpayable",
      "type": "function"
    },
    {
      "inputs": [
        {
          "internalType": "bytes32",
          "name": "txHash",
          "type": "bytes32"
        },
        {
          "internalType": "address",
          "name": "from",
          "type": "address"
        },
        {
          "internalType": "address",
          "name": "to",
          "type": "address"
        },
        {
          "internalType": "bytes",
          "name": "input",
          "type": "bytes"
        }
      ],
      "name": "submitTxMetaData",
      "outputs": [],
      "stateMutability": "nonpayable",
      "type": "function"
    },
    {
      "inputs": [],
      "name": "deposit",
      "outputs": [
        {
          "internalType": "bool",
          "name": "",
          "type": "bool"
        }
      ],
      "stateMutability": "payable",
      "type": "function"
    },
    {
      "inputs": [],
      "name": "getRequiredVerificationFee",
      "outputs": [
        {
          "internalType": "uint256",
          "name": "",
          "type": "uint256"
        }
      ],
      "stateMutability": "view",
      "type": "function"
    },
    {
      "inputs": [],
      "name": "getRequiredStakePerBlock",
      "outputs": [
        {
          "internalType": "uint256",
          "name": "",
          "type": "uint256"
        }
      ],
      "stateMutability": "view",
      "type": "function"
    },
    {
      "inputs": [
        {
          "internalType": "bytes32",
          "name": "txHash",
          "type": "bytes32"
        }
      ],
      "name": "getTxMetaData",
      "outputs": [
        {
          "internalType": "address",
          "name": "",
          "type": "address"
        },
        {
          "internalType": "address",
          "name": "",
          "type": "address"
        },
        {
          "internalType": "bytes",
          "name": "",
          "type": "bytes"
        }
      ],
      "stateMutability": "view",
      "type": "function"
    }
  ],
  "bytecode": "0x608060405234801561001057600080fd5b50604051611d5a380380611d5a8339818101604052602081101561003357600080fd5b5051600280546001600160a01b03199081163317909155600180546001600160a01b0390931692821683179055600080549091169091179055611cdf8061007b6000396000f3fe6080604052600436106100b15760003560e01c8063a2d761fa11610069578063ba154cff1161004e578063ba154cff14610553578063d0e30db014610584578063ff9fd6cd1461058c576100b1565b8063a2d761fa1461046b578063acef3a1e1461053e576100b1565b80633e66a6381161009a5780633e66a63814610120578063412337a6146102ea5780636b8956cc146103a9576100b1565b8063191b5b72146100b65780633452e2db146100f9575b600080fd5b3480156100c257600080fd5b506100e5600480360360208110156100d957600080fd5b503562ffffff166107da565b604080519115158252519081900360200190f35b34801561010557600080fd5b5061010e61090d565b60408051918252519081900360200190f35b34801561012c57600080fd5b506102e86004803603608081101561014357600080fd5b8135919081019060408101602082013564010000000081111561016557600080fd5b82018360208201111561017757600080fd5b8035906020019184600183028401116401000000008311171561019957600080fd5b91908080601f01602080910402602001604051908101604052809392919081815260200183838082843760009201919091525092959493602081019350359150506401000000008111156101ec57600080fd5b8201836020820111156101fe57600080fd5b8035906020019184600183028401116401000000008311171561022057600080fd5b91908080601f016020809104026020016040519081016040528093929190818152602001838380828437600092019190915250929594936020810193503591505064010000000081111561027357600080fd5b82018360208201111561028557600080fd5b803590602001918460018302840111640100000000831117156102a757600080fd5b91908080601f01602080910402602001604051908101604052809392919081815260200183838082843760009201919091525092955061098d945050505050565b005b3480156102f657600080fd5b506102e86004803603604081101561030d57600080fd5b62ffffff823516919081019060408101602082013564010000000081111561033457600080fd5b82018360208201111561034657600080fd5b8035906020019184600183028401116401000000008311171561036857600080fd5b91908080601f016020809104026020016040519081016040528093929190818152602001838380828437600092019190915250929550610a8a945050505050565b3480156103b557600080fd5b506103d3600480360360208110156103cc57600080fd5b5035610c01565b60405180846001600160a01b03168152602001836001600160a01b0316815260200180602001828103825283818151815260200191508051906020019080838360005b8381101561042e578181015183820152602001610416565b50505050905090810190601f16801561045b5780820380516001836020036101000a031916815260200191505b5094505050505060405180910390f35b34801561047757600080fd5b506102e86004803603608081101561048e57600080fd5b8135916001600160a01b036020820135811692604083013590911691908101906080810160608201356401000000008111156104c957600080fd5b8201836020820111156104db57600080fd5b803590602001918460018302840111640100000000831117156104fd57600080fd5b91908080601f016020809104026020016040519081016040528093929190818152602001838380828437600092019190915250929550610d47945050505050565b34801561054a57600080fd5b5061010e610e2d565b6100e56004803603606081101561056957600080fd5b50803562ffffff16906020810135906040013560ff16610e7c565b6100e5611677565b34801561059857600080fd5b506102e8600480360360a08110156105af57600080fd5b62ffffff82351691908101906040810160208201356401000000008111156105d657600080fd5b8201836020820111156105e857600080fd5b8035906020019184600183028401116401000000008311171561060a57600080fd5b91908080601f016020809104026020016040519081016040528093929190818152602001838380828437600092019190915250929594936020810193503591505064010000000081111561065d57600080fd5b82018360208201111561066f57600080fd5b8035906020019184600183028401116401000000008311171561069157600080fd5b91908080601f01602080910402602001604051908101604052809392919081815260200183838082843760009201919091525092959493602081019350359150506401000000008111156106e457600080fd5b8201836020820111156106f657600080fd5b8035906020019184602083028401116401000000008311171561071857600080fd5b919080806020026020016040519081016040528093929190818152602001838360200280828437600092019190915250929594936020810193503591505064010000000081111561076857600080fd5b82018360208201111561077a57600080fd5b8035906020019184602083028401116401000000008311171561079c57600080fd5b9190808060200260200160405190810160405280939291908181526020018383602002808284376000920191909152509295506117ab945050505050565b62ffffff8116600090815260056020908152604080832080548251601f6002600019610100600186161502019093169290920491820185900485028101850190935280835284938301828280156108725780601f1061084757610100808354040283529160200191610872565b820191906000526020600020905b81548152906001019060200180831161085557829003601f168201915b5050505050905060008151118015610906575060005481516020808401919091206040805163d0f0923b60e01b81526004810192909252516001600160a01b039093169263d0f0923b92602480840193919291829003018186803b1580156108d957600080fd5b505afa1580156108ed573d6000803e3d6000fd5b505050506040513d602081101561090357600080fd5b50515b9392505050565b60008060009054906101000a90046001600160a01b03166001600160a01b0316633452e2db6040518163ffffffff1660e01b815260040160206040518083038186803b15801561095c57600080fd5b505afa158015610970573d6000803e3d6000fd5b505050506040513d602081101561098657600080fd5b5051905090565b6002546001600160a01b031633146109db576040805162461bcd60e51b815260206004820152600c60248201526b2737ba1030b71037bbb732b960a11b604482015290519081900360640190fd5b604080516060810182528481526020808201859052818301849052600087815260038252929092208151805192939192610a189284920190611b95565b506020828101518051610a319260018501920190611b95565b5060408201518051610a4d916002840191602090910190611b95565b50506040805186815290517f6e22b9dc9c91266e5532a220e600abf43b4b37510f93c2dff5874a0826358d0892509081900360200190a150505050565b6002546001600160a01b03163314610ad8576040805162461bcd60e51b815260206004820152600c60248201526b2737ba1030b71037bbb732b960a11b604482015290519081900360640190fd5b6000805460405163d510738160e01b81526020600482018181528551602484015285516001600160a01b039094169463d5107381948794929384936044019290860191908190849084905b83811015610b3b578181015183820152602001610b23565b50505050905090810190601f168015610b685780820380516001836020036101000a031916815260200191505b5092505050600060405180830381600087803b158015610b8757600080fd5b505af1158015610b9b573d6000803e3d6000fd5b5050505062ffffff821660009081526005602090815260409091208251610bc492840190611b95565b506040805162ffffff8416815290517f5241076e6129ce1b1a826512bdfc24b35bceac490b4addc7c3ef0164d63b57079181900360200190a15050565b600081815260046020908152604080832081516060808201845282546001600160a01b039081168352600180850154909116838701526002808501805487516101009482161594909402600019011691909104601f810188900488028301880187528083528897939688969490860193929190830182828015610cc55780601f10610c9a57610100808354040283529160200191610cc5565b820191906000526020600020905b815481529060010190602001808311610ca857829003601f168201915b5050509190925250508151919250506001600160a01b0316610d2e576040805162461bcd60e51b815260206004820152601560248201527f5472616e73616374696f6e206e6f7420666f756e640000000000000000000000604482015290519081900360640190fd5b8051602082015160409092015190969195509350915050565b6002546001600160a01b03163314610d95576040805162461bcd60e51b815260206004820152600c60248201526b2737ba1030b71037bbb732b960a11b604482015290519081900360640190fd5b604080516060810182526001600160a01b038086168252848116602080840191825283850186815260008a81526004835295909520845181549085167fffffffffffffffffffffffff000000000000000000000000000000000000000091821617825592516001820180549190951693169290921790925592518051929392610e249260028501920190611b95565b50505050505050565b60008060009054906101000a90046001600160a01b03166001600160a01b031663acef3a1e6040518163ffffffff1660e01b815260040160206040518083038186803b15801561095c57600080fd5b6000805460408051633452e2db60e01b8152905183926001600160a01b031691633452e2db916004808301926020929190829003018186803b158015610ec157600080fd5b505afa158015610ed5573d6000803e3d6000fd5b505050506040513d6020811015610eeb57600080fd5b5051905034811115610f44576040805162461bcd60e51b815260206004820152601b60248201527f4e6f7420656e6f75676820766572696669636174696f6e206665650000000000604482015290519081900360640190fd5b60008481526003602052604090205460026000196101006001841615020190911604610fa15760405162461bcd60e51b8152600401808060200182810382526023815260200180611c636023913960400191505060405180910390fd5b62ffffff8516600090815260056020526040902054600260001961010060018416150201909116046110045760405162461bcd60e51b815260040180806020018281038252602c815260200180611c37602c913960400191505060405180910390fd5b60015b8360ff168162ffffff16116110835762ffffff868201166000908152600560205260409020546002600019610100600184161502019091160461107b5760405162461bcd60e51b8152600401808060200182810382526024815260200180611c866024913960400191505060405180910390fd5b600101611007565b5060008481526003602090815260408083208151815460026001821615610100026000190190911604601f8101859004909402810160809081019093526060810184815290939192849284918401828280156111205780601f106110f557610100808354040283529160200191611120565b820191906000526020600020905b81548152906001019060200180831161110357829003601f168201915b50505050508152602001600182018054600181600116156101000203166002900480601f0160208091040260200160405190810160405280929190818152602001828054600181600116156101000203166002900480156111c25780601f10611197576101008083540402835291602001916111c2565b820191906000526020600020905b8154815290600101906020018083116111a557829003601f168201915b5050509183525050600282810180546040805160206001841615610100026000190190931694909404601f810183900483028501830190915280845293810193908301828280156112545780601f1061122957610100808354040283529160200191611254565b820191906000526020600020905b81548152906001019060200180831161123757829003601f168201915b5050505050815250509050600080600160009054906101000a90046001600160a01b03166001600160a01b03168485600560008c62ffffff1662ffffff1681526020019081526020016000208987600001518860200151896040015160405160240180878152602001806020018660ff16815260200180602001806020018060200185810385528a8181546001816001161561010002031660029004815260200191508054600181600116156101000203166002900480156113575780601f1061132c57610100808354040283529160200191611357565b820191906000526020600020905b81548152906001019060200180831161133a57829003601f168201915b505085810384528851815288516020918201918a019080838360005b8381101561138b578181015183820152602001611373565b50505050905090810190601f1680156113b85780820380516001836020036101000a031916815260200191505b50858103835287518152875160209182019189019080838360005b838110156113eb5781810151838201526020016113d3565b50505050905090810190601f1680156114185780820380516001836020036101000a031916815260200191505b50858103825286518152865160209182019188019080838360005b8381101561144b578181015183820152602001611433565b50505050905090810190601f1680156114785780820380516001836020036101000a031916815260200191505b5060408051601f198184030181529181526020820180517bffffffffffffffffffffffffffffffffffffffffffffffffffffffff16632f14dbed60e11b17815290518251929d509b508b9a50985096508695508894508793505050505b602083106114f45780518252601f1990920191602091820191016114d5565b6001836020036101000a03801982511681845116808217855250505050505090500191505060006040518083038185875af1925050503d8060008114611556576040519150601f19603f3d011682016040523d82523d6000602084013e61155b565b606091505b50915091507f9525e9f9f8729240da0ad0e3f23360cae93f59755e79ec0163ee4f59e8d67b94816040518080602001828103825283818151815260200191508051906020019080838360005b838110156115bf5781810151838201526020016115a7565b50505050905090810190601f1680156115ec5780820380516001836020036101000a031916815260200191505b509250505060405180910390a160408051831515815290517f70103de4a9922f7c12056bc49e13f4a2c1d33b4d57961b8fd0a6060c421e6c949181900360200190a181156116695761165e81600060405160200180828152602001915050604051602081830303815290604052611ae7565b945050505050610906565b506000979650505050505050565b6001546040805134602480830182905283518084039091018152604490920183526020820180517bffffffffffffffffffffffffffffffffffffffffffffffffffffffff1663cb82cc8f60e01b1781529251825160009586956001600160a01b039091169492918291908083835b602083106117045780518252601f1990920191602091820191016116e5565b6001836020036101000a03801982511681845116808217855250505050505090500191505060006040518083038185875af1925050503d8060008114611766576040519150601f19603f3d011682016040523d82523d6000602084013e61176b565b606091505b505060408051821515815290519192507f2d354a80b1f65295b913faea41925951cec9e35ea68a770d299ae65605767b49919081900360200190a1905090565b6002546001600160a01b031633146117f9576040805162461bcd60e51b815260206004820152600c60248201526b2737ba1030b71037bbb732b960a11b604482015290519081900360640190fd5b6000805460405163d510738160e01b81526020600482018181528851602484015288516001600160a01b039094169463d5107381948a94929384936044019290860191908190849084905b8381101561185c578181015183820152602001611844565b50505050905090810190601f1680156118895780820380516001836020036101000a031916815260200191505b5092505050600060405180830381600087803b1580156118a857600080fd5b505af11580156118bc573d6000803e3d6000fd5b5050505060008054906101000a90046001600160a01b03166001600160a01b031663fbdf930d858585856040518563ffffffff1660e01b81526004018080602001806020018060200180602001858103855289818151815260200191508051906020019080838360005b8381101561193e578181015183820152602001611926565b50505050905090810190601f16801561196b5780820380516001836020036101000a031916815260200191505b5085810384528851815288516020918201918a019080838360005b8381101561199e578181015183820152602001611986565b50505050905090810190601f1680156119cb5780820380516001836020036101000a031916815260200191505b508581038352875181528751602091820191808a01910280838360005b83811015611a005781810151838201526020016119e8565b50505050905001858103825286818151815260200191508051906020019060200280838360005b83811015611a3f578181015183820152602001611a27565b5050505090500198505050505050505050600060405180830381600087803b158015611a6a57600080fd5b505af1158015611a7e573d6000803e3d6000fd5b5050505062ffffff851660009081526005602090815260409091208551611aa792870190611b95565b506040805162ffffff8716815290517f5241076e6129ce1b1a826512bdfc24b35bceac490b4addc7c3ef0164d63b57079181900360200190a15050505050565b60008151835114611afa57506000611b8f565b60005b8351811015611b8957828181518110611b1257fe5b602001015160f81c60f81b7effffffffffffffffffffffffffffffffffffffffffffffffffffffffffffff1916848281518110611b4b57fe5b01602001517fff000000000000000000000000000000000000000000000000000000000000001614611b81576000915050611b8f565b600101611afd565b50600190505b92915050565b828054600181600116156101000203166002900490600052602060002090601f016020900481019282611bcb5760008555611c11565b82601f10611be457805160ff1916838001178555611c11565b82800160010185558215611c11579182015b82811115611c11578251825591602001919060010190611bf6565b50611c1d929150611c21565b5090565b5b80821115611c1d5760008155600101611c2256fe5472616e73616374696f6e277320626c6f636b206973206e6f7420696e20746865207265706f7369746f727954726173616374696f6e206973206e6f7420696e20746865207265706f7369746f7279446f206e6f74206861766520656e6f75676820626c6f636b7320746f20636f6e6669726da2646970667358221220637270ce8741af063822c48e8b08a8ed9de72a5a8658543fb7b43d8b3477dc2c64736f6c63430007060033",
  "immutableReferences": {},
  "source": "// SPDX-License-Identifier: MIT\n// pragma solidity >=0.7.0 <0.9.0;\npragma solidity =0.7.6;\n\nabstract contract EthrelayInterface {\n    function depositStake(uint amount) payable public virtual;\n    function getRequiredStakePerBlock() public pure virtual returns (uint);\n    function getRequiredVerificationFee() public pure virtual returns (uint);\n    function submitBlock(bytes memory rlpHeader) public virtual;\n    function disputeBlockHeader(bytes calldata rlpHeader, bytes memory rlpParent, uint[] memory dataSetLookup, uint[] memory witnessForLookup) public virtual;\n    function verifyTransaction(uint feeInWei, bytes memory rlpHeader, uint8 noOfConfirmations, bytes memory rlpEncodedTx,\n        bytes memory path, bytes memory rlpEncodedNodes) payable public virtual returns (uint8);\n    function isHeaderStored(bytes32 hash) public view virtual returns (bool);\n\n}\n\ncontract VerifyTransaction {\n    EthrelayInterface ethrelayContract;\n    address payable contractAddress;\n\n    struct TxMerkleProof {\n        bytes rlpEncodedTx;\n        bytes path;\n        bytes rlpEncodedNodes;\n    }\n\n    struct TxMetaData {\n        address from;\n        address to;\n        bytes input;\n    }\n    address private owner;\n    mapping(bytes32 => TxMerkleProof) private txMerkleProofs;\n    mapping(bytes32 => TxMetaData) private txsMetaData;\n    mapping(uint24 => bytes) private blockRlpHeaders;\n    \n    event SubmittedBlock(uint blockNumber);\n    event SubmittedTx(bytes32 txHash);\n    modifier isOwner() {\n        require(msg.sender == owner, \"Not an owner\");\n        _;\n    }\n\n    constructor (address payable ethrelayAddr) {\n        owner = msg.sender;\n        contractAddress = ethrelayAddr;\n        ethrelayContract = EthrelayInterface(ethrelayAddr);\n    }\n\n    event VerifyArgs(bytes blockHeader, uint8 nConfirm, bytes rlpEncodedTx, bytes path, bytes rlpEncodedNodes);\n    event Verify(bytes res);\n    event VerifyBool(bool b);\n    function verify(uint24 blockNumber, bytes32 txHash, uint8 noOfConfirmations) payable public returns (bool) {\n        uint verifyFee = ethrelayContract.getRequiredVerificationFee();\n        require(msg.value >= verifyFee, \"Not enough verification fee\");\n        require(txMerkleProofs[txHash].rlpEncodedTx.length > 0, \"Trasaction is not in the repository\" );\n        require(blockRlpHeaders[blockNumber].length > 0, \"Transaction's block is not in the repository\");\n        // emit Log(\"verify\");\n        for (uint24 i = 1; i <= noOfConfirmations; i++) {\n            require(blockRlpHeaders[blockNumber + i].length > 0, \"Do not have enough blocks to confirm\");\n        }\n\n        TxMerkleProof memory txMerkleProof = txMerkleProofs[txHash];\n        // emit VerifyArgs(blockRlpHeaders[blockNumber], noOfConfirmations, txMerkleProof.rlpEncodedTx, txMerkleProof.path,txMerkleProof.rlpEncodedNodes);\n        (bool success , bytes memory data) = contractAddress.call{value: verifyFee}(\n            abi.encodeWithSignature(\"verifyTransaction(uint256,bytes,uint8,bytes,bytes,bytes)\",\n                verifyFee, blockRlpHeaders[blockNumber], noOfConfirmations, txMerkleProof.rlpEncodedTx, txMerkleProof.path, txMerkleProof.rlpEncodedNodes)\n        );\n    \n        emit Verify(data);\n        emit VerifyBool(success);\n        if (success) {\n            return compareBytes(data, abi.encodePacked(uint(0)));\n        } else {\n            return false;\n        }\n    }\n\n    function isHeaderStored(uint24 blockNumber) public view returns (bool) {\n        bytes memory rlpHeader = blockRlpHeaders[blockNumber];\n        return rlpHeader.length > 0 && ethrelayContract.isHeaderStored(keccak256(rlpHeader));\n    }\n\n    function submitBlock(uint24 blockNumber, bytes memory rlpHeader) public isOwner {\n        ethrelayContract.submitBlock(rlpHeader);\n        // require(ethrelayContract.isHeaderStored(keccak256(rlpHeader)), \"Failed to store block header\");\n        blockRlpHeaders[blockNumber] = rlpHeader;\n\n        emit SubmittedBlock(blockNumber);\n    }\n\n    function submitAndVerifyBlock(uint24 blockNumber, bytes memory rlpHeader, bytes memory rlpParent, uint[] memory dataSetLookup, uint[] memory witnessForLookup) public isOwner {\n        ethrelayContract.submitBlock(rlpHeader);\n        ethrelayContract.disputeBlockHeader(rlpHeader, rlpParent, dataSetLookup, witnessForLookup);\n        // require(ethrelayContract.isHeaderStored(keccak256(rlpHeader)), \"Failed to store block header\");\n        blockRlpHeaders[blockNumber] = rlpHeader;\n\n        emit SubmittedBlock(blockNumber);\n    }\n\n    function submitTx(bytes32 txHash, bytes memory rlpEncodedTx, bytes memory path, bytes memory rlpEncodedNodes) public isOwner {\n        txMerkleProofs[txHash] = TxMerkleProof(rlpEncodedTx, path, rlpEncodedNodes);\n        emit SubmittedTx(txHash);\n    }\n    \n    function submitTxMetaData(bytes32 txHash, address from, address to, bytes memory input) public isOwner {\n        txsMetaData[txHash] = TxMetaData(from, to, input);\n    }\n\n    event Deposit(bool res);\n    function deposit() public payable returns (bool) {\n        (bool success, ) = contractAddress.call{value: msg.value}(\n            abi.encodeWithSignature(\"depositStake(uint256)\", msg.value)\n        );\n        emit Deposit(success);\n        return success;\n    }\n\n    function getRequiredVerificationFee() public view returns (uint) {\n        return ethrelayContract.getRequiredVerificationFee();\n    }\n\n    function getRequiredStakePerBlock() public view returns (uint) {\n        return ethrelayContract.getRequiredStakePerBlock();\n    }\n\n    function getTxMetaData(bytes32 txHash) public view returns (address, address, bytes memory) {\n        TxMetaData memory txMetaData = txsMetaData[txHash];\n        require(txMetaData.from != address(0), \"Transaction not found\");\n        \n        return (txMetaData.from, txMetaData.to, txMetaData.input);\n    }\n\n    function compareBytes(bytes memory b1, bytes memory b2) internal pure returns (bool) {\n        if (b1.length != b2.length) {\n            return false;\n        }\n\n        for (uint i = 0; i < b1.length; i++) {\n            if (b1[i] != b2[i]) {\n                return false;\n            }\n        }\n\n        return true;\n    }\n}",
  "sourcePath": "/Users/hua/Codes/block-chain/uniswap-o/v3-core/contracts/VerifyTransaction.sol",
  "compiler": {
    "name": "solc",
    "version": "0.7.6+commit.7338295f.Emscripten.clang"
  },
  "schemaVersion": "3.4.8",
  "updatedAt": "2023-01-24T20:40:57.839Z",
  "devdoc": {
    "kind": "dev",
    "methods": {},
    "version": 1
  },
  "userdoc": {
    "kind": "user",
    "methods": {},
    "version": 1
  }
}